:100000000C94FD010C9425020C9425020C944808D4
:100010000C9424080C9400080C9425020C942502DE
:100020000C9425020C9425020C9425020C942502B4
:100030000C9425020C9425020C9425020C942502A4
:100040000C94AB050C9425020C941E030C94F8023E
:100050000C9425020C9425020C9425020C94250284
:100060000C94F5050C94250207634236B79BD8A77C
:100070001A39685618AEBAAB558C1D3CB7CC5763CD
:10008000BD6DEDFD753EF6177231BF000000803F7B
:1000900008000000BE922449123EABAAAA2ABECD97
:1000A000CCCC4C3E00000080BEABAAAAAA3E000009
:1000B0000000BF000000803F000000000008417801
:1000C000D3BB4387D1133D190E3CC3BD4282AD2B38
:1000D0003E68EC8276BED98FE1A93E4C80EFFFBE30
:1000E00001C4FF7F3F000000000000C201000100CA
:1000F000050005000300030000E1000001000F00FF
:100100000F000D000D0000960000020019001A00FB
:1001100017001700127A00000700200021001D00C0
:100120001D00807000000B00230023002000200031
:10013000004B000014003700370034003400403812
:1001400000001E004B004B004800480048260000FD
:100150003100710071006F006F00E4250000310074
:10016000710071006F006F00802500003200720086
:10017000720070007000C01200006E00E900E9001B
:10018000E600E60060090000E500D801D801D501CD
:10019000D501B0040000D301B403B403B103B1032B
:1001A00058020000B40367076707620762072C0163
:1001B00000006707DD0EDD0EDA0EDA0E2000B04318
:1001C0000054656D70657261747572006D00486FE2
:1001D0006568650052435400204A65746920416C8B
:1001E000744D657465720020524354204A657469E9
:1001F00020546F6F6C7300204A65746920416C74E1
:100200004D657465720020524354204A657469201C
:10021000546F6F6C73005665726C617373656E20FA
:100220003C00486F65686520726573657421004EF7
:100230006965646572647275636B656E2100486FF1
:100240006568652F4D617820526573657400B04311
:10025000004D617854656D702E3A20006D004D613F
:1002600078486F652E3A2000B0430054656D702EBB
:100270003A20006D00486F6568653A2000204A65A5
:10028000746920416C744D6574657200205243544A
:10029000204A65746920546F6F6C73000000000081
:1002A000240027002A0000000008000201000003CB
:1002B0000407000000000000000000070E091C1BDE
:1002C0001215383F363124232A2D70777E796C6BD6
:1002D0006265484F464154535A5DE0E7EEE9FCFB46
:1002E000F2F5D8DFD6D1C4C3CACD90979E998C8B36
:1002F0008285A8AFA6A1B4B3BABDC7C0C9CEDBDCA6
:10030000D5D2FFF8F1F6E3E4EDEAB7B0B9BEABAC95
:10031000A5A28F88818693949D9A2720292E3B3C05
:1003200035321F18111603040D0A5750595E4B4CF5
:1003300045426F68616673747D7A898E8780959275
:100340009B9CB1B6BFB8ADAAA3A4F9FEF7F0E5E255
:10035000EBECC1C6CFC8DDDAD3D4696E67607572C5
:100360007B7C51565F584D4A4344191E17100502B5
:100370000B0C21262F283D3A33344E494047525525
:100380005C5B7671787F6A6D64633E393037222515
:100390002C2B0601080F1A1D1413AEA9A0A7B2B585
:1003A000BCBB9691989F8A8D8483DED9D0D7C2C575
:1003B000CCCBE6E1E8EFFAFDF4F300000000250005
:1003C00028002B0000000000230026002900040460
:1003D00004040404040402020202020203030303ED
:1003E00003030102040810204080010204081020C9
:1003F000010204081020AD137A1311241FBECFEFA1
:10040000D8E0DEBFCDBF11E0A0E0B1E0EAE0F2E36A
:1004100002C005900D92AA33B107D9F724E0AAE3F0
:10042000B1E001C01D92AA39B207E1F711E0CCEFAB
:10043000D1E004C02197FE010E94D318CB3FD10721
:10044000C9F70E941F0D0C94F8180C940000CF926D
:10045000DF92EF92FF920F931F93CF93DF936C0184
:100460007A018B01C0E0D0E0CE15DF0589F0D8011C
:100470006D918D01D601ED91FC910190F081E02DFF
:10048000C6010995892B11F47E0102C02196ECCF9B
:10049000C701DF91CF911F910F91FF90EF90DF90F7
:1004A000CF900895FC01538D448D252F30E0842F8B
:1004B00090E0821B930B541710F0CF96089501978C
:1004C0000895FC01918D828D981761F0828DDF0176
:1004D000A80FB11D5D968C91928D9F5F9F73928F37
:1004E00090E008958FEF9FEF0895FC01918D828D2C
:1004F000981731F0828DE80FF11D858D90E00895F9
:100500008FEF9FEF08950E94E8188FE692E00E9417
:10051000500321E0892B09F420E0822F0895EF9207
:10052000FF920F931F93CF93DF93EC0181E0888FAD
:100530009B8D8C8D981305C0E889F989808185FD94
:1005400024C0F62E0B8D10E00F5F1F4F0F73112785
:10055000E02E8C8DE8120CC00FB607FCFACFE889AC
:10056000F989808185FFF5CFCE010E94BC04F1CFCF
:100570008B8DFE01E80FF11DE35AFF4FF0820B8FC8
:10058000EA89FB898081806207C0EE89FF896083E8
:10059000E889F98980818064808381E090E0DF913F
:1005A000CF911F910F91FF90EF900895CF93DF931C
:1005B000EC01888D8823C9F0EA89FB89808185FD5B
:1005C00005C0A889B9898C9186FD0FC00FB607FCBC
:1005D000F5CF808185FFF2CFA889B9898C9185FFFD
:1005E000EDCFCE010E94BC04E7CFDF91CF910895FB
:1005F0001F920F920FB60F9211242F933F934F9398
:100600005F936F937F938F939F93AF93BF93EF937A
:10061000FF938FE692E00E94BC04FF91EF91BF919F
:10062000AF919F918F917F916F915F914F913F918A
:100630002F910F900FBE0F901F9018951F920F9241
:100640000FB60F9211242F938F939F93EF93FF93E5
:10065000E0917F02F09180028081E0918502F0912B
:10066000860282FD12C09081809188028F5F8F7315
:1006700020918902821751F0E0918802F0E0E1595F
:10068000FD4F958F8093880201C08081FF91EF918B
:100690009F918F912F910F900FBE0F901F901895E3
:1006A000FC01918D228D892F90E0805C9F4F821BF1
:1006B00091098F739927089580E090E0892B29F0A4
:1006C0000E94850281110C94000008953FB7F894B0
:1006D0008091CA019091CB01A091CC01B091CD0144
:1006E00026B5A89B05C02F3F19F00196A11DB11D8D
:1006F0003FBFBA2FA92F982F8827820F911DA11DC8
:10070000B11DBC01CD0143E0660F771F881F991F03
:100710004A95D1F7089585ED8093BC008091BC0087
:1007200084FDFCCF1092160208954091A001262F5F
:1007300030E0240F311D21323105DCF42091160206
:100740002430C9F4FC0180E090E0861758F4309121
:10075000A0012191DC01A258BE4FA30FB11D2C9323
:100760000196F3CF8091A001680F6093A00180E013
:10077000089581E0089582E008950895E091CF0101
:100780008091CE01E81730F4F0E0E053FE4F808115
:1007900090E008958FEF9FEF08959091CF018091A1
:1007A000CE01981750F4E92FF0E0E053FE4F20817E
:1007B00030E09F5F9093CF0102C02FEF3FEFC90160
:1007C00008958091CE0190E02091CF01821B910984
:1007D0000895CF92DF92EF92FF920F931F93CF93E2
:1007E000DF937C01262F972F8A018091170288239F
:1007F00091F0C62FD72F6E01C40ED51ECC15DD0586
:1008000071F06991D701ED91FC910190F081E02D9B
:10081000C7010995F3CF642F822F0E949503C80169
:10082000DF91CF911F910F91FF90EF90DF90CF90CC
:100830000895CF93DF931F92CDB7DEB769832091E0
:1008400017022223D1F020913902203240F021E01A
:1008500030E0FC013383228380E090E015C080917A
:100860001802E82FF0E0E75EFD4F998190838F5FDB
:10087000809318028093390205C061E0CE01019691
:100880000E94950381E090E00F90DF91CF91089551
:10089000DC015196ED91FC915297908150968C918C
:1008A000809589238083089520916D0230916E0296
:1008B0002817390781F490916B0280916C02981788
:1008C00051F0E0916B02F0E0E25AFE4F8081082E79
:1008D000000C990B08958FEF9FEF089520916D0202
:1008E00030916E022817390739F48FB7F8941092B7
:1008F0006C0210926B028FBF089520916D023091AF
:100900006E022817390769F480916C0220916B02FE
:1009100090E08096821B910960E270E00E94571877
:1009200008958FEF9FEF089520916D0230916E0230
:1009300028173907B9F490916B0280916C029817CF
:10094000A1F0E0916B02F0E0E25AFE4F808120912D
:100950006B0230E02F5F3F4F2F71332720936B02E4
:1009600090E008958FEF9FEF08958EEF9FEF089529
:10097000089580E090E00895FC01848DDF01A80FC8
:10098000B11DA35ABF4F2C91848D90E001968F73B7
:100990009927848FA689B7892C93A089B1898C91D6
:1009A00080648C93938D848D981306C00288F3899C
:1009B000E02D80818F7D8083089590E0FC01EA55D1
:1009C000FD4F3491FC01EE51FC4F2491FC01E253A8
:1009D000FC4FE491EE2309F43BC0332339F133306B
:1009E00091F038F43130A9F0323001F584B58F7DC3
:1009F00012C0373091F03830A1F03430B9F4809122
:100A000080008F7D03C0809180008F77809380006D
:100A10000DC084B58F7784BD09C08091B0008F77F9
:100A200003C08091B0008F7D8093B000F0E0EE0FA6
:100A3000FF1FE654FC4FA591B4918FB7F894EC9149
:100A4000611103C020952E2301C02E2B2C938FBF44
:100A50000895CF93DF9390E0FC01EE51FC4F249179
:100A6000FC01E253FC4F8491882361F190E0880FF0
:100A7000991FFC01E456FD4FC591D491FC01E65449
:100A8000FC4FA591B491611109C09FB7F89488817A
:100A9000209582238883EC912E230BC0623061F471
:100AA0009FB7F8943881822F809583238883EC91B7
:100AB0002E2B2C939FBF06C08FB7F894E8812E2B66
:100AC00028838FBFDF91CF9108958F929F92AF922D
:100AD000BF92CF92DF92EF92FF926B017C010E9456
:100AE00066034B015C01C114D104E104F104F1F08F
:100AF0000E946603DC01CB0188199909AA09BB0988
:100B0000883E9340A105B10570F321E0C21AD108D7
:100B1000E108F10888EE880E83E0981EA11CB11C44
:100B2000C114D104E104F10419F7DDCFFF90EF9077
:100B3000DF90CF90BF90AF909F908F9008952FB788
:100B4000F8946091C6017091C7018091C80190919D
:100B5000C9012FBF08951F920F920FB60F92112453
:100B60002F933F938F939F93AF93BF938091C60131
:100B70009091C701A091C801B091C9013091C50100
:100B800026E0230F2D3720F40296A11DB11D05C0CC
:100B900029E8230F0396A11DB11D2093C501809361
:100BA000C6019093C701A093C801B093C901809179
:100BB000CA019091CB01A091CC01B091CD010196D9
:100BC000A11DB11D8093CA019093CB01A093CC01CC
:100BD000B093CD01BF91AF919F918F913F912F9194
:100BE0000F900FBE0F901F9018951F920F920FB687
:100BF0000F9211242F933F934F935F936F937F93A3
:100C00008F939F93AF93BF93EF93FF938091B9001E
:100C1000887F803609F49CC068F5883209F45BC08F
:100C200090F4803109F454C038F4882309F4F6C0F4
:100C3000883009F44DC0F6C0883109F44CC08032C8
:100C400009F45DC0EFC0803409F468C048F4803313
:100C500009F455C0883309F0E5C080931402D8C068
:100C6000803509F44FC0883509F45DC0883409F037
:100C7000D9C0D6C0883909F4C7C0A8F4883709F4A8
:100C800067C038F4883609F463C0803709F460C05F
:100C9000C9C0883809F4B8C0803909F45FC0803809
:100CA00009F0C0C05BC0803B09F486C038F4803ACC
:100CB00009F466C0883A09F47FC0B4C0803C09F4E6
:100CC000A7C0883C09F4A4C0883B09F48AC0AAC024
:100CD0008091F10110C09091130280911202981737
:100CE00070F5E091130281E08E0F80931302F0E023
:100CF000EE50FE4F80818093BB0085EC86C08093D0
:100D000014028EC0E091130281E08E0F80931302D3
:100D10008091BB00F0E0EE50FE4F80839091130273
:100D2000809112026EC0E091130281E08E0F8093D9
:100D300013028091BB00F0E0EE50FE4F8083809163
:100D4000150281116DC081E08093F00184EA61C0D9
:100D500083E0809316021092C401CFCF8091C4012A
:100D6000803208F051C0E091C40181E08E0F809381
:100D7000C4018091BB00F0E0EC55FE4F8083BDCFF5
:100D800085EC8093BC00109216028091C4018032E1
:100D900030F4E091C401F0E0EC55FE4F1082609118
:100DA000C40170E0E091A201F091A30184EA91E016
:100DB00009951092C40136C084E080931602109207
:100DC000A1011092A001E0919E01F0919F0109956F
:100DD0008091A001811105C081E08093A001109253
:100DE0007E01E091A10181E08E0F8093A101F0E0EE
:100DF000E258FE4F80818093BB009091A1018091C9
:100E0000A001981708F479CF85E88093BC000AC048
:100E100085EC8093BC001092160204C0109214025C
:100E20000E948B03FF91EF91BF91AF919F918F91A2
:100E30007F916F915F914F913F912F910F900FBED6
:100E40000F901F90189520E001972FEF8F3F92078A
:100E5000D9F70895CF92DF92EF92FF920F931F93ED
:100E6000CF93DF93EC01898D9A8D009729F421E0CF
:100E700030E03B832A8364C0FFB6F89428E030E07A
:100E800090E081E0482F462309F09F5F880F2150B2
:100E90003109C1F78E8D81119F5FE62E192F1095B4
:100EA000CE010E944804898D9A8D04960E942307E2
:100EB00088E0C82ED12C01E0802F8E2139F0E989FD
:100EC000FA8990818889892B808303C0CE010E9492
:100ED0004804898D9A8D0E942307000F81E0C81A6B
:100EE000D10851F78E8D882339F0E989FA899081EC
:100EF0008889892B808303C0CE010E944804898D94
:100F00009A8D0E94230710FF07C0E989FA89908112
:100F10008889892B808303C0CE010E944804898D73
:100F20009A8D0E942307E989FA8990818889892B03
:100F30008083FFBE8B8D9C8D0E94230781E090E013
:100F4000DF91CF911F910F91FF90EF90DF90CF90A5
:100F50000895EF92FF920F931F93CF93DF93C09169
:100F60006D02D0916E02209709F443C08B899C8951
:100F70000E94230788E0E82EF12C10E001E08D8923
:100F80009E890E942307EE85FF8590818D858923A8
:100F900011F0102B03C0802F80951823000F81E0E3
:100FA000E81AF10861F78D899E890E9423078F89CD
:100FB000988D0E94230780916C0220916B0290E033
:100FC00001968F71992730E08217930779F0E091AD
:100FD0006C02F0E0E25AFE4F108380916C0290E0C8
:100FE00001968F71992780936C0203C08D8D81606B
:100FF0008D8FDF91CF911F910F91FF90EF9008950A
:101000001F920F920FB60F9211242F933F934F937D
:101010005F936F937F938F939F93AF93BF93EF9360
:10102000FF930E94A907FF91EF91BF91AF919F910C
:101030008F917F916F915F914F913F912F910F9081
:101040000FBE0F901F9018951F920F920FB60F9220
:1010500011242F933F934F935F936F937F938F93BD
:101060009F93AF93BF93EF93FF930E94A907FF91C4
:10107000EF91BF91AF919F918F917F916F915F9110
:101080004F913F912F910F900FBE0F901F90189589
:101090001F920F920FB60F9211242F933F934F93ED
:1010A0005F936F937F938F939F93AF93BF93EF93D0
:1010B000FF930E94A907FF91EF91BF91AF919F917C
:1010C0008F917F916F915F914F913F912F910F90F1
:1010D0000FBE0F901F901895CF93DF93C0E0D0E024
:1010E0008091420490E0C817D907ECF4209761F092
:1010F0000197C817D90741F081E020914004309151
:101100004104C217D30709F480E0FE01E457FC4F05
:1011100060818093610483E494E00E942A07109226
:1011200061042196DDCFDF91CF910895209139029E
:1011300090917904213208F04AC080911602811101
:10114000FCCF32E03093160231E0309315023FEFCE
:10115000309314021092130220931202A9E1B2E01C
:1011600042EF51E0FA013E2F341B321718F43D9143
:101170003193F9CF1092F1012091F101990F922B47
:101180009093F1019091F001913061F41092F0018F
:101190009091F1019093BB009091BC0093FDF8CF2A
:1011A00095EC01C095EE9093BC00909116029230A0
:1011B000E1F3909114029F3F79F080911402803204
:1011C00041F080911402803331F084E005C081E069
:1011D00003C082E001C083E010921802109239022D
:1011E000109217020895909116029111FCCF81324E
:1011F00008F080E291E090931602909315022FEF91
:101200002093140210921302280F2093120290933D
:10121000F1019091F1019E6E9093F1019091F00196
:10122000913061F41092F0019091F1019093BB0024
:101230009091BC0093FDF8CF95EC01C095EE909392
:10124000BC00909116029130E1F39091130298172F
:1012500010F480911302A2EFB1E020ED31E0F9012A
:101260009E2F921B981718F49D919193F9CF10928D
:10127000CF018093CE01089580916D0290916E020E
:1012800083549440A1F0809160048E7F8093600429
:101290008FB7F89410926C0210926B0223E434E042
:1012A00030936E0220936D028FBF81E0089580E03D
:1012B00008952F923F924F925F926F927F928F92FA
:1012C0009F92AF92BF92CF92DF92EF92FF920F93D5
:1012D0001F93CF93DF9300D000D0CDB7DEB72B01A3
:1012E0003C0120E030E0A9010E94F11487FF05C015
:1012F00020E030E040E05FEB04C020E030E040E080
:101300005FE3C301B2010E9485146B017C0120E000
:1013100030E0A901C301B2010E94F11487FF04C0AB
:10132000F7FAF094F7F8F094A12CB12C8DEC282E5C
:101330009CEC392E8CEC8B839DE39C8320E030E089
:1013400040E251E4B1018B819C810E9455164B0112
:101350008C01A70196010E94F11418163CF0AFEF22
:10136000AA1ABA0A14010B831C83E8CF20E030E0EC
:10137000A901C301B2010E94F11487FF06C08DE2EA
:1013800080935B0201E010E002C000E010E0A114D5
:10139000B10439F4F801E55AFD4F80E380830F5F13
:1013A0001F4F812C912CF401E00FF11FFA83E98388
:1013B0008A149B04B1F191014B815C81C701B60194
:1013C0000E94F6140E9468152B013C0169817A8104
:1013D000655A7D4F4AE0C2010E944F14B201550C7C
:1013E000880B990B0E94A01591014B815C810E9492
:1013F00055169B01AC01C701B6010E9484146B0114
:101400007C0120E030E040E251E4B1018B819C811D
:101410000E94F6141B018B839C83BFEF8B1A9B0ADF
:10142000C2CFE55AFD4F10828BE592E00F900F90EE
:101430000F900F90DF91CF911F910F91FF90EF9040
:10144000DF90CF90BF90AF909F908F907F906F90E4
:101450005F904F903F902F900895AAE7B4E020E06E
:1014600040E250E15A0F21111FC0FC013491332397
:10147000D9F03C93119601965A13F5CF80E090E095
:1014800020E030E2DC01A658BB4F211110C0FB0167
:10149000E80FF91FE491EE2351F05096EC9301967A
:1014A0008031910579F708954C9321E0E3CF509670
:1014B0003C9321E0F4CFCF93DF93EBE4F2E0019093
:1014C0000020E9F73197EB54F240CBE4D2E0AAE7F1
:1014D000B4E080E090E28E1718F428812C9301C0CC
:1014E0009C938F5F219611968031A9F7EBE3F2E090
:1014F00001900020E9F73197EB53F24080E090E053
:1015000020E2DC01A658BB4F8E1738F4EC01C55C15
:10151000DD4F388150963C9302C050962C93019633
:101520008031910571F7DF91CF9108952F923F920D
:101530004F925F926F927F928F929F92AF92BF92E3
:10154000CF92DF92EF92FF920F931F93CF93DF938F
:10155000CDB7DEB7A0970FB6F894DEBF0FBECDBFF4
:1015600090918A039923C9F02EE720938C0322E9F6
:1015700020938D0323E220938E0390938F03909109
:101580000301992311F0915003C010928A0396E051
:101590009093030104E010E002C000E010E090919D
:1015A0008A03911197C19EE790938C039FE99093D2
:1015B0008D0310928E0398E290938F0394EA909398
:1015C00090039CEA9093910397E09093920310927A
:1015D00093038111E8C080E480938E0370908B03A5
:1015E000809018039090190308E010E0612CD62C2D
:1015F000D70CED2DF0E0E815F9050CF0C7C0DF01C0
:10160000AA0FBB1FA659BC4FAD90BC90A114B1044A
:1016100009F4B8C0D29430EFD322C801885E9C4F41
:101620007C01DC01AC58BF4FDC92E65AFC4FC08015
:10163000CC2021F093E09C1590F104C0D5016D9170
:101640007C9130C06C2D70E080E090E00E949E158F
:101650009B01AC0160E070E080E291E40E94C21660
:10166000F50120813181428153810E9455161B0171
:101670002C0120E030E0A9010E94501620E030E06B
:1016800040E05FE387FD05C0C201B1010E948514FF
:1016900004C0C201B1010E9484140E946815F3E0E5
:1016A000FC15B0F0F701EC58FF4F8D2D8160808361
:1016B0007F79D12C20E2C29ED02CCC2411246C291D
:1016C0007D2931966083319670830D5F1F4F5AC01C
:1016D00084E0C81211C0F701EC58FF4F8D2D8460D3
:1016E00080833196D5018C918083319611968C91AF
:1016F00080833196108219C0B6E0BC15C8F0F7019E
:10170000EC58FF4F8D2D85608083F5018281F701B4
:10171000EB58FF4F8083D50111968C91119731962C
:10172000808331968C918F7180830C5F1F4F2AC00C
:10173000B9E0CB1227C0F701EC58FF4F8D2D89601F
:101740008083F5018381F701EB58FF4F8083D5013A
:1017500012968C9112973196808311968C911197E5
:10176000319680838C91F801E057FC4F80838C91F7
:10177000853421F08E3421F4108202C0B0E2B083AF
:101780000B5F1F4F6394E6E06E1231CF86E0870D4A
:10179000282F30E0281539051CF480938B037BC07B
:1017A00010928B0378C0E0913A02F0E0EE0FFF1F39
:1017B000E65EFC4F608171817E01F1E1EF0EF11C6C
:1017C000C7010E944814E0913A02F0E0EE0FFF1FBB
:1017D000E65CFC4F608171818E010F5F1F4FC80175
:1017E0000E94481480913A0280939403F70101907B
:1017F0000020E9F73197EE19FF09EE0FEE0FEE0F1B
:10180000D8010D900020E9F71197A01BB10BA37030
:10181000EA2BE0939503D7012AE030E0F70101902D
:101820000020E9F73197AF014E195F09F901EC5833
:10183000FF4FBD016E197F096417750738F49D913C
:10184000E85EFC4F90832F5F3F4FE8CFE85EFC4F90
:10185000A801201B310BB901640F751FD8010D9031
:101860000020E9F71197A01BB10B7A01E01AF10AE9
:10187000EA16FB0628F4DA019D91AD019193EBCFB6
:101880008B018F5F90E060911803709119030E94A3
:10189000571880933A0280918E039EEF900F892B08
:1018A00080938E0322E0E0E0822F90E08017910782
:1018B0005CF4DC01A457BC4F8C91E827F0E0E654BF
:1018C000FD4FE4912F5FF0CFD801A457BC4FEC93AC
:1018D0000F5F1F4FC801885E9C4FFC01EC58FF4F03
:1018E0002EEF20831093410400934004D801A357A6
:1018F000BC4FEAE7F4E020E22E0F31913D932E1326
:10190000FCCFFC01EB56FF4F8FEF80830E5D1F4F26
:101910000093420481E0A0960FB6F894DEBF0FBE9C
:10192000CDBFDF91CF911F910F91FF90EF90DF908E
:10193000CF90BF90AF909F908F907F906F905F906F
:101940004F903F902F900895CF93DF93C1E0C093C5
:10195000170297E7909379041092180210923902B7
:10196000682F8CE093E00E9419040E949608C093AF
:101970001702109218021092390282E090E00E9441
:10198000F3088CE093E00E94CD03D82F80E0C82FAD
:101990008CE093E00E94CD03C82BD92B0E949608BF
:1019A000CE01DF91CF910895CF93C1E0C09317028C
:1019B00097E7909379041092180210923902682FD9
:1019C0008CE093E00E9419040E949608C0931702CD
:1019D000109218021092390281E090E00E94F30800
:1019E0008CE093E00E94CD03C82F0E9496088C2FB4
:1019F000CF910895CF93C82F81E08093170287E796
:101A000080937904109218021092390264EF8CE0EE
:101A100093E00E9419046C2F8CE093E00E9419045B
:101A2000CF910C9496088EE20E94FA0C65E070E06B
:101A300080E090E00E94650586EF0C94A40CCF93A3
:101A4000DF93CDB7DEB72B970FB6F894DEBF0FBE8E
:101A5000CDBF789484B5826084BD84B5816084BD37
:101A600085B5826085BD85B5816085BD80916E003C
:101A7000816080936E00109281008091810082606D
:101A800080938100809181008160809381008091AA
:101A900080008160809380008091B1008460809399
:101AA000B1008091B00081608093B00080917A0095
:101AB000846080937A0080917A00826080937A00BB
:101AC00080917A008E7F80937A0080917A0080687E
:101AD00080937A001092C100E0917F02F091800221
:101AE00082E08083E0917B02F0917C021082E091A1
:101AF0007D02F0917E0287E6808310928702E0915A
:101B00008302F091840286E08083E0918102F0916B
:101B10008202808180618083E0918102F091820263
:101B2000808188608083E0918102F09182028081CF
:101B300080688083E0918102F091820280818F7DB4
:101B400080831092000161E08DE00E94290561E030
:101B50008DE00E94DD0461E083E00E94290510927F
:101B60005F0410925E0410925D0410925C04109267
:101B70005B0410925A041092590410925804109267
:101B80005704109256048AEE90E020E030E0FC0109
:101B90004591559165917491443E55426105710599
:101BA00009F034C04EE0429FC001439F900D1124C4
:101BB000FC01E251FF4F259134913093570420935B
:101BC0005604FC01E051FF4F2591349130935904A4
:101BD00020935804FC01EE50FF4F2591349130932F
:101BE0005B0420935A04FC01EC50FF4F2591349183
:101BF00030935D0420935C04FC01EA50FF4F859113
:101C0000949190935F0480935E0407C02F5F3F4FD1
:101C10000E962F30310509F0BACF80915A04909179
:101C20005B04892B09F446C090914F049631E0F58E
:101C300020916800983050F031E09E3008F430E098
:101C400081E001C0880F3A95EAF701C084E0822B59
:101C500080936800983038F09E3040F0963148F418
:101C6000ECE6F0E008C0EDE6F0E005C0EBE6F0E001
:101C700002C0E0E0F0E04081983030F481E001C043
:101C8000880F9A95EAF70EC0292F30E09E3018F49D
:101C90002850310902C02E50310981E001C0880F5F
:101CA0002A95EAF7842B808380915C0490915D04EF
:101CB0000E9423070E943C0968ED71E087EE91E0E5
:101CC0000E942D0A84ED91E090931B0380931A03E8
:101CD0008CEB91E090933B0380933A03809118033F
:101CE000909119039C012F5F3F4FF901EE0FFF1FE9
:101CF000E65EFC4F4EEC51E051834083FC01EE0F59
:101D0000FF1FE45CFC4F4CEC51E051834083FC012D
:101D1000EE0FFF1FE459FC4F11821082F901E65AC1
:101D2000FC4F10822E5F3F4FF901EE0FFF1FE85E60
:101D3000FC4F41EC51E051834083FC01EE0FFF1F4B
:101D4000E25CFC4F4EEB51E051834083FC01EE0F0F
:101D5000FF1FE259FC4F11821082FC01E45AFC4F34
:101D60001082309319032093180382E491E090933A
:101D70006D0380936C0310925B038AE591E090936E
:101D80006F0380936E0310925C0383E08093620480
:101D90001092CF011092CE011092180210923902C7
:101DA0001092160281E0809315021092F00161E01A
:101DB00082E10E94DD0461E083E10E94DD04809104
:101DC000B9008E7F8093B9008091B9008D7F809398
:101DD000B90080E28093B80085E48093BC0080ED78
:101DE0000E94D40C853509F04DC08AEA0E94A40CEB
:101DF00090936404809363048CEA0E94A40C9093F3
:101E00006604809365048EEA0E94A40C9093680493
:101E10008093670480EB0E94A40C909374048093D9
:101E2000730482EB0E94A40C909376048093750453
:101E300084EB0E94A40C909378048093770486EB43
:101E40000E94A40C90936A048093690488EB0E941A
:101E5000A40C90936C0480936B048AEB0E94A40CF6
:101E600090936E0480936D048CEB0E94A40C90936D
:101E7000700480936F048EEB0E94A40C9093720404
:101E80008093710410924501109244011092470111
:101E900010924601109249011092480110924B0194
:101EA00010924A0110924D0110924C0110924F0174
:101EB00010924E0181E00E94960A0E946C0864E133
:101EC00070E080E090E00E94650580913A02811107
:101ED000F1CF60E08DE00E94DD0433E6232E312C4B
:101EE00001E010E00E94130D6C01E12CF12C8091B7
:101EF00062048295880F880F807C8C5C0E94FA0CAB
:101F000080916204811105C065E070E080E090E09E
:101F100012C0813029F468E070E080E090E00BC0EE
:101F2000823029F46EE070E080E090E004C06AE165
:101F300070E080E090E00E94650586EF0E94A40CAE
:101F40004C01A12CB12CBA2CA92C982C882488EFF8
:101F50000E94D40C882AB0916204BB8780917704D8
:101F600090917804A7019601281B390B410951096A
:101F7000A0917504B09176040E94AC186B017C01AD
:101F80009FE0F594E794D794C7949A95D1F7609120
:101F90006F0470917004CB01770FAA0BBB0BBC01CF
:101FA000CD012BE0660F771F881F991F2A95D1F767
:101FB00020917104309172042901330F660877086B
:101FC000A7019601240D351D461D571D0E948D1831
:101FD000C20ED31EE41EF51EE0EACE1AEFE0DE0AC2
:101FE000E108F108A7019601C701B6010E94471850
:101FF0009B01AC016CE055954795379527956A95FF
:10200000D1F729833A834B835C83E0916304F09199
:102010006404FA87E987A0916704B0916804A70176
:1020200096010E94B7182B013C017DE075946794DE
:10203000579447947A95D1F7A0916904B0916A04B6
:1020400029813A814B815C810E94B718BB2797FD9B
:10205000B095AB2F840D951DA61DB71D0296A11D31
:10206000B11DF2E0B595A79597958795FA95D1F7AB
:102070009C01AD0130584F4F5F4FA0917304B09158
:1020800074040E94AC182B013C01AFE07694679475
:1020900057944794AA95D1F788E090E0FB858F1B71
:1020A0009109A501940104C0569547953795279548
:1020B0008A95D2F72D833E834F835887E985FA8529
:1020C0004F01FF0FAA08BB08B2E0880C991CAA1C9C
:1020D000BB1CBA95D1F7A0916B04B0916C04298117
:1020E0003A814B815C810E94B7189B01AC018BE067
:1020F00055954795379527958A95D1F729833A8342
:102100004B835C83A0916504B0916604A70196019E
:102110000E94B718DC01CB012BE0B595A7959795E8
:1021200087952A95D1F729813A814B815C81820F6D
:10213000931FA41FB51F880D991DAA1DBB1D0B84DD
:1021400004C0880F991FAA1FBB1F0A94D2F7BC01B5
:10215000CD016E5F7F4F8F4F9F4F24E030E040E016
:1021600050E00E948D188D819E81AF81B885821BC1
:10217000930BA40BB50B9C01AD0160E573EC80E003
:1021800090E00B8404C096958795779567950A949F
:10219000D2F70E94471897FD0BC0660F771F881F64
:1021A000991FA30192010E946B1869017A010AC06C
:1021B000A30192010E946B1869017A01CC0CDD1C0D
:1021C000EE1CFF1C9927F7FC9A958F2D7E2D6D2D07
:1021D0009B01AC010E9447189B01AC01AEEDBBE036
:1021E0000E94AC184C01BB2497FCB094AB2CA3E428
:1021F000B3EEA70196010E94BA18BB2797FDB095D0
:10220000AB2F880D991DAA1DBB1D8153914FAF4F58
:10221000BF4F44E0B595A795979587954A95D1F717
:10222000BC01CD016C0D7D1D8E1D9F1D0E94A01552
:1022300020E836EE45EC57E40E94F61421E03EED2E
:1022400042E45EE30E94C2169B01AC0160E070E0D4
:1022500080E89FE30E94841420E03AE24DE257E4D4
:102260000E9455160E9468156B017C0170935D01F8
:1022700060935C010E94130DAC0160E070E08091FE
:102280007704909178049A01AB01281B390B41091E
:102290005109A0917504B09176040E94AC184B01CD
:1022A0005C015FE0B594A794979487945A95D1F711
:1022B00060916F0470917004CB01770FAA0BBB0B78
:1022C000BC01CD01EBE0660F771F881F991FEA95CF
:1022D000D1F720917104309172042901330F6608FF
:1022E0007708A5019401240D351D461D571D0E9438
:1022F0008D18D501C401820F931FA41FB51F089626
:10230000A11DB11DBC01CD01F4E095958795779590
:102310006795FA95D1F70E94A01520E030E040E2E1
:1023200051E40E94F6140E94681570935B0160935B
:102330005A0120915801309159012617370724F48A
:1023400070935901609358012091560130915701C3
:102350002431310521F4D0925501C09254014091AD
:10236000500150915101FA01EE0FFF1FEC5BFE4F3F
:10237000809152019091530160817181861B970B6E
:10238000D182C0828C0D9D1D909353018093520188
:102390004F5F5F4F463051052CF4509351014093ED
:1023A000500104C0109251011092500166E070E09B
:1023B0000E9457188091540190915501681B790B28
:1023C00070934301609342012531310554F42F5F2E
:1023D0003F4F3093570120935601109243011092C2
:1023E000420180914201909143012091400130913E
:1023F0004101281739075CF42091560130915701AB
:102400002531310524F090934101809340010E94D1
:102410009F050E946C080E949F054B015C0160E0D3
:1024200083E00E94290562E084E00E9429050E9461
:102430003C0983E494E00E946E0483E494E00E94EB
:102440007D04892B61F40E949F05DC01CB01881972
:102450009909AA09BB090697A105B10570F383E4A0
:1024600094E00E947D04181619060CF057C083E40E
:1024700094E00E94940420910101309102012817F8
:10248000390709F44BC09093020180930101209118
:102490003E0130913F01803B910569F1803E9105FD
:1024A00021F080379105D1F511C025303105B1F10A
:1024B0002F5F3F4F30933F0120933E012430310581
:1024C00069F510923F0110923E0128C02530310578
:1024D00029F12336310529F410933F0100933E0181
:1024E0001DC02150310930933F0120933E01263019
:1024F00031053CF713C02330310581F4D0925501EA
:10250000C092540110924101109240011092590161
:102510001092580130923F0120923E0180913E017D
:1025200090913F018530910509F4BFC010923D01A3
:1025300010923C018230910509F463C00CF047C051
:10254000009709F459C0019709F0B5C010924B02E9
:1025500010923B0265E772E08BE492E00E943D142A
:1025600010925B026091420170914301072E000CB2
:10257000880B990B0E94A0150E9459096BE572E027
:102580008BE492E00E94ED1863E772E08BE492E046
:102590000E943D146BE672E08BE392E00E943D14D2
:1025A00010925B0260915A0170915B01072E000C42
:1025B000880B990B0E94A0150E9459096BE572E0E7
:1025C0008BE392E00E94ED1868E672E067C083300A
:1025D000910509F457C08336910509F06CC010923B
:1025E0004B0210923B0262E272E08BE492E00E94A6
:1025F0003D1466E172E052C06DE772E08CE892E053
:1026000058C010924B0210923B026EE572E08BE4D0
:1026100092E00E943D1410925B0260914001709123
:102620004101072E000C880B990B0E94A0150E94F7
:1026300059096BE572E08BE492E00E94ED186CE5BD
:1026400072E08BE492E00E943D1461E572E08BE35E
:1026500092E00E943D1410925B02609158017091CB
:102660005901072E000C880B990B0E94A0150E949F
:1026700059096BE572E08BE392E00E94ED186EE47D
:1026800072E00CC010924B0210923B026EE372E0BB
:102690008BE492E00E943D146FE272E08BE392E0E3
:1026A0000E943D140E945B0A06C067EF71E086E05D
:1026B00092E00E942D0A80913A0190913B0101968F
:1026C00090933B0180933A01059744F081E00E948A
:1026D000960A10923B0110923A0103C080E00E94DA
:1026E000960A0E949F0561E084E00E9429050E94ED
:1026F0005C03F8CB8CE291E0909344048093430414
:1027000020914F04263140F5283028F02E3030F04B
:10271000ECE6F0E005C0EDE6F0E002C0EBE6F0E04C
:102720003081283038F481E090E001C0880F2A958C
:10273000EAF70FC0422F50E02E3018F448505109EC
:1027400002C04E50510981E090E001C0880F4A95C7
:10275000EAF78095832380830895CF93DF93EFE694
:10276000F2E01382128288EE93E0A0E0B0E084836E
:102770009583A683B78328E031E03183208325EC5D
:1027800030E03587248724EC30E03787268720EC3B
:1027900030E0318B208B21EC30E0338B228B22EC2C
:1027A00030E0358B248B26EC30E0378B268B118E76
:1027B000128E138E148EECE0F3E013821282848367
:1027C0009583A683B7832AE131E031832083C3E474
:1027D000D4E01B821A828C839D83AE83BF838CE2FC
:1027E00091E0998388831C8A1B8A1E8A1D8A188E11
:1027F0001F8A1A8E198E1C8E1B8EE0E6F4E08081F3
:102800008E7F808361E084E00E94290561E084E09E
:102810000E94DD04E6EEF3E0E491E88BE2EDF3E004
:10282000E491F0E0EE0FFF1FE654FC4F8591949188
:102830009A8B898B62E083E00E94290583E08C8774
:10284000E5EEF3E0E491ED87E1EDF3E0E491F0E013
:10285000EE0FFF1FEC53FC4F859194919F878E875D
:1028600010928A03109219031092180310924204D6
:1028700010928B03DF91CF910895FB01DC010D9045
:102880000020E9F7119705900D920020E1F70895D7
:10289000FB01DC0105900D920020E1F70895BB27B4
:1028A0004A3031F4992322F4BDE2909581959F4FEF
:1028B0000C945B14BB27FB015527AA27880F991F8F
:1028C000AA1FA41710F0A41B83955051B9F7A05D5F
:1028D000AA3308F0A95DA193009779F7B111B193DC
:1028E0001192CB010C947414DC01FC01672F7191DF
:1028F0007723E1F7329704C07C916D9370836291E6
:10290000AE17BF07C8F308955058BB27AA270E94E7
:102910009C140C9416160E94081638F00E940F168C
:1029200020F039F49F3F19F426F40C9405160EF4A8
:10293000E095E7FB0C94FF15E92F0E94271658F34A
:10294000BA17620773078407950720F079F4A6F594
:102950000C9449160EF4E0950B2EBA2FA02D0B0106
:10296000B90190010C01CA01A0011124FF27591BD4
:1029700099F0593F50F4503E68F11A16F040A22FDA
:10298000232F342F4427585FF3CF4695379527954B
:10299000A795F0405395C9F77EF41F16BA0B620B4A
:1029A000730B840BBAF09150A1F0FF0FBB1F661F91
:1029B000771F881FC2F70EC0BA0F621F731F841FD4
:1029C00048F4879577956795B795F7959E3F08F0FA
:1029D000B0CF9395880F08F09927EE0F97958795BC
:1029E00008950E94DB1508F481E008950E940A15FD
:1029F0000C9416160E940F1658F00E94081640F00C
:102A000029F45F3F29F00C94FF1551110C944A16DC
:102A10000C9405160E94271668F39923B1F35523E9
:102A200091F3951B550BBB27AA27621773078407E1
:102A300038F09F5F5F4F220F331F441FAA1FA9F377
:102A400035D00E2E3AF0E0E832D091505040E69565
:102A5000001CCAF72BD0FE2F29D0660F771F881FC6
:102A6000BB1F261737074807AB07B0E809F0BB0BB9
:102A7000802DBF01FF2793585F4F3AF09E3F5105CD
:102A800078F00C94FF150C944A165F3FE4F3983EDF
:102A9000D4F3869577956795B795F7959F5FC9F7B6
:102AA000880F911D9695879597F90895E1E0660F37
:102AB000771F881FBB1F621773078407BA0720F0B0
:102AC000621B730B840BBA0BEE1F88F7E095089519
:102AD0000E946F156894B1110C944A1608950E94D3
:102AE0002F1688F09F5798F0B92F9927B751B0F05B
:102AF000E1F0660F771F881F991F1AF0BA95C9F782
:102B000014C0B13091F00E944916B1E008950C94C0
:102B10004916672F782F8827B85F39F0B93FCCF373
:102B2000869577956795B395D9F73EF490958095FE
:102B3000709561957F4F8F4F9F4F0895E89409C01E
:102B400097FB3EF490958095709561957F4F8F4FE0
:102B50009F4F9923A9F0F92F96E9BB279395F695F6
:102B6000879577956795B795F111F8CFFAF4BB0F74
:102B700011F460FF1BC06F5F7F4F8F4F9F4F16C0D8
:102B8000882311F096E911C0772321F09EE8872F62
:102B9000762F05C0662371F096E8862F70E060E01E
:102BA0002AF09A95660F771F881FDAF7880F969597
:102BB000879597F90895990F0008550FAA0BE0E83B
:102BC000FEEF16161706E807F907C0F012161306EF
:102BD000E407F50798F0621B730B840B950B39F42F
:102BE0000A2661F0232B242B252B21F408950A2695
:102BF00009F4A140A6958FEF811D811D089597F9D5
:102C00009F6780E870E060E008959FEF80EC089592
:102C100000240A94161617061806090608950024BB
:102C20000A9412161306140605060895092E039435
:102C3000000C11F4882352F0BB0F40F4BF2B11F4A9
:102C400060FF04C06F5F7F4F8F4F9F4F089557FD08
:102C50009058440F551F59F05F3F71F04795880F0A
:102C600097FB991F61F09F3F79F0879508951216A1
:102C700013061406551FF2CF4695F1DF08C016164D
:102C800017061806991FF1CF8695710561050894FE
:102C90000895E894BB2766277727CB0197F9089515
:102CA0000E94DB1508F48FEF08950E9468160C94BB
:102CB00016160E94081638F00E940F1620F0952371
:102CC00011F00C94FF150C94051611240C944A165F
:102CD0000E94271670F3959FC1F3950F50E0551F82
:102CE000629FF001729FBB27F00DB11D639FAA2761
:102CF000F00DB11DAA1F649F6627B00DA11D661FB0
:102D0000829F2227B00DA11D621F739FB00DA11DD0
:102D1000621F839FA00D611D221F749F3327A00D8A
:102D2000611D231F849F600D211D822F762F6A2F26
:102D300011249F5750409AF0F1F088234AF0EE0F8B
:102D4000FF1FBB1F661F771F881F91505040A9F7B8
:102D50009E3F510580F00C94FF150C944A165F3F7E
:102D6000E4F3983ED4F3869577956795B795F795F4
:102D7000E7959F5FC1F7FE2B880F911D969587956C
:102D800097F90895FA01EE0FFF1F309621053105DE
:102D9000A1F16115710561F48038BFE39B0749F12A
:102DA00068949038810561F08038BFEF9B0741F04F
:102DB00099234AF5FF3FE1053105210519F1E89412
:102DC0000894E795D901AA2329F4AB2FBE2FF85F09
:102DD000D0F310C0FF5F70F4A695E0F7F73950F01C
:102DE00019F0FF3A38F49F779F930DD00F9007FCAE
:102DF0009058089546F00C94051660E070E080E865
:102E00009FE308954FE79F775F934F933F932F93EF
:102E10000E94BD172F913F914F915F910E945516CF
:102E20000C941A1729F416F00C94FF150C944916FB
:102E30000C9405160E942F16A8F39638A0F707F8F1
:102E40000F92E8942BE33AEA48EB5FE70E946B1697
:102E50000F920F920F924DB75EB70F920E94051816
:102E6000E8E6F0E00E944C174F915F91EF91FF91DF
:102E7000E595EE1FFF1F49F0FE57E0684427EE0F6F
:102E8000441FFA95E1F74195550B0E947F170F906B
:102E900007FE0C9473170895DF93CF931F930F933E
:102EA000FF92EF92DF927B018C01689406C0DA2ECC
:102EB000EF010E946816FE01E894A59125913591D5
:102EC00045915591A6F3EF010E949C14FE019701D4
:102ED000A801DA9469F7DF90EF90FF900F911F91AE
:102EE000CF91DF9108959B01AC0160E070E080E834
:102EF0009FE30C94F6140C94FF150C9439180E945F
:102F00002F16D8F39923C9F3940F511DA3F39150B1
:102F1000504094F059F0882332F0660F771F881FD5
:102F200091505040C1F79E3F51052CF7880F911DDD
:102F30009695879597F908955F3FACF0983E9CF081
:102F4000BB27869577956795B79508F4B1609395FB
:102F5000C1F7BB0F58F711F460FFE8CF6F5F7F4FE9
:102F60008F4F9F4FE3CF0C944A1616F00C943918EC
:102F70000C94051668940C94FF150E942F16A8F364
:102F80009923C1F3AEF3DF93CF931F930F93FF9277
:102F9000C92FDD2788232AF02197660F771F881F06
:102FA000DAF720E030E040E85FEB9FE3883920F07B
:102FB000803E38F021968F770E948514E0E9F0E09A
:102FC00004C00E948514EDEBF0E00E944C178B01C9
:102FD000BE01EC01FB2E6F5771097595771F880BA9
:102FE000990B0E94A01528E132E741E35FE30E94BC
:102FF0006816AF2D9801AE01FF900F911F91CF91F0
:10300000DF910E949C140C941616FA01DC01AA0FA1
:10301000BB1F9B01AC01BF5728F42227332744274D
:10302000507820C0B75190F4AB2F002446953795C7
:103030002795011CA395D2F3002071F0220F331FB6
:10304000441FB395DAF30ED00C94841461307105EB
:10305000A0E88A07B94630F49B01AC0166277727C0
:1030600088279078309621F02083318342835383E0
:1030700008959F3F31F0915020F48795779567959B
:10308000B795880F911D9695879597F90895DB015F
:103090008F939F930E94AC18BF91AF91A29F800D18
:1030A000911DA39F900DB29F900D1124089597FB41
:1030B000072E16F4009407D077FD09D00E94BF18A0
:1030C00007FC05D03EF4909581959F4F089570952B
:1030D00061957F4F0895A1E21A2EAA1BBB1BFD012B
:1030E0000DC0AA1FBB1FEE1FFF1FA217B307E407E7
:1030F000F50720F0A21BB30BE40BF50B661F771F3F
:10310000881F991F1A9469F760957095809590951E
:103110009B01AC01BD01CF010895052E97FB1EF464
:1031200000940E94A41857FD07D00E946B1807FC5A
:1031300003D04EF40C94A4185095409530952195E9
:103140003F4F4F4F5F4F08959095809570956195D3
:103150007F4F8F4F9F4F08950E94D918A59F900DC4
:10316000B49F900DA49F800D911D11240895B7FF69
:103170000C94AC180E94AC18821B930B0895AA1BE8
:10318000BB1B51E107C0AA1FBB1FA617B70710F052
:10319000A61BB70B881F991F5A95A9F78095909584
:1031A000BC01CD010895EE0FFF1F0590F491E02DB5
:1031B0000994A29FB001B39FC001A39F700D811D10
:1031C0001124911DB29F700D811D1124911D089530
:1031D00081E090E0F8940C94F818FB01DC010D906C
:1031E0000020E9F7119701900D920020E1F7089572
:1031F00011E0CCEFD1E004C0FE010E94D31821966B
:0A320000CD3FD107C9F7F894FFCFC6
:10320A0001F00006000000008F0227025202D602D7
:10321A00500361027502000000001904E903B904B1
:10322A00BD03E103CD03BE03000000002A07270205
:0A323A00B9046E047D0494045404EA
:00000001FF
