:100000000C94EE010C9416020C9416020C94D60D6E
:100010000C94B20D0C948E0D0C9416020C941602D6
:100020000C9416020C9416020C9416020C941602F0
:100030000C9416020C9416020C9416020C941602E0
:100040000C94350B0C9416020C9437030C9411038A
:100050000C9416020C9416020C9416020C941602C0
:100060000C94830B0C94160207634236B79BD8A7F7
:100070001A39685618AEBAAB558C1D3CB7CC5763CD
:10008000BD6DEDFD753EF6177231BF000000803F7B
:1000900008000000BE922449123EABAAAA2ABECD97
:1000A000CCCC4C3E00000080BEABAAAAAA3E000009
:1000B0000000BF000000803F000000000008417801
:1000C000D3BB4387D1133D190E3CC3BD4282AD2B38
:1000D0003E68EC8276BED98FE1A93E4C80EFFFBE30
:1000E00001C4FF7F3F000000000000C201000100CA
:1000F000050005000300030000E1000001000F00FF
:100100000F000D000D0000960000020019001A00FB
:1001100017001700127A00000700200021001D00C0
:100120001D00807000000B00230023002000200031
:10013000004B000014003700370034003400403812
:1001400000001E004B004B004800480048260000FD
:100150003100710071006F006F00E4250000310074
:10016000710071006F006F00802500003200720086
:10017000720070007000C01200006E00E900E9001B
:10018000E600E60060090000E500D801D801D501CD
:10019000D501B0040000D301B403B403B103B1032B
:1001A00058020000B40367076707620762072C0163
:1001B00000006707DD0EDD0EDA0EDA0E200000000B
:1001C0000000240027002A00B0430054656D7065CC
:1001D0007261747572006D00486F65686500524306
:1001E0005400204A65746920416C744D65746572D1
:1001F0000020524354204A65746920546F6F6C7319
:1002000000204A65746920416C744D657465720004
:1002100020524354204A65746920546F6F6C7300F8
:100220005665726C617373656E203C00486F65683B
:100230006520726573657421004E6965646572643A
:100240007275636B656E2100486F65686520526545
:1002500073657400B0430054656D702E3A20006DD4
:1002600000486F6568653A2000204A65746920413E
:100270006C744D657465720020524354204A657455
:100280006920546F6F6C73000000000800020100C9
:1002900000030407000000000000000000070E0932
:1002A0001C1B1215383F363124232A2D70777E7996
:1002B0006C6B6265484F464154535A5DE0E7EEE986
:1002C000FCFBF2F5D8DFD6D1C4C3CACD90979E9976
:1002D0008C8B8285A8AFA6A1B4B3BABDC7C0C9CE66
:1002E000DBDCD5D2FFF8F1F6E3E4EDEAB7B0B9BE56
:1002F000ABACA5A28F88818693949D9A2720292E46
:100300003B3C35321F18111603040D0A5750595E35
:100310004B4C45426F68616673747D7A898E878025
:1003200095929B9CB1B6BFB8ADAAA3A4F9FEF7F015
:10033000E5E2EBECC1C6CFC8DDDAD3D4696E676005
:1003400075727B7C51565F584D4A4344191E1710F5
:1003500005020B0C21262F283D3A33344E494047E5
:1003600052555C5B7671787F6A6D64633E393037D5
:1003700022252C2B0601080F1A1D1413AEA9A0A7C5
:10038000B2B5BCBB9691989F8A8D8483DED9D0D7B5
:10039000C2C5CCCBE6E1E8EFFAFDF4F300000000C3
:1003A000250028002B000000000023002600290063
:1003B000040404040404040402020202020203030B
:1003C0000303030301020408102040800102040813
:1003D00010200102040810201715AE1511241FBEAD
:1003E000CFEFD8E0DEBFCDBF11E0A0E0B1E0E2E8A2
:1003F000F8E302C005900D92A433B107D9F724E0C9
:10040000A4E3B1E001C01D92A83AB207E1F711E000
:10041000CDEED1E004C02197FE010E94B117CC3E81
:10042000D107C9F70E94240E0C94341C0C940000D0
:10043000CF92DF92EF92FF920F931F93CF93DF93B0
:100440006C017A018B01C0E0D0E0CE15DF0589F0A8
:10045000D8016D918D01D601ED91FC910190F08153
:10046000E02DC6010995892B11F47E0102C0219669
:10047000ECCFC701DF91CF911F910F91FF90EF90CB
:10048000DF90CF900895FC01918D828D981761F0D7
:10049000828DDF01A80FB11D5D968C91928D9F5FBB
:1004A0009F73928F90E008958FEF9FEF0895FC0166
:1004B000918D828D981731F0828DE80FF11D858D19
:1004C00090E008958FEF9FEF0895FC01918D228DAC
:1004D000892F90E0805C9F4F821B91098F73992731
:1004E000089587EF91E00E94650221E0892B09F4CD
:1004F00020E0822F0895FC01848DDF01A80FB11D3B
:10050000A35ABF4F2C91848D90E001968F73992749
:10051000848FA689B7892C93A089B1898C91806436
:100520008C93938D848D981306C00288F389E02DF7
:1005300080818F7D80830895EF92FF920F931F93A8
:10054000CF93DF93EC0181E0888F9B8D8C8D981386
:1005500005C0E889F989808185FD24C0F62E0B8DC0
:1005600010E00F5F1F4F0F731127E02E8C8DE812E4
:100570000CC00FB607FCFACFE889F989808185FFA6
:10058000F5CFCE010E947B02F1CF8B8DFE01E80FEB
:10059000F11DE35AFF4FF0820B8FEA89FB898081BE
:1005A000806207C0EE89FF896083E889F9898081CC
:1005B0008064808381E090E0DF91CF911F910F9163
:1005C000FF90EF900895CF93DF93EC01888D8823FF
:1005D000C9F0EA89FB89808185FD05C0A889B989B0
:1005E0008C9186FD0FC00FB607FCF5CF808185FF8B
:1005F000F2CFA889B9898C9185FFEDCFCE010E94F9
:100600007B02E7CFDF91CF91089580E090E0892BC6
:1006100029F00E94710281110C94000008950E943B
:10062000DD1B1F920F920FB60F9211242F933F9351
:100630004F935F936F937F938F939F93AF93BF93EA
:10064000EF93FF9387EF91E00E947B02FF91EF9180
:10065000BF91AF919F918F917F916F915F914F91DA
:100660003F912F910F900FBE0F901F9018951F92E2
:100670000F920FB60F9211242F938F939F93EF93A6
:10068000FF93E0910702F09108028081E0910D0252
:10069000F0910E0282FD12C09081809110028F5F56
:1006A0008F7320911102821751F0E0911002F0E057
:1006B000E950FE4F958F8093100201C08081FF9119
:1006C000EF919F918F912F910F900FBE0F901F90E0
:1006D00018958091F5019091F6018B5C9340A1F003
:1006E0008091E8038E7F8093E8038FB7F89410928F
:1006F000F4011092F3012BEC33E03093F6012093D8
:10070000F5018FBF81E0089580E008952F923F9218
:100710004F925F926F927F928F929F92AF92BF9211
:10072000CF92DF92EF92FF920F931F93CF93DF93BD
:1007300000D000D0CDB7DEB72B013C0120E030E087
:10074000A9010E94331887FF05C020E030E040E097
:100750005FEB04C020E030E040E05FE3C301B201A2
:100760000E94C7176B017C0120E030E0A901C301A2
:10077000B2010E94331887FF04C0F7FAF094F7F82B
:10078000F094A12CB12C8DEC282E9CEC392E8CEC05
:100790008B839DE39C8320E030E040E251E4B10193
:1007A0008B819C810E94EB194B018C01A701960162
:1007B0000E94331818163CF0AFEFAA1ABA0A1401B7
:1007C0000B831C83E8CF20E030E0A901C301B20114
:1007D0000E94331887FF06C08DE28093E30101E099
:1007E00010E002C000E010E0A114B10439F4F801F7
:1007F000ED51FE4F80E380830F5F1F4F812C912CC2
:10080000F401E00FF11FFA83E9838A149B04B1F12C
:1008100091014B815C81C701B6010E9438180E948A
:10082000AA182B013C0169817A816D517E4F4AE003
:10083000C2010E94FF1BB201550C880B990B0E944C
:10084000E81891014B815C810E94EB199B01AC017E
:10085000C701B6010E94C6176B017C0120E030E0A1
:1008600040E251E4B1018B819C810E9438181B0148
:100870008B839C83BFEF8B1A9B0AC2CFED51FE4F37
:10088000108283EE91E00F900F900F900F90DF9108
:10089000CF911F910F91FF90EF90DF90CF90BF907D
:1008A000AF909F908F907F906F905F904F903F9010
:1008B0002F900895A8E1B4E020E040E250E15A0F03
:1008C00021111FC0FC0134913323D9F03C931196C0
:1008D00001965A13F5CF80E090E020E030E2DC0191
:1008E000A85EBB4F211110C0FB01E80FF91FE49176
:1008F000EE2351F05096EC9301968031910579F7F3
:1009000008954C9321E0E3CF50963C9321E0F4CF3F
:10091000CF93DF93E3EDF1E001900020E9F7319709
:10092000E35DF140C3EDD1E0A8E1B4E080E090E206
:100930008E1718F428812C9301C09C938F5F219609
:1009400011968031A9F7E3ECF1E001900020E9F77E
:100950003197E35CF14080E090E020E2DC01A85EAA
:10096000BB4F8E1738F4EC01CD53DE4F38815096D3
:100970003C9302C050962C9301968031910571F7FB
:10098000DF91CF9108952F923F924F925F926F9295
:100990007F928F929F92AF92BF92CF92DF92EF920F
:1009A000FF920F931F93CF93DF93CDB7DEB7A0973E
:1009B0000FB6F894DEBF0FBECDBF909112039923FE
:1009C000C9F02EE72093140322E92093150323E2B4
:1009D000209316039093170390910301992311F02C
:1009E000915003C01092120396E09093030104E02B
:1009F00010E002C000E010E090911203911197C145
:100A00009EE7909314039FE99093150310921603A9
:100A100098E19093170394EA909318039CEA9093BB
:100A2000190397E090931A0310921B038111E8C0F9
:100A300080E480931603709013038090A00290903E
:100A4000A10208E010E0612CD62CD70CED2DF0E0CF
:100A5000E815F9050CF0C7C0DF01AA0FBB1FAE50A7
:100A6000BD4FAD90BC90A114B10409F4B8C0D294AC
:100A700030EFD322C80180569D4F7C01DC01AC5879
:100A8000BF4FDC92EE51FD4FC080CC2021F093E0AF
:100A90009C1590F104C0D5016D917C9130C06C2DF6
:100AA00070E080E090E00E94E6189B01AC0160E0FD
:100AB00070E080E291E40E94581AF50120813181B2
:100AC000428153810E94EB191B012C0120E030E090
:100AD000A9010E94E61920E030E040E05FE387FDD5
:100AE00005C0C201B1010E94C71704C0C201B10113
:100AF0000E94C6170E94AA18F3E0FC15B0F0F70197
:100B0000EC58FF4F8D2D816080837F79D12C20E2BE
:100B1000C29ED02CCC2411246C297D29319660836F
:100B2000319670830D5F1F4F5AC084E0C81211C008
:100B3000F701EC58FF4F8D2D846080833196D501ED
:100B40008C918083319611968C918083319610829E
:100B500019C0B5E0CB1219C0F701EC58FF4F8D2D2D
:100B600085608083F5018281F701EB58FF4F808318
:100B7000D50111968C9111973196808331968C9185
:100B80008F7180830C5F1F4F2AC0B9E0CB1227C042
:100B9000F701EC58FF4F8D2D89608083F50183812B
:100BA000F701EB58FF4F8083D50112968C91129775
:100BB0003196808311968C911197319680838C9118
:100BC000F801E85EFC4F80838C91853421F08E34EF
:100BD00021F4108202C0B0E2B0830B5F1F4F639418
:100BE000E6E06E1231CF86E0870D282F30E0281521
:100BF00039051CF4809313037BC01092130378C053
:100C0000E091C201F0E0EE0FFF1FEE55FD4F608155
:100C100071817E01F1E1EF0EF11CC7010E94F81B0A
:100C2000E091C201F0E0EE0FFF1FEE53FD4F608137
:100C300071818E010F5F1F4FC8010E94F81B8091C8
:100C4000C20180931C03F70101900020E9F731975E
:100C5000EE19FF09EE0FEE0FEE0FD8010D900020F8
:100C6000E9F71197A01BB10BA370EA2BE0931D03CA
:100C7000D7012AE030E0F70101900020E9F7319731
:100C8000AF014E195F09F901EC58FF4FBD016E1914
:100C90007F096417750738F49D91E056FD4F9083E6
:100CA0002F5F3F4FE8CFE056FD4FA801201B310BCF
:100CB000B901640F751FD8010D900020E9F7119755
:100CC000A01BB10B7A01E01AF10AEA16FB0628F420
:100CD000DA019D91AD019193EBCF8B018F5F90E095
:100CE0006091A0027091A1020E94F1158093C2014F
:100CF000809116039EEF900F892B8093160322E0BC
:100D0000E0E0822F90E0801791075CF4DC01AC5E9C
:100D1000BC4F8C91E827F0E0E456FD4FE4912F5F43
:100D2000F0CFD801AC5EBC4FEC930F5F1F4FC801F2
:100D300080569D4FFC01EC58FF4F2EEF20831093FF
:100D4000C9030093C803D801AB5EBC4FE8E1F4E0EF
:100D500020E22E0F31913D932E13FCCFFC01EB5678
:100D6000FF4F8FEF80830E5D1F4F0093CA0381E01A
:100D7000A0960FB6F894DEBF0FBECDBFDF91CF9126
:100D80001F910F91FF90EF90DF90CF90BF90AF90A9
:100D90009F908F907F906F905F904F903F902F909B
:100DA0000895CF92DF92EF92FF920F931F93CF930C
:100DB000DF939091F6039F3F39F48EBD00000DB490
:100DC00007FEFDCF8EB544C0E82EC7E0D0E0D12CA1
:100DD00001E010E0DD0C60E08091F6030E94980ACB
:100DE000B8010C2E01C0660F0A94EAF76E218091BB
:100DF000F4030E94980A61E08091F6030E94980A29
:100E00002091F50330E0F901E857FD4F8491F90195
:100E1000EC53FC4FC490F901E055FC4FF490FF20D7
:100E200071F081110E946F0AEF2DF0E0EE0FFF1FAD
:100E3000EA55FC4FA591B491EC91EC2129F421974E
:100E400008F0C8CF8D2D04C08D2D8160D82EF7CF2E
:100E5000DF91CF911F910F91FF90EF90DF90CF9096
:100E6000089590919F019111FCCF613208F060E2EA
:100E700091E090939F0190939E012FEF20939D010D
:100E800010929C01260F20939B0190939A019091C0
:100E90009A01880F892B80939A0180919901813062
:100EA00061F41092990180919A018093BB00809126
:100EB000BC0083FDF8CF85EC01C085EE8093BC00BB
:100EC00080919F018130E1F380919C01861710F49D
:100ED00060919C01A9E7B1E022EA31E0F9018E2F8F
:100EE000821B861718F48D918193F9CF1092A1017E
:100EF0006093A001862F0895209178019091770149
:100F0000213208F04AC080919F018111FCCF32E06C
:100F100030939F0131E030939E013FEF30939D016C
:100F200010929C0120939B01A7E5B1E049E751E0B5
:100F3000FA013E2F341B321718F43D913193F9CF4B
:100F400010929A0120919A01990F922B90939A01F5
:100F500090919901913061F41092990190919A01C8
:100F60009093BB009091BC0093FDF8CF95EC01C02D
:100F700095EE9093BC0090919F019230E1F3909197
:100F80009D019F3F79F080919D01803241F08091D9
:100F90009D01803331F084E005C081E003C082E030
:100FA00001C083E010925601109278011092550111
:100FB0000895CF93DF93C82F8091F3038F3F39F5C6
:100FC0008091EA0391E0909355018093770110920C
:100FD0005601109278016C2F84E992E00E94D009AA
:100FE0000E947C0762E08091EA030E94310784E955
:100FF00092E00E948409C82F84E992E00E9484094B
:1010000020E030E03C2FE901C82BD92B29C080918A
:10101000F6038F3F21F481E590E00E94800B60E0B1
:101020008091F3030E94980A8C2F80680E94D10659
:1010300080E00E94D106C82F80E00E94D1062C2FAC
:1010400030E0322F2227E901C82B61E08091F303C1
:101050000E94980A8091F6038F3F11F40E947F0B43
:101060009C2F8D2FDF91CF910895CF92DF92EF9239
:10107000FF92CF93C82F8091F3038F3F09F040C0B8
:101080008091EA0391E0909355018093770110924B
:101090005601109278016C2F84E992E00E94D009E9
:1010A0000E947C0763E08091EA030E94310784E993
:1010B00092E00E9484096C01990FEE08FF08FE2C53
:1010C000ED2CDC2CCC2484E992E00E948409AC0154
:1010D000990F660B770BC42AD52AE62AF72AFE2C2D
:1010E000ED2CDC2CCC2484E992E00E948409AC0134
:1010F000990F660B770BC42AD52AE62AF72A33C044
:101100008091F6038F3F21F481E590E00E94800BEF
:1011100060E08091F3030E94980A8C2F80680E94FF
:10112000D10680E00E94D106C82ED12CE12CF12CF2
:10113000FE2CED2CDC2CCC2480E00E94D106C82AA9
:10114000FE2CED2CDC2CCC2480E00E94D106C82A99
:1011500061E08091F3030E94980A8091F6038F3F2B
:1011600011F40E947F0BC701B601CF91FF90EF9061
:10117000DF90CF9008958F929F92AF92BF92CF92BF
:10118000DF92EF92FF928AEF0E943508EAEEF3E0D9
:10119000458556854A01A12CB12CC72ED82EE92EA3
:1011A000FF24E7FCFA94C818D908EA08FB08DC0118
:1011B000CB0137E0B595A795979587953A95D1F7E7
:1011C000B501A401440F551F661F771F4C015D0137
:1011D000841A950AA60AB70AA5019401A785B089C1
:1011E0000E9410164B015C013BE0B594A7949794C4
:1011F00087943A95D1F7A7019601C701B6010E94DD
:10120000E1159B01AC016CE0559547953795279505
:101210006A95D1F7A189B2890E941016DC01CB0131
:101220007EE0B595A795979587957A95D1F7A50115
:101230009401280F391F4A1F5B1F2583368347837C
:101240005087A5E0B0E00E940516DC01CB01805874
:101250009F4FAF4FBF4F692F7A2F8B2F992787FD55
:101260009A950E94E81820E030E048EC52E40E9491
:101270003818FF90EF90DF90CF90BF90AF909F9085
:101280008F90089585ED8093BC008091BC0084FD13
:10129000FCCF10929F01089540917A04262F30E0F0
:1012A000240F311D21323105DCF420919F012430BF
:1012B000C9F4FC0180E090E0861758F430917A047C
:1012C0002191DC01A85ABB4FA30FB11D2C930196AD
:1012D000F3CF80917A04680F60937A0480E00895D8
:1012E00081E0089582E008950895E091A101809140
:1012F000A001E81730F4F0E0EE55FE4F808190E059
:1013000008958FEF9FEF08959091A1018091A00122
:10131000981750F4E92FF0E0EE55FE4F208130E0B1
:101320009F5F9093A10102C02FEF3FEFC901089585
:101330008091A00190E02091A101821B9109089564
:10134000CF92DF92EF92FF920F931F93CF93DF9391
:101350007C01262F972F8A0180915501882391F0D7
:10136000C62FD72F6E01C40ED51ECC15DD0571F02A
:101370006991D701ED91FC910190F081E02DC701B9
:101380000995F3CF642F822F0E944C09C801DF9189
:10139000CF911F910F91FF90EF90DF90CF90089524
:1013A000CF93DF931F92CDB7DEB7698320915501AC
:1013B0002223D1F020917801203240F021E030E06A
:1013C000FC013383228380E090E015C080915601B8
:1013D000E82FF0E0E95AFE4F998190838F5F809368
:1013E00056018093780105C061E0CE0101960E940C
:1013F0004C0981E090E00F90DF91CF910895DC01DE
:101400005196ED91FC915297908150968C918095D8
:101410008923808308952091F5013091F6012817E2
:10142000390781F49091F3018091F401981751F0FC
:10143000E091F301F0E0E85CFB4F8081082E000CA6
:10144000990B08958FEF9FEF08952091F50130914A
:10145000F6012817390739F48FB7F8941092F40180
:101460001092F3018FBF08952091F5013091F6019C
:101470002817390769F48091F4012091F30190E075
:101480008096821B910960E270E00E94F115089538
:101490008FEF9FEF08952091F5013091F601281705
:1014A0003907B9F49091F3018091F4019817A1F0F4
:1014B000E091F301F0E0E85CFB4F80812091F301C3
:1014C00030E02F5F3F4F2F7133272093F30190E0DF
:1014D00008958FEF9FEF08958EEF9FEF089583306B
:1014E00081F028F4813099F08230A1F0089587309E
:1014F000A9F08830B9F08430D1F4809180008F7DDC
:1015000003C0809180008F7780938000089584B518
:101510008F7702C084B58F7D84BD08958091B0001F
:101520008F7703C08091B0008F7D8093B0000895C5
:101530001F93CF93DF93282F30E0F901E857FD4F39
:101540008491F901EC53FC4FD491F901E055FC4F23
:10155000C491CC23C9F0162F81110E946F0AEC2F81
:10156000F0E0EE0FFF1FE456FC4FA591B4918FB74A
:10157000F894111105C09C91ED2FE095E92302C06C
:10158000EC91ED2BEC938FBFDF91CF911F910895DC
:10159000CF93DF9390E0FC01EC53FC4F2491FC01CE
:1015A000E055FC4F8491882361F190E0880F991FEA
:1015B000FC01E254FE4FC591D491FC01E456FC4F6E
:1015C000A591B491611109C09FB7F89488812095C5
:1015D00082238883EC912E230BC0623061F49FB785
:1015E000F8943881822F809583238883EC912E2B69
:1015F0002C939FBF06C08FB7F894E8812E2B2883C9
:101600008FBFDF91CF9108953FB7F8948091A404E4
:101610009091A504A091A604B091A70426B5A89B1B
:1016200005C02F3F19F00196A11DB11D3FBFBA2F74
:10163000A92F982F8827820F911DA11DB11DBC01D4
:10164000CD0143E0660F771F881F991F4A95D1F798
:1016500008952FB7F8946091A0047091A10480912F
:10166000A2049091A3042FBF08951F920F920FB66A
:101670000F9211242F933F938F939F93AF93BF9318
:101680008091A0049091A104A091A204B091A30420
:1016900030919F0426E0230F2D3720F40296A11DE0
:1016A000B11D05C029E8230F0396A11DB11D20938C
:1016B0009F048093A0049093A104A093A204B093EC
:1016C000A3048091A4049091A504A091A604B091D4
:1016D000A7040196A11DB11D8093A4049093A504B5
:1016E000A093A604B093A704BF91AF919F918F914F
:1016F0003F912F910F900FBE0F901F901895089556
:101700008CBD9DBD08951F920F920FB60F921124AC
:101710002F933F934F935F936F937F938F939F93F9
:10172000AF93BF93EF93FF938091B900887F80368A
:1017300009F49CC068F5883209F45BC090F48031EC
:1017400009F454C038F4882309F4F6C0883009F449
:101750004DC0F6C0883109F44CC0803209F45DC038
:10176000EFC0803409F468C048F4803309F455C0F0
:10177000883309F0E5C080939D01D8C0803509F415
:101780004FC0883509F45DC0883409F0D9C0D6C08F
:10179000883909F4C7C0A8F4883709F467C038F459
:1017A000883609F463C0803709F460C0C9C088383E
:1017B00009F4B8C0803909F45FC0803809F0C0C0AE
:1017C0005BC0803B09F486C038F4803A09F466C0F7
:1017D000883A09F47FC0B4C0803C09F4A7C0883CB3
:1017E00009F4A4C0883B09F48AC0AAC080919A0178
:1017F00010C090919C0180919B01981770F5E09129
:101800009C0181E08E0F80939C01F0E0E758FE4F31
:1018100080818093BB0085EC86C080939D018EC043
:10182000E0919C0181E08E0F80939C018091BB0030
:10183000F0E0E758FE4F808390919C0180919B01DE
:101840006EC0E0919C0181E08E0F80939C0180919D
:10185000BB00F0E0E758FE4F808380919E0181112C
:101860006DC081E08093990184EA61C083E0809338
:101870009F0110929E04CFCF80919E04803208F089
:1018800051C0E0919E0481E08E0F80939E04809170
:10189000BB00F0E0E258FB4F8083BDCF85EC809326
:1018A000BC0010929F0180919E04803230F4E09140
:1018B0009E04F0E0E258FB4F108260919E0470E0BD
:1018C000E0917C04F0917D048EE794E009951092FC
:1018D0009E0436C084E080939F0110927B04109296
:1018E0007A04E0917804F0917904099580917A0462
:1018F000811105C081E080937A0410925804E09130
:101900007B0481E08E0F80937B04F0E0E85AFB4F6C
:1019100080818093BB0090917B0480917A0498171A
:1019200008F479CF85E88093BC000AC085EC8093E9
:10193000BC0010929F0104C010929D010E944209B8
:10194000FF91EF91BF91AF919F918F917F916F9197
:101950005F914F913F912F910F900FBE0F901F906D
:10196000189520E001972FEF8F3F9207D9F7089540
:10197000CF92DF92EF92FF920F931F93CF93DF935B
:10198000EC01898D9A8D009729F421E030E03B83AA
:101990002A8364C0FFB6F89428E030E090E081E04C
:1019A000482F462309F09F5F880F21503109C1F766
:1019B0008E8D81119F5FE62E192F1095CE010E940A
:1019C000FF09898D9A8D04960E94B10C88E0C82E7B
:1019D000D12C01E0802F8E2139F0E989FA8990819C
:1019E0008889892B808303C0CE010E94FF09898DDD
:1019F0009A8D0E94B10C000F81E0C81AD10851F7EE
:101A00008E8D882339F0E989FA8990818889892B1C
:101A1000808303C0CE010E94FF09898D9A8D0E94A8
:101A2000B10C10FF07C0E989FA8990818889892B58
:101A3000808303C0CE010E94FF09898D9A8D0E9488
:101A4000B10CE989FA8990818889892B8083FFBE4E
:101A50008B8D9C8D0E94B10C81E090E0DF91CF9145
:101A60001F910F91FF90EF90DF90CF900895EF922C
:101A7000FF920F931F93CF93DF93C091F501D09105
:101A8000F601209709F443C08B899C890E94B10C10
:101A900088E0E82EF12C10E001E08D899E890E94FB
:101AA000B10CEE85FF8590818D85892311F0102B77
:101AB00003C0802F80951823000F81E0E81AF108F9
:101AC00061F78D899E890E94B10C8F89988D0E9443
:101AD000B10C8091F4012091F30190E001968F7197
:101AE000992730E08217930779F0E091F401F0E054
:101AF000E85CFB4F10838091F40190E001968F71B8
:101B000099278093F40103C08D8D81608D8FDF91C3
:101B1000CF911F910F91FF90EF9008951F920F9218
:101B20000FB60F9211242F933F934F935F936F93B0
:101B30007F938F939F93AF93BF93EF93FF930E94F5
:101B4000370DFF91EF91BF91AF919F918F917F9151
:101B50006F915F914F913F912F910F900FBE0F901A
:101B60001F9018951F920F920FB60F9211242F936A
:101B70003F934F935F936F937F938F939F93AF9315
:101B8000BF93EF93FF930E94370DFF91EF91BF91A9
:101B9000AF919F918F917F916F915F914F913F9105
:101BA0002F910F900FBE0F901F9018951F920F92BC
:101BB0000FB60F9211242F933F934F935F936F9320
:101BC0007F938F939F93AF93BF93EF93FF930E9465
:101BD000370DFF91EF91BF91AF919F918F917F91C1
:101BE0006F915F914F913F912F910F900FBE0F908A
:101BF0001F901895CF93DF93C0E0D0E08091CA0387
:101C000090E0C817D907ECF4209761F00197C81746
:101C1000D90741F081E02091C8033091C903C21770
:101C2000D30709F480E0FE01EC5EFC4F60818093F5
:101C3000E9038BEC93E00E94B80C1092E903219623
:101C4000DDCFDF91CF910895CF93DF93CDB7DEB78E
:101C5000A2970FB6F894DEBF0FBECDBF789484B5BF
:101C6000826084BD84B5816084BD85B5826085BD98
:101C700085B5816085BD80916E00816080936E0026
:101C80001092810080918100826080938100809118
:101C900081008160809381008091800081608093C9
:101CA00080008091B10084608093B1008091B00089
:101CB00081608093B00080917A00846080937A0084
:101CC00080917A00826080937A0080917A008E7F82
:101CD00080937A0080917A00806880937A001092D5
:101CE000C100E0910702F091080282E08083E09158
:101CF0000302F09104021082E0910502F0910602C5
:101D000087E6808310920F02E0910B02F0910C02A3
:101D100086E08083E0910902F0910A02808180616F
:101D20008083E0910902F0910A02808188608083BB
:101D3000E0910902F0910A02808180688083E0913D
:101D40000902F0910A0280818F7D80831092000148
:101D500061E08DE00E94C80A61E08DE00E94980A6F
:101D600061E083E00E94C80A1092E7031092E60344
:101D70001092E5031092E4031092E3031092E20341
:101D80001092E1031092E0031092DF031092DE0341
:101D90008AEE90E020E030E0FC014591559165919C
:101DA0007491443E55426105710509F034C04EE01E
:101DB000429FC001439F900D1124FC01E251FF4F4F
:101DC000259134913093DF032093DE03FC01E05131
:101DD000FF4F259134913093E1032093E003FC0100
:101DE000EE50FF4F259134913093E3032093E203AB
:101DF000FC01EC50FF4F259134913093E503209383
:101E0000E403FC01EA50FF4F859194919093E7031E
:101E10008093E60307C02F5F3F4F0E962F303105AA
:101E200009F0BACF8091E2039091E303892B09F482
:101E300046C09091D7039631E0F520916800983024
:101E400050F031E09E3008F430E081E001C0880FAE
:101E50003A95EAF701C084E0822B809368009830BD
:101E600038F09E3040F0963148F4ECE6F0E008C0DF
:101E7000EDE6F0E005C0EBE6F0E002C0E0E0F0E007
:101E80004081983030F481E001C0880F9A95EAF7DC
:101E90000EC0292F30E09E3018F42850310902C0BE
:101EA0002E50310981E001C0880F2A95EAF7842B72
:101EB00080838091E4039091E5030E94B10C0E941D
:101EC000690362EE71E081EF91E00E945A048EEDA9
:101ED00091E09093A3028093A2028CEB91E0909307
:101EE000C3028093C2028091A0029091A1029C0142
:101EF0002F5F3F4FF901EE0FFF1FEE55FD4F48EDED
:101F000051E051834083FC01EE0FFF1FEC53FD4F66
:101F100046ED51E051834083FC01EE0FFF1FEC5072
:101F2000FD4F11821082F901EE51FD4F10822E5F9C
:101F30003F4FF901EE0FFF1FE056FD4F4BEC51E014
:101F400051834083FC01EE0FFF1FEA53FD4F48EC25
:101F500051E051834083FC01EE0FFF1FEA50FD4F1B
:101F600011821082FC01EC51FD4F10823093A102CE
:101F70002093A0028BE391E09093F5028093F4020A
:101F80001092E30281E591E09093F7028093F602CC
:101F90001092E40286E78093EA038091F3038F3F77
:101FA00041F51092A1011092A001109256011092D9
:101FB000780110929F0181E080939E011092990117
:101FC00061E082E10E94980A61E083E10E94980A40
:101FD0008091B9008E7F8093B9008091B9008D7F88
:101FE0008093B90080E28093B80085E48093BC00C0
:101FF0004EC061E00E94980A61E08091F3030E9464
:10200000C80A8091F6038F3F09F034C01FB7F894D7
:1020100080913401811127C0EAEBF3E08491EEEC6A
:10202000F3E09491E82FF0E0EE0FFF1FE254FE4F33
:10203000A591B491EC91E92321F461E08AE00E943A
:10204000980A61E08AE00E94C80A8CB580618CBD64
:102050008CB580648CBD61E08DE00E94C80A61E0AF
:102060008BE00E94C80A809134018F5F8093340115
:102070001FBF0DC061E00E94C80A61E08091F403B7
:102080000E94C80A60E08091F5030E94C80A80910E
:10209000F3038F3FE9F48091EA0391E090935501B7
:1020A00080937701109256011092780160ED84E9D7
:1020B00092E00E94D0090E947C0761E08091EA03CF
:1020C0000E94310784E992E00E948409182F1FC002
:1020D0008091F6038F3F21F481E590E00E94800B10
:1020E00060E08091F3030E94980A80ED0E94D1067F
:1020F00080E00E94D106182F61E08091F3030E94D6
:10210000980A8091F6038F3F11F40E947F0B1835D7
:1021100009F08EC088E80E94D9079093F803809355
:10212000F7038AE80E94D9079093FA038093F90392
:102130008CE80E94D9079093FC038093FB038EE800
:102140000E94D9079093FE038093FD0380E90E94CB
:10215000D907909300048093FF0382E90E94D90776
:10216000909302048093010484E90E94D90790931C
:1021700004048093030486E90E94D907909306041F
:102180008093050488E90E94D907909308048093FE
:1021900007048AE90E94D90790930A0480930904EE
:1021A0008CE90E94D90790930C0480930B048EE96C
:1021B0000E94D90790930E0480930D048091F3033D
:1021C0008F3FC1F48091EA0391E090935501809391
:1021D0007701109256011092780164EF84E992E041
:1021E0000E94D0096FE384E992E00E94D0090E9426
:1021F0007C071EC08091F6038F3F21F481E590E0BB
:102200000E94800B60E08091F3030E94980A84E7AB
:102210000E94D1068FE30E94D10661E08091F30312
:102220000E94980A8091F6038F3F11F40E947F0B61
:1022300010923E0110923D011092400110923F0118
:1022400010924201109241011092440110924301F8
:1022500010924601109245011092480110924701D8
:1022600081E00E94C3040E94FA0D0E94040B4B01FE
:102270005C0154E1C52ED12CE12CF12C0E94040B01
:10228000DC01CB0188199909AA09BB09883E934052
:10229000A105B10558F0F1E0CF1AD108E108F10825
:1022A00028EE820E23E0921EA11CB11CC114D104A1
:1022B000E104F10419F78091C2018111D1CF60E0EE
:1022C0008DE00E94980A0E94BB0887EF0E943508A3
:1022D0006A8F7B8F8C8F9D8F8091EF039091F0039D
:1022E000A091F103B091F2036C017D01FF0CCC08C9
:1022F000DC2C76019C01AD016C2D7C2D8C2D9C2D50
:10230000345F4140510961097109810991092AA38A
:1023100039A349835A836B837C838D839E835901C0
:102320006A017B018C010E9418162A8B3B8B4C8B17
:102330005D8B6E8B7F8B888F998F409107044E8FBA
:10234000509108045F83809105048F8F909106045B
:102350009887E0910304E8A3F0910404F987B09012
:102360000004A090FF031B2D110F110BC12ED12EC5
:10237000E12EF12E012F2AA139A149815A816B81C9
:102380007C818D819E810E9418160CE00E94481766
:1023900019012A013B014C01B0900204A0900104F4
:1023A0001B2D110F110BC12ED12EE12EF12E012F5D
:1023B0002A893B894C895D896E897F89888D998DB1
:1023C0000E94181608E00E94611751016201730112
:1023D00084010E947F1770588F4F9F4FA090FD037C
:1023E000B090FE03C12CD12CE12CF12C00E010E0C8
:1023F0000E94181601E20E9461172A873B874C87CA
:102400005D876E877F87888B998BA0E00E949117EC
:1024100009F464C1AE8C1F81110F110BBF80C12E56
:10242000D12EE12EF12E012F2A893B894C895D891D
:102430006E897F89888D998D0E94181619012A014D
:102440003B014C01AF8C1885110F110BB884C12EC4
:10245000D12EE12EF12E012F2AA139A149815A81D5
:102460006B817C818D819E810E94181601E10E9402
:10247000481759016A017B018C019101A201B30146
:10248000C4010E947F1719012A013B014C018A8D6A
:102490009B8DAC8DBD8D24E0B595A79597958795BF
:1024A0002A95D1F720E030E040E150E0281B390BBD
:1024B0004A0B5B0BDA01C90169017A01FF0CCC08F8
:1024C000DC2C76019C01AD016C2D7C2D8C2D9C2D7E
:1024D0000FE10E944817F901B42FA52F6C837D836B
:1024E00089839A8328A19985990F990B3985492F5A
:1024F000592F692F792F892F03E20E94481759011C
:102500006A017B018C019101A201B301C4010E9407
:102510007F1759016A017B018C019F014B2F5A2FB4
:102520006C817D8189819A810E9488174901542E8E
:10253000652EB62FA72FF82FE92F03E00E9448172A
:102540005401C52CD62CEB2EFA2E0F2F1E2F0E94D5
:10255000881759016A017B01782E192F03E00E9428
:102560004817072D0E94881703E00E94481754015E
:10257000C52CD62CEB2EFA2E0F2F1E2F0E9488175B
:1025800002E00E9448170F2F0E94881701E00E9466
:1025900048170F2F0E948817AA84BB84CC84DD843F
:1025A000EE84FF84088919890E9473162F83232ED5
:1025B00049835A836B837C838D839E830DE00E94C5
:1025C0006117322E432E542E652E762E872E982E8E
:1025D000988730910E0420910D04932F990F990B39
:1025E000A32CB42CC52CD62CE72CF82C092D18853F
:1025F000492F592F692F792F892F0E9418160E9471
:10260000181609E10E94611759016A017B018C01CA
:102610002F81322D49815A816B817C818D819E81F0
:102620000E947F17322E432E542E652E762E872E33
:10263000982E988730910C0420910B04932F990FBA
:10264000990BAF80B22CC980DA80EB80FC800D81C1
:102650001E81492F592F692F792F892F0E94181613
:1026600003E10E94611759016A017B018C01232D4E
:10267000342D452D562D672D782D892D98850E9456
:102680007F1708E00E94611749013A01B62FA72F72
:10269000F82FE92F30910A0420910904932F990F04
:1026A000990B492F592F692F792F892F04E00E9408
:1026B000481759016A017B018C019401A3016B2F1A
:1026C0007A2F8F2F9E2F0E947F170E94E01820E004
:1026D00030E040E85BE30E94EB1903C060E070E08B
:1026E000CB0120E030E048EC52E40E94381820E0B2
:1026F00030E54DE754E40E94381821E03EED42E415
:102700005EE30E94581A9B01AC0160E070E080E833
:102710009FE30E94C61720E03AE24DE257E40E9490
:10272000EB190E94AA186B017C017093540160930D
:1027300053010E94BB080E94AA1870935201609333
:10274000510120914F01309150012431310521F484
:10275000D0924E01C0924D014091490150914A01E1
:10276000FA01EE0FFF1FE35CFE4F80914B01909149
:102770004C0160817181861B970BD182C0828C0DC8
:102780009D1D90934C0180934B014F5F5F4F4630EE
:1027900051052CF450934A014093490104C0109212
:1027A0004A011092490166E070E00E94F1158091A3
:1027B0004D0190914E01681B790B70933C01609321
:1027C0003B012531310554F42F5F3F4F30935001C9
:1027D00020934F0110923C0110923B010E94290B63
:1027E0000E94FA0D0E94290B4B015C0160E083E01E
:1027F0000E94C80A62E084E00E94C80A0E9469033D
:102800008BEC93E00E94250A8BEC93E00E94340A43
:10281000892B61F40E94290BDC01CB0188199909ED
:10282000AA09BB090697A105B10570F38BEC93E0EB
:102830000E94340A181619060CF053C08BEC93E072
:102840000E944B0A2091010130910201281739079B
:1028500009F447C09093020180930101209139014E
:1028600030913A01803B910579F1803E910521F04C
:1028700080379105B1F511C02430310591F12F5FFA
:102880003F4F30933A01209339012330310549F508
:1028900010923A011092390124C02430310509F117
:1028A0002336310539F441E050E050933A0140932A
:1028B000390117C02150310930933A012093390171
:1028C000253031052CF70DC02230310551F4D0925E
:1028D0004E01C0924D0183E690E090933A018093BF
:1028E00039018091390190913A018430910509F4C0
:1028F00079C0109238011092370181309105F1F0C2
:1029000044F4892B09F074C069E672E088E792E02C
:102910006DC08230910509F452C08336910509F0EB
:1029200067C01092D3011092C3016CE272E083ED94
:1029300091E00E94ED1B60E272E04DC01092D30165
:102940001092C30161E672E083ED91E00E94ED1BFD
:102950001092E30160913B0170913C01072E000C45
:10296000880B990B0E94E8180E94860363EE71E0C1
:1029700083ED91E00E94E21B6FE572E083ED91E050
:102980000E94ED1B67E572E083EC91E00E94ED1B75
:102990001092E3016091510170915201072E000CD9
:1029A000880B990B0E94E8180E94860363EE71E081
:1029B00083EC91E00E94E21B64E572E00CC010928F
:1029C000D3011092C30168E472E083ED91E00E94AC
:1029D000ED1B69E372E083EC91E00E94ED1B0E9425
:1029E000880406C061E072E080E192E00E945A042F
:1029F0008091350190913601019690933601809334
:102A00003501059744F081E00E94C304109236011D
:102A10001092350103C080E00E94C3040E94290B7C
:102A200061E084E00E94C80A0E9405034CCCCF9369
:102A3000DF93E7EFF1E01382128248EE53E060E0AB
:102A400070E0448355836683778388E091E09183C7
:102A5000808385EC90E09587848784EC90E097876D
:102A6000868780EC90E0918B808B81EC90E0938B5B
:102A7000828B82EC90E0958B848B86EC90E0978B38
:102A8000868B118E128E138E148EE4E9F2E013827F
:102A90001282448355836683778388E191E0918332
:102AA0008083EAEEF3E08FEF8187828783878487D4
:102AB000CBECD3E01B821A824C835D836E837F83D1
:102AC00088E291E0998388831C8A1B8A1E8A1D8A6A
:102AD000188E1F8A1A8E198E1C8E1B8EE8EEF3E05C
:102AE00080818E7F808361E084E00E94C80A61E07B
:102AF00084E00E94980AE8ECF3E0E491E88BE4EBD0
:102B0000F3E0E491F0E0EE0FFF1FE456FC4F8591F7
:102B100094919A8B898B62E083E00E94C80A83E0DB
:102B20008C87E7ECF3E0E491ED87E3EBF3E0E491ED
:102B3000F0E0EE0FFF1FEA55FC4F859194919F87BF
:102B40008E87109212031092A1021092A00210928E
:102B5000CA0310921303DF91CF91089588E291E0A8
:102B60009093CC038093CB032091D703263140F57B
:102B7000283028F02E3030F0ECE6F0E005C0EDE62D
:102B8000F0E002C0EBE6F0E03081283038F481E07C
:102B900090E001C0880F2A95EAF70FC0422F50E05D
:102BA0002E3018F44850510902C04E50510981E0AE
:102BB00090E001C0880F4A95EAF7809583238083CF
:102BC0000895DB018F939F930E940516BF91AF91EB
:102BD000A29F800D911DA39F900DB29F900D112477
:102BE000089597FB072E16F4009407D077FD09D0BF
:102BF0000E949D1707FC05D03EF4909581959F4F4C
:102C00000895709561957F4F08950E94B717A59F0D
:102C1000900DB49F900DA49F800D911D11240895D7
:102C2000B7FF0C9405160E940516821B930B08959E
:102C3000DF93CF931F930F939A9DF02D219FF00D5B
:102C40008B9DF00D8A9DE02DF10D039FF00D029FED
:102C5000E00DF11D4E9DE00DF11D5E9DF00D4F9DAF
:102C6000F00D7F936F93BF92AF925F934F93D50117
:102C70000E94B7178B01AC01D7010E94B717EB0177
:102C8000E80FF91FD6010E9468162F913F91D601D7
:102C90000E94B717C60FD71FE81FF91FAF91BF914A
:102CA0000E9468162F913F910E94B717C60FD71F39
:102CB000E81FF91FD6010E94B717E60FF71F98010A
:102CC000BE01CF0111240F911F91CF91DF91089583
:102CD0000E94B717460F571FC81FD91F08F4319617
:102CE0000895689401C0E894F92FF12B12F00C9428
:102CF000A516A0E0B0E0EFE7F6E10C941717092E57
:102D0000059422F40E940117112392F4F0E80F2693
:102D1000FFEFE094F09400951095B094C094D09497
:102D2000A194BF0ACF0ADF0AEF0AFF0A0F0B1F0B9D
:102D30000E94B01607FC0E940117CDB7DEB7ECE089
:102D40000C943317689401C0E8948F929F92CF93AC
:102D5000DF930E94B016DF91CF919F908F900895DE
:102D600088249924F401E401B0E49F93AA279A15DA
:102D70008B049C04ED05FE05CF05D007A10798F450
:102D8000AD2FDC2FCF2FFE2FE92D982C892E982FD9
:102D9000872F762F652F542F432F322F2227B8509D
:102DA00031F7BF9127C01B2EBF91BB27220F331FC6
:102DB000441F551F661F771F881F991F881C991C69
:102DC000EE1FFF1FCC1FDD1FAA1FBB1F8A149B0411
:102DD000EC05FD05CE05DF05A007B10748F08A1810
:102DE0009B08EC09FD09CE09DF09A00BB10B21609E
:102DF0001A94E1F62EF49401AF01BE01CD01000C4E
:102E00000895609570958095909530954095509572
:102E100021953F4F4F4F5F4F6F4F7F4F8F4F9F4FCA
:102E200008952F923F924F925F926F927F928F926E
:102E30009F92AF92BF92CF92DF92EF92FF920F9349
:102E40001F93CF93DF93CDB7DEB7CA1BDB0B0FB653
:102E5000F894DEBF0FBECDBF09942A883988488810
:102E60005F846E847D848C849B84AA84B984C884A6
:102E7000DF80EE80FD800C811B81AA81B981CE0F9D
:102E8000D11D0FB6F894DEBF0FBECDBFED01089582
:102E90000F93083090F0982F872F762F652F542F9F
:102EA000432F322F22270850F4CF220F331F441F05
:102EB000551F661F771F881F991F0A95B2F70F913C
:102EC000089597FB10F8169400080F93083098F0B7
:102ED0000850232F342F452F562F672F782F892FF7
:102EE000902DF4CF0594979587957795679557958D
:102EF0004795379527950A95AAF70F9108952A0DBA
:102F00003B1D4C1D5D1D6E1D7F1D801F911F089573
:102F10002A193B094C095D096E097F09800B910B49
:102F200008950024A7FD00942A1730054005500598
:102F300060057005800590050895AA1BBB1B51E133
:102F400007C0AA1FBB1FA617B70710F0A61BB70B19
:102F5000881F991F5A95A9F780959095BC01CD01BE
:102F60000895EE0FFF1F0590F491E02D0994A29FA4
:102F7000B001B39FC001A39F700D811D1124911D4D
:102F8000B29F700D811D1124911D08955058BB27CB
:102F9000AA270E94DE170C94AC190E949E1938F0E3
:102FA0000E94A51920F039F49F3F19F426F40C94DF
:102FB0008B190EF4E095E7FB0C948519E92F0E941C
:102FC000BD1958F3BA17620773078407950720F0F5
:102FD00079F4A6F50C94DF190EF4E0950B2EBA2FB8
:102FE000A02D0B01B90190010C01CA01A00111240F
:102FF000FF27591B99F0593F50F4503E68F11A16BB
:10300000F040A22F232F342F4427585FF3CF46954B
:1030100037952795A795F0405395C9F77EF41F166D
:10302000BA0B620B730B840BBAF09150A1F0FF0F37
:10303000BB1F661F771F881FC2F70EC0BA0F621F23
:10304000731F841F48F4879577956795B795F79513
:103050009E3F08F0B0CF9395880F08F09927EE0FA8
:103060009795879508950E94611908F481E0089565
:103070000E944C180C94AC190E94A51958F00E949B
:103080009E1940F029F45F3F29F00C9485195111E5
:103090000C94E0190C948B190E94BD1968F39923C4
:1030A000B1F3552391F3951B550BBB27AA27621744
:1030B0007307840738F09F5F5F4F220F331F441F51
:1030C000AA1FA9F335D00E2E3AF0E0E832D0915085
:1030D0005040E695001CCAF72BD0FE2F29D0660F72
:1030E000771F881FBB1F261737074807AB07B0E8B5
:1030F00009F0BB0B802DBF01FF2793585F4F3AF0BB
:103100009E3F510578F00C9485190C94E0195F3FAF
:10311000E4F3983ED4F3869577956795B795F79540
:103120009F5FC9F7880F911D9695879597F9089528
:10313000E1E0660F771F881FBB1F621773078407C4
:10314000BA0720F0621B730B840BBA0BEE1F88F7D3
:10315000E09508950E94B1186894B1110C94E0199B
:1031600008950E94C51988F09F5798F0B92F9927A4
:10317000B751B0F0E1F0660F771F881F991F1AF062
:10318000BA95C9F714C0B13091F00E94DF19B1E0CF
:1031900008950C94DF19672F782F8827B85F39F0CE
:1031A000B93FCCF3869577956795B395D9F73EF4FB
:1031B00090958095709561957F4F8F4F9F4F0895A3
:1031C00097FB16F40E948E190C942419E89409C0F8
:1031D00097FB3EF490958095709561957F4F8F4F4A
:1031E0009F4F9923A9F0F92F96E9BB279395F69560
:1031F000879577956795B795F111F8CFFAF4BB0FDE
:1032000011F460FF1BC06F5F7F4F8F4F9F4F16C041
:10321000882311F096E911C0772321F09EE8872FCB
:10322000762F05C0662371F096E8862F70E060E087
:103230002AF09A95660F771F881FDAF7880F969500
:10324000879597F90895E894F92F96EBFF2381F07D
:10325000121613061406440B9395F69587957795E9
:10326000679557954040FF23B9F71BC099270895EC
:10327000882351F49850D2F7872B762F652F542F3F
:10328000432F322F20E0B1F3121613061406440B1D
:1032900088233AF09A95440F551F661F771F881FA1
:1032A000CAF755234AF4440F551F11F460FF04C0B8
:1032B0006F5F7F4F8F4F9F4F880F9695879597F938
:1032C0000895990F0008550FAA0BE0E8FEEF1616B7
:1032D0001706E807F907C0F012161306E407F5070A
:1032E00098F0621B730B840B950B39F40A2661F07E
:1032F000232B242B252B21F408950A2609F4A14021
:10330000A6958FEF811D811D089597F99F6780E82D
:1033100070E060E008959FEF80EC089590958095AF
:103320007095609550954095309521953F4F4F4F42
:103330005F4F6F4F7F4F8F4F9F4F089500240A9428
:103340001616170618060906089500240A94121680
:103350001306140605060895092E0394000C11F4B3
:10336000882352F0BB0F40F4BF2B11F460FF04C060
:103370006F5F7F4F8F4F9F4F089557FD9058440FB9
:10338000551F59F05F3F71F04795880F97FB991FC4
:1033900061F09F3F79F08795089512161306140681
:1033A000551FF2CF4695F1DF08C01616170618060E
:1033B000991FF1CF86957105610508940895E894E9
:1033C000BB2766277727CB0197F908950E946119DB
:1033D00008F48FEF08950E94FE190C94AC190E9416
:1033E0009E1938F00E94A51920F0952311F00C9435
:1033F00085190C948B1911240C94E0190E94BD19A5
:1034000070F3959FC1F3950F50E0551F629FF00137
:10341000729FBB27F00DB11D639FAA27F00DB11D50
:10342000AA1F649F6627B00DA11D661F829F2227D9
:10343000B00DA11D621F739FB00DA11D621F839F60
:10344000A00D611D221F749F3327A00D611D231F36
:10345000849F600D211D822F762F6A2F11249F5784
:1034600050409AF0F1F088234AF0EE0FFF1FBB1F87
:10347000661F771F881F91505040A9F79E3F510546
:1034800080F00C9485190C94E0195F3FE4F3983EAA
:10349000D4F3869577956795B795F795E7959F5FF0
:1034A000C1F7FE2B880F911D9695879597F9089582
:1034B000FA01EE0FFF1F309621053105A1F16115CC
:1034C000710561F48038BFE39B0749F16894903837
:1034D000810561F08038BFEF9B0741F099234AF5E1
:1034E000FF3FE1053105210519F1E8940894E795BE
:1034F000D901AA2329F4AB2FBE2FF85FD0F310C057
:10350000FF5F70F4A695E0F7F73950F019F0FF3A35
:1035100038F49F779F930DD00F9007FC9058089533
:1035200046F00C948B1960E070E080E89FE308950A
:103530004FE79F775F934F933F932F930E94531BC7
:103540002F913F914F915F910E94EB190C94B01A0B
:1035500029F416F00C9485190C94DF190C948B192E
:103560000E94C519A8F39638A0F707F80F92E894BF
:103570002BE33AEA48EB5FE70E94011A0F920F92A1
:103580000F924DB75EB70F920E949B1BE8E6F0E0EA
:103590000E94E21A4F915F91EF91FF91E595EE1F26
:1035A000FF1F49F0FE57E0684427EE0F441FFA95CD
:1035B000E1F74195550B0E94151B0F9007FE0C94E7
:1035C000091B0895DF93CF931F930F93FF92EF9200
:1035D000DF927B018C01689406C0DA2EEF010E9415
:1035E000FE19FE01E894A5912591359145915591DB
:1035F000A6F3EF010E94DE17FE019701A801DA94FD
:1036000069F7DF90EF90FF900F911F91CF91DF91BD
:1036100008959B01AC0160E070E080E89FE30C94AA
:1036200038180C9485190C94CF1B0E94C519D8F337
:103630009923C9F3940F511DA3F39150504094F076
:1036400059F0882332F0660F771F881F9150504041
:10365000C1F79E3F51052CF7880F911D96958795D0
:1036600097F908955F3FACF0983E9CF0BB27869594
:1036700077956795B79508F4B1609395C1F7BB0F3F
:1036800058F711F460FFE8CF6F5F7F4F8F4F9F4F68
:10369000E3CF0C94E01916F00C94CF1B0C948B190B
:1036A00068940C9485190E94C519A8F39923C1F355
:1036B000AEF3DF93CF931F930F93FF92C92FDD27B4
:1036C00088232AF02197660F771F881FDAF720E0FA
:1036D00030E040E85FEB9FE3883920F0803E38F02F
:1036E00021968F770E94C717E0E9F0E004C00E949E
:1036F000C717EDEBF0E00E94E21A8B01BE01EC016E
:10370000FB2E6F5771097595771F880B990B0E94D7
:10371000E81828E132E741E35FE30E94FE19AF2D8C
:103720009801AE01FF900F911F91CF91DF910E9400
:10373000DE170C94AC19FA01DC01AA0FBB1F9B0128
:10374000AC01BF5728F4222733274427507820C0E4
:10375000B75190F4AB2F0024469537952795011C5F
:10376000A395D2F3002071F0220F331F441FB395AD
:10377000DAF30ED00C94C61761307105A0E88A0701
:10378000B94630F49B01AC016627772788279078EB
:10379000309621F0208331834283538308959F3FE5
:1037A00031F0915020F4879577956795B795880FFC
:1037B000911D9695879597F9089581E090E0F8948A
:1037C0000C94341CFB01DC010D900020E9F71197EB
:1037D00001900D920020E1F70895FB01DC010D90AE
:1037E0000020E9F7119705900D920020E1F7089568
:1037F000FB01DC0105900D920020E1F70895BB2745
:103800004A3031F4992322F4BDE2909581959F4F7F
:103810000C940B1CBB27FB015527AA27880F991F67
:10382000AA1FA41710F0A41B83955051B9F7A05DEF
:10383000AA3308F0A95DA193009779F7B111B1936C
:103840001192CB010C94241CDC01FC01672F7191B7
:103850007723E1F7329704C07C916D937083629176
:10386000AE17BF07C8F3089511E0CDEED1E004C054
:10387000FE010E94B1172196CE3ED107C9F7F894F8
:02388000FFCF78
:1038820001F00006000000009C02180265024302DB
:103892005702E30200000000D009A0099809840938
:1038A2007509740900000000B80C1802340A4B0AAA
:0438B2000B0A250ACE
:00000001FF
