:100000000C9402020C942A020C942A020C94FD0D0A
:100010000C94D90D0C94B50D0C942A020C942A0260
:100020000C942A020C942A020C942A020C942A02A0
:100030000C942A020C942A020C942A020C942A0290
:100040000C945C0B0C942A020C9423030C94FD0278
:100050000C942A020C942A020C942A020C942A0270
:100060000C94AA0B0C942A0207634236B79BD8A7BC
:100070001A39685618AEBAAB558C1D3CB7CC5763CD
:10008000BD6DEDFD753EF6177231BF000000803F7B
:1000900008000000BE922449123EABAAAA2ABECD97
:1000A000CCCC4C3E00000080BEABAAAAAA3E000009
:1000B0000000BF000000803F000000000008417801
:1000C000D3BB4387D1133D190E3CC3BD4282AD2B38
:1000D0003E68EC8276BED98FE1A93E4C80EFFFBE30
:1000E00001C4FF7F3F000000000000C201000100CA
:1000F000050005000300030000E1000001000F00FF
:100100000F000D000D0000960000020019001A00FB
:1001100017001700127A00000700200021001D00C0
:100120001D00807000000B00230023002000200031
:10013000004B000014003700370034003400403812
:1001400000001E004B004B004800480048260000FD
:100150003100710071006F006F00E4250000310074
:10016000710071006F006F00802500003200720086
:10017000720070007000C01200006E00E900E9001B
:10018000E600E60060090000E500D801D801D501CD
:10019000D501B0040000D301B403B403B103B1032B
:1001A00058020000B40367076707620762072C0163
:1001B00000006707DD0EDD0EDA0EDA0E200000000B
:1001C0000000240027002A00B0430054656D7065CC
:1001D000726174757265006D00416C746974756448
:1001E000650052435400204A65746920416C744D87
:1001F000657465720020524354204A657469205426
:100200006F6F6C7300204A65746920416C744D6592
:100210007465720020524354204A65746920546FFB
:100220006F6C73005072657373203C20746F20658F
:1002300078697400416C74697475646520726573C3
:1002400065742100507265737320444F574E00410E
:100250006C742026204D617820526573657400B05F
:1002600043004D617854656D702E3A20006D004D4D
:100270006178416C742E3A2000B0430054656D7073
:100280002E3A20006D00416C7469747564653A20E3
:1002900000204A65746920416C744D657465720074
:1002A00020524354204A65746920546F6F6C730068
:1002B0000000000800020100000304070000000025
:1002C0000000000000070E091C1B1215383F3631D4
:1002D00024232A2D70777E796C6B6265484F4641E6
:1002E00054535A5DE0E7EEE9FCFBF2F5D8DFD6D1D6
:1002F000C4C3CACD90979E998C8B8285A8AFA6A1C6
:10030000B4B3BABDC7C0C9CEDBDCD5D2FFF8F1F6B5
:10031000E3E4EDEAB7B0B9BEABACA5A28F888186A5
:1003200093949D9A2720292E3B3C35321F18111695
:1003300003040D0A5750595E4B4C45426F68616685
:1003400073747D7A898E878095929B9CB1B6BFB875
:10035000ADAAA3A4F9FEF7F0E5E2EBECC1C6CFC865
:10036000DDDAD3D4696E676075727B7C51565F5855
:100370004D4A4344191E171005020B0C21262F2845
:100380003D3A33344E49404752555C5B7671787F35
:100390006A6D64633E39303722252C2B0601080F25
:1003A0001A1D1413AEA9A0A7B2B5BCBB9691989F15
:1003B0008A8D8483DED9D0D7C2C5CCCBE6E1E8EF05
:1003C000FAFDF4F300000000250028002B000000D7
:1003D000000023002600290004040404040404048B
:1003E00002020202020203030303030301020408E0
:1003F000102040800102040810200102040810208F
:10040000AD15441611241FBECFEFD8E0DEBFCDBF1F
:1004100011E0A0E0B1E0EEEAF9E302C005900D9230
:10042000AA33B107D9F724E0AAE3B1E001C01D92D5
:10043000A23BB207E1F712E0C1E0D2E004C021978D
:10044000FE010E94A51CC030D107C9F70E944B0EC7
:100450000C94CA1C0C940000CF92DF92EF92FF9292
:100460000F931F93CF93DF936C017A018B01C0E050
:10047000D0E0CE15DF0589F0D8016D918D01D60150
:10048000ED91FC910190F081E02DC6010995892B39
:1004900011F47E0102C02196ECCFC701DF91CF910C
:1004A0001F910F91FF90EF90DF90CF900895FC0186
:1004B000538D448D252F30E0842F90E0821B930BC9
:1004C000541710F0CF96089501970895FC01918D6F
:1004D000828D981761F0828DDF01A80FB11D5D96A6
:1004E0008C91928D9F5F9F73928F90E008958FEF14
:1004F0009FEF0895FC01918D828D981731F0828DC8
:10050000E80FF11D858D90E008958FEF9FEF08951E
:100510000E94BA1C81E092E00E942E0921E0892B02
:1005200009F420E0822F0895EF92FF920F931F931A
:10053000CF93DF93EC0181E0888F9B8D8C8D981396
:1005400005C0E889F989808185FD24C0F62E0B8DD0
:1005500010E00F5F1F4F0F731127E02E8C8DE812F4
:100560000CC00FB607FCFACFE889F989808185FFB6
:10057000F5CFCE010E94750AF1CF8B8DFE01E80FF9
:10058000F11DE35AFF4FF0820B8FEA89FB898081CE
:10059000806207C0EE89FF896083E889F9898081DC
:1005A0008064808381E090E0DF91CF911F910F9173
:1005B000FF90EF900895CF93DF93EC01888D88230F
:1005C000C9F0EA89FB89808185FD05C0A889B989C0
:1005D0008C9186FD0FC00FB607FCF5CF808185FF9B
:1005E000F2CFA889B9898C9185FFEDCFCE010E9409
:1005F000750AE7CFDF91CF9108951F920F920FB642
:100600000F9211242F933F934F935F936F937F9398
:100610008F939F93AF93BF93EF93FF9381E092E00B
:100620000E94750AFF91EF91BF91AF919F918F91B9
:100630007F916F915F914F913F912F910F900FBEDE
:100640000F901F9018951F920F920FB60F921124C2
:100650002F938F939F93EF93FF93E0911102F0916B
:1006600012028081E0911702F091180282FD12C0FF
:10067000908180911A028F5F8F7320911B028217E5
:1006800051F0E0911A02F0E0EF5FFD4F958F8093FB
:100690001A0201C08081FF91EF919F918F912F915C
:1006A0000F900FBE0F901F9018958091FF019091B1
:1006B0000002855D9340A1F08091F2038E7F8093CC
:1006C000F2038FB7F8941092FE011092FD0125ED10
:1006D00033E0309300022093FF018FBF81E0089543
:1006E00080E008952F923F924F925F926F927F9297
:1006F0008F929F92AF92BF92CF92DF92EF92FF9232
:100700000F931F93CF93DF9300D000D0CDB7DEB708
:100710002B013C0120E030E0A9010E942B1787FF4C
:1007200005C020E030E040E05FEB04C020E030E0B6
:1007300040E05FE3C301B2010E94BF166B017C0180
:1007400020E030E0A901C301B2010E942B1787FF0E
:1007500004C0F7FAF094F7F8F094A12CB12C8DECCA
:10076000282E9CEC392E8CEC8B839DE39C8320E01F
:1007700030E040E251E4B1018B819C810E94E3189A
:100780004B018C01A70196010E942B1718163CF013
:10079000AFEFAA1ABA0A14010B831C83E8CF20E03A
:1007A00030E0A901C301B2010E942B1787FF06C0E8
:1007B0008DE28093ED0101E010E002C000E010E066
:1007C000A114B10439F4F801E351FE4F80E38083B2
:1007D0000F5F1F4F812C912CF401E00FF11FFA8362
:1007E000E9838A149B04B1F191014B815C81C701BB
:1007F000B6010E9430170E94A2172B013C016981AB
:100800007A8163517E4F4AE0C2010E948916B2018B
:10081000550C880B990B0E94E01791014B815C816C
:100820000E94E3189B01AC01C701B6010E94BE16ED
:100830006B017C0120E030E040E251E4B1018B81AA
:100840009C810E9430171B018B839C83BFEF8B1A06
:100850009B0AC2CFE351FE4F10828DEE91E00F90C4
:100860000F900F900F90DF91CF911F910F91FF90FC
:10087000EF90DF90CF90BF90AF909F908F907F9040
:100880006F905F904F903F902F900895A2E2B4E058
:1008900020E040E250E15A0F21111FC0FC013491C9
:1008A0003323D9F03C93119601965A13F5CF80E08B
:1008B00090E020E030E2DC01AE5DBB4F211110C0C2
:1008C000FB01E80FF91FE491EE2351F05096EC93F1
:1008D00001968031910579F708954C9321E0E3CF9B
:1008E00050963C9321E0F4CFCF93DF93EDEDF1E010
:1008F00001900020E9F73197ED5DF140CDEDD1E0B9
:10090000A2E2B4E080E090E28E1718F428812C93E4
:1009100001C09C938F5F219611968031A9F7EDEC71
:10092000F1E001900020E9F73197ED5CF14080E0C3
:1009300090E020E2DC01AE5DBB4F8E1738F4EC0195
:10094000C353DE4F388150963C9302C050962C938F
:1009500001968031910571F7DF91CF9108952F9223
:100960003F924F925F926F927F928F929F92AF923F
:10097000BF92CF92DF92EF92FF920F931F93CF938C
:10098000DF93CDB7DEB7A0970FB6F894DEBF0FBEEA
:10099000CDBF90911C039923C9F02EE720931E032D
:1009A00022E920931F0323E2209320039093210345
:1009B00090910301992311F0915003C010921C03F0
:1009C00096E09093030104E010E002C000E010E024
:1009D00090911C03911197C19EE790931E039FE98C
:1009E00090931F031092200398E29093210394EABE
:1009F000909322039CEA9093230397E0909324031F
:100A0000109225038111E8C080E480932003709048
:100A10001D038090AA029090AB0208E010E0612CC8
:100A2000D62CD70CED2DF0E0E815F9050CF0C7C079
:100A3000DF01AA0FBB1FA450BD4FAD90BC90A11405
:100A4000B10409F4B8C0D29430EFD322C80186555E
:100A50009D4F7C01DC01AC58BF4FDC92E451FD4F4F
:100A6000C080CC2021F093E09C1590F104C0D5010A
:100A70006D917C9130C06C2D70E080E090E00E9420
:100A8000DE179B01AC0160E070E080E291E40E941F
:100A90005019F50120813181428153810E94E31870
:100AA0001B012C0120E030E0A9010E94DE1820E0AB
:100AB00030E040E05FE387FD05C0C201B1010E9464
:100AC000BF1604C0C201B1010E94BE160E94A21747
:100AD000F3E0FC15B0F0F701EC58FF4F8D2D81606D
:100AE00080837F79D12C20E2C29ED02CCC2411248B
:100AF0006C297D2931966083319670830D5F1F4F7D
:100B00005AC084E0C81211C0F701EC58FF4F8D2D78
:100B1000846080833196D5018C91808331961196C3
:100B20008C9180833196108219C0B6E0BC15C8F054
:100B3000F701EC58FF4F8D2D85608083F501828190
:100B4000F701EB58FF4F8083D50111968C911197D7
:100B50003196808331968C918F7180830C5F1F4F0B
:100B60002AC0B9E0CB1227C0F701EC58FF4F8D2DFA
:100B700089608083F5018381F701EB58FF4F808303
:100B8000D50112968C9112973196808311968C9193
:100B90001197319680838C91F801EE5DFC4F808334
:100BA0008C91853421F08E3421F4108202C0B0E2A1
:100BB000B0830B5F1F4F6394E6E06E1231CF86E087
:100BC000870D282F30E0281539051CF480931D036C
:100BD0007BC010921D0378C0E091CC01F0E0EE0FD5
:100BE000FF1FE455FD4F608171817E01F1E1EF0E41
:100BF000F11CC7010E948216E091CC01F0E0EE0FDB
:100C0000FF1FE453FD4F608171818E010F5F1F4F05
:100C1000C8010E9482168091CC0180932603F701BF
:100C200001900020E9F73197EE19FF09EE0FEE0F62
:100C3000EE0FD8010D900020E9F71197A01BB10B22
:100C4000A370EA2BE0932703D7012AE030E0F701F5
:100C500001900020E9F73197AF014E195F09F901C2
:100C6000EC58FF4FBD016E197F096417750738F402
:100C70009D91E655FD4F90832F5F3F4FE8CFE6559E
:100C8000FD4FA801201B310BB901640F751FD8015E
:100C90000D900020E9F71197A01BB10B7A01E01A23
:100CA000F10AEA16FB0628F4DA019D91AD01919351
:100CB000EBCF8B018F5F90E06091AA027091AB0245
:100CC0000E94E51A8093CC01809120039EEF900F43
:100CD000892B8093200322E0E0E0822F90E08017B0
:100CE00091075CF4DC01A25EBC4F8C91E827F0E038
:100CF000EC53FD4FE4912F5FF0CFD801A25EBC4FC3
:100D0000EC930F5F1F4FC80186559D4FFC01EC58B7
:100D1000FF4F2EEF20831093D3030093D203D8010B
:100D2000A15EBC4FE2E2F4E020E22E0F31913D9350
:100D30002E13FCCFFC01EB56FF4F8FEF80830E5D2F
:100D40001F4F0093D40381E0A0960FB6F894DEBF46
:100D50000FBECDBFDF91CF911F910F91FF90EF900C
:100D6000DF90CF90BF90AF909F908F907F906F90CB
:100D70005F904F903F902F900895CF92DF92EF9227
:100D8000FF920F931F93CF93DF93909100049F3FA7
:100D900039F48EBD00000DB407FEFDCF8EB544C002
:100DA000E82EC7E0D0E0D12C01E010E0DD0C60E0DF
:100DB000809100040E94BF0AB8010C2E01C0660F8A
:100DC0000A94EAF76E218091FE030E94BF0A61E057
:100DD000809100040E94BF0A2091FF0330E0F901D6
:100DE000E055FD4F8491F901E451FC4FC490F901A5
:100DF000E852FC4FF490FF2071F081110E94960A96
:100E0000EF2DF0E0EE0FFF1FE253FC4FA591B491E0
:100E1000EC91EC2129F4219708F0C8CF8D2D04C066
:100E20008D2D8160D82EF7CFDF91CF911F910F913B
:100E3000FF90EF90DF90CF9008959091A9019111CC
:100E4000FCCF613208F060E291E09093A9019093A9
:100E5000A8012FEF2093A7011092A601260F20933F
:100E6000A5019093A4019091A401880F892B8093F0
:100E7000A4018091A301813061F41092A3018091BB
:100E8000A4018093BB008091BC0083FDF8CF85EC6A
:100E900001C085EE8093BC008091A9018130E1F30F
:100EA0008091A601861710F46091A601A3E8B1E035
:100EB0002CEA31E0F9018E2F821B861718F48D91F0
:100EC0008193F9CF1092AB016093AA01862F089508
:100ED0002091820190918101213208F04AC08091D5
:100EE000A9018111FCCF32E03093A90131E03093A8
:100EF000A8013FEF3093A7011092A6012093A5010E
:100F0000A1E6B1E043E851E0FA013E2F341B32176D
:100F100018F43D913193F9CF1092A4012091A401CE
:100F2000990F922B9093A4019091A301913061F4B9
:100F30001092A3019091A4019093BB009091BC00EA
:100F400093FDF8CF95EC01C095EE9093BC00909185
:100F5000A9019230E1F39091A7019F3F79F0809130
:100F6000A701803241F08091A701803331F084E005
:100F700005C081E003C082E001C083E010926001FF
:100F80001092820110925F010895CF93DF93C82FD2
:100F90008091FD038F3F39F58091F40391E09093A8
:100FA0005F018093810110926001109282016C2F89
:100FB0008EE992E00E94D2090E94680762E0809167
:100FC000F4030E941D078EE992E00E948609C82F53
:100FD0008EE992E00E94860920E030E03C2FE90192
:100FE000C82BD92B29C0809100048F3F21F481E5C3
:100FF00090E00E94A70B60E08091FD030E94BF0A71
:101000008C2F80680E94BD0680E00E94BD06C82F1C
:1010100080E00E94BD062C2F30E0322F2227E9010C
:10102000C82B61E08091FD030E94BF0A80910004FB
:101030008F3F11F40E94A60B9C2F8D2FDF91CF9133
:101040000895CF92DF92EF92FF92CF93C82F8091B5
:10105000FD038F3F09F040C08091F40391E090932D
:101060005F018093810110926001109282016C2FC8
:101070008EE992E00E94D2090E94680763E08091A5
:10108000F4030E941D078EE992E00E9486096C011C
:10109000990FEE08FF08FE2CED2CDC2CCC248EE9F9
:1010A00092E00E948609AC01990F660B770BC42A67
:1010B000D52AE62AF72AFE2CED2CDC2CCC248EE94E
:1010C00092E00E948609AC01990F660B770BC42A47
:1010D000D52AE62AF72A33C0809100048F3F21F4F5
:1010E00081E590E00E94A70B60E08091FD030E94E3
:1010F000BF0A8C2F80680E94BD0680E00E94BD065A
:10110000C82ED12CE12CF12CFE2CED2CDC2CCC2487
:1011100080E00E94BD06C82AFE2CED2CDC2CCC24DD
:1011200080E00E94BD06C82A61E08091FD030E9414
:10113000BF0A809100048F3F11F40E94A60BC701E3
:10114000B601CF91FF90EF90DF90CF9008958F92EE
:101150009F92AF92BF92CF92DF92EF92FF928AEF6F
:101160000E942108E4EFF3E0458556854A01A12C51
:10117000B12CC72ED82EE92EFF24E7FCFA94C8180C
:10118000D908EA08FB08DC01CB0137E0B595A79543
:10119000979587953A95D1F7B501A401440F551F4E
:1011A000661F771F4C015D01841A950AA60AB70ACB
:1011B000A5019401A785B0890E94041B4B015C0125
:1011C0003BE0B594A794979487943A95D1F7A701FB
:1011D0009601C701B6010E94D51A9B01AC016CE0D3
:1011E00055954795379527956A95D1F7A189B28985
:1011F0000E94041BDC01CB017EE0B595A795979575
:1012000087957A95D1F7A5019401280F391F4A1FB8
:101210005B1F2583368347835087A5E0B0E00E949B
:10122000F91ADC01CB0180589F4FAF4FBF4F692F98
:101230007A2F8B2F992787FD9A950E94E01720E03F
:1012400030E048EC52E40E943017FF90EF90DF90BE
:10125000CF90BF90AF909F908F900895FC01918D9B
:10126000228D892F90E0805C9F4F821B91098F73A4
:101270009927089580E090E0892B29F00E948A0246
:1012800081110C940000089585ED8093BC0080913D
:10129000BC0084FDFCCF1092A90108954091840404
:1012A000262F30E0240F311D21323105DCF420914E
:1012B000A9012430C9F4FC0180E090E0861758F4BD
:1012C000309184042191DC01AE59BB4FA30FB11DB5
:1012D0002C930196F3CF80918404680F609384046B
:1012E00080E0089581E0089582E008950895E091F6
:1012F000AB018091AA01E81730F4F0E0E455FE4F0D
:10130000808190E008958FEF9FEF08959091AB0159
:101310008091AA01981750F4E92FF0E0E455FE4FB0
:10132000208130E09F5F9093AB0102C02FEF3FEF31
:10133000C90108958091AA0190E02091AB01821B20
:1013400091090895CF92DF92EF92FF920F931F932E
:10135000CF93DF937C01262F972F8A0180915F0125
:10136000882391F0C62FD72F6E01C40ED51ECC1541
:10137000DD0571F06991D701ED91FC910190F0814B
:10138000E02DC7010995F3CF642F822F0E944E09EB
:10139000C801DF91CF911F910F91FF90EF90DF90E7
:1013A000CF900895CF93DF931F92CDB7DEB76983B7
:1013B00020915F012223D1F020918201203240F060
:1013C00021E030E0FC013383228380E090E015C00F
:1013D00080916001E82FF0E0EF59FE4F99819083F2
:1013E0008F5F809360018093820105C061E0CE0130
:1013F00001960E944E0981E090E00F90DF91CF911D
:101400000895DC015196ED91FC9152979081509690
:101410008C9180958923808308952091FF013091DC
:1014200000022817390781F49091FD018091FE0197
:10143000981751F0E091FD01F0E0EE5BFB4F8081E9
:10144000082E000C990B08958FEF9FEF08952091BF
:10145000FF01309100022817390739F48FB7F8944B
:101460001092FE011092FD018FBF08952091FF019F
:10147000309100022817390769F48091FE0120910C
:10148000FD0190E08096821B910960E270E00E946D
:10149000E51A08958FEF9FEF08952091FF01309195
:1014A000000228173907B9F49091FD018091FE01DF
:1014B0009817A1F0E091FD01F0E0EE5BFB4F808119
:1014C0002091FD0130E02F5F3F4F2F713327209394
:1014D000FD0190E008958FEF9FEF08958EEF9FEF4D
:1014E0000895089580E090E00895FC01848DDF0167
:1014F000A80FB11DA35ABF4F2C91848D90E0019687
:101500008F739927848FA689B7892C93A089B18975
:101510008C9180648C93938D848D981306C002887F
:10152000F389E02D80818F7D80830895833081F061
:1015300028F4813099F08230A1F008958730A9F025
:101540008830B9F08430D1F4809180008F7D03C061
:10155000809180008F7780938000089584B58F7785
:1015600002C084B58F7D84BD08958091B0008F77CF
:1015700003C08091B0008F7D8093B00008951F93C9
:10158000CF93DF93282F30E0F901E055FD4F849190
:10159000F901E451FC4FD491F901E852FC4FC49198
:1015A000CC23C9F0162F81110E94960AEC2FF0E08F
:1015B000EE0FFF1FEC53FC4FA591B4918FB7F89439
:1015C000111105C09C91ED2FE095E92302C0EC912B
:1015D000ED2BEC938FBFDF91CF911F910895CF93A7
:1015E000DF9390E0FC01E451FC4F2491FC01E852B0
:1015F000FC4F8491882361F190E0880F991FFC01D2
:10160000E254FE4FC591D491FC01EC53FC4FA591DF
:10161000B491611109C09FB7F89488812095822305
:101620008883EC912E230BC0623061F49FB7F8944D
:101630003881822F809583238883EC912E2B2C93E5
:101640009FBF06C08FB7F894E8812E2B28838FBFE9
:10165000DF91CF9108953FB7F8948091AE049091B7
:10166000AF04A091B004B091B10426B5A89B05C009
:101670002F3F19F00196A11DB11D3FBFBA2FA92F11
:10168000982F8827820F911DA11DB11DBC01CD018E
:1016900043E0660F771F881F991F4A95D1F7089579
:1016A0002FB7F8946091AA047091AB048091AC04B8
:1016B0009091AD042FBF08951F920F920FB60F9215
:1016C00011242F933F938F939F93AF93BF93809158
:1016D000AA049091AB04A091AC04B091AD043091F8
:1016E000A90426E0230F2D3720F40296A11DB11D79
:1016F00005C029E8230F0396A11DB11D2093A9045D
:101700008093AA049093AB04A093AC04B093AD046F
:101710008091AE049091AF04A091B004B091B10457
:101720000196A11DB11D8093AE049093AF04A093C8
:10173000B004B093B104BF91AF919F918F913F914D
:101740002F910F900FBE0F901F90189508958CBD8C
:101750009DBD08951F920F920FB60F9211242F93E3
:101760003F934F935F936F937F938F939F93AF9329
:10177000BF93EF93FF938091B900887F803609F47F
:101780009CC068F5883209F45BC090F4803109F49C
:1017900054C038F4882309F4F6C0883009F44DC0E9
:1017A000F6C0883109F44CC0803209F45DC0EFC046
:1017B000803409F468C048F4803309F455C0883394
:1017C00009F0E5C08093A701D8C0803509F44FC067
:1017D000883509F45DC0883409F0D9C0D6C088398D
:1017E00009F4C7C0A8F4883709F467C038F488360C
:1017F00009F463C0803709F460C0C9C0883809F4AF
:10180000B8C0803909F45FC0803809F0C0C05BC03F
:10181000803B09F486C038F4803A09F466C0883AFF
:1018200009F47FC0B4C0803C09F4A7C0883C09F427
:10183000A4C0883B09F48AC0AAC08091A40110C04A
:101840009091A6018091A501981770F5E091A601ED
:1018500081E08E0F8093A601F0E0ED57FE4F80816E
:101860008093BB0085EC86C08093A7018EC0E09179
:10187000A60181E08E0F8093A6018091BB00F0E06D
:10188000ED57FE4F80839091A6018091A5016EC017
:10189000E091A60181E08E0F8093A6018091BB00AC
:1018A000F0E0ED57FE4F80838091A80181116DC05B
:1018B00081E08093A30184EA61C083E08093A90161
:1018C0001092A804CFCF8091A804803208F051C0B4
:1018D000E091A80481E08E0F8093A8048091BB0062
:1018E000F0E0E857FB4F8083BDCF85EC8093BC00D0
:1018F0001092A9018091A804803230F4E091A804EC
:10190000F0E0E857FB4F10826091A80470E0E0918E
:101910008604F091870488E894E009951092A80461
:1019200036C084E08093A90110928504109284044B
:10193000E0918204F09183040995809184048111DF
:1019400005C081E08093840410926204E0918504D4
:1019500081E08E0F80938504F0E0EE59FB4F80818B
:101960008093BB009091850480918404981708F4BB
:1019700079CF85E88093BC000AC085EC8093BC00D9
:101980001092A90104C01092A7010E944409FF917E
:10199000EF91BF91AF919F918F917F916F915F91E7
:1019A0004F913F912F910F900FBE0F901F90189560
:1019B00020E001972FEF8F3F9207D9F70895CF923C
:1019C000DF92EF92FF920F931F93CF93DF93EC017F
:1019D000898D9A8D009729F421E030E03B832A839A
:1019E00064C0FFB6F89428E030E090E081E0482F32
:1019F000462309F09F5F880F21503109C1F78E8D72
:101A000081119F5FE62E192F1095CE010E94010AC9
:101A1000898D9A8D04960E94D80C88E0C82ED12C0E
:101A200001E0802F8E2139F0E989FA899081888937
:101A3000892B808303C0CE010E94010A898D9A8D73
:101A40000E94D80C000F81E0C81AD10851F78E8D82
:101A5000882339F0E989FA8990818889892B8083E4
:101A600003C0CE010E94010A898D9A8D0E94D80C74
:101A700010FF07C0E989FA8990818889892B8083C2
:101A800003C0CE010E94010A898D9A8D0E94D80C54
:101A9000E989FA8990818889892B8083FFBE8B8DA3
:101AA0009C8D0E94D80C81E090E0DF91CF911F9136
:101AB0000F91FF90EF90DF90CF900895EF92FF92FB
:101AC0000F931F93CF93DF93C091FF01D09100023A
:101AD000209709F443C08B899C890E94D80C88E028
:101AE000E82EF12C10E001E08D899E890E94D80C2F
:101AF000EE85FF8590818D85892311F0102B03C021
:101B0000802F80951823000F81E0E81AF10861F713
:101B10008D899E890E94D80C8F89988D0E94D80C3F
:101B20008091FE012091FD0190E001968F7199272F
:101B300030E08217930779F0E091FE01F0E0EE5B70
:101B4000FB4F10838091FE0190E001968F719927E1
:101B50008093FE0103C08D8D81608D8FDF91CF91C9
:101B60001F910F91FF90EF9008951F920F920FB663
:101B70000F9211242F933F934F935F936F937F9313
:101B80008F939F93AF93BF93EF93FF930E945E0D4C
:101B9000FF91EF91BF91AF919F918F917F916F9145
:101BA0005F914F913F912F910F900FBE0F901F901B
:101BB00018951F920F920FB60F9211242F933F93F7
:101BC0004F935F936F937F938F939F93AF93BF9345
:101BD000EF93FF930E945E0DFF91EF91BF91AF9144
:101BE0009F918F917F916F915F914F913F912F9135
:101BF0000F900FBE0F901F9018951F920F920FB667
:101C00000F9211242F933F934F935F936F937F9382
:101C10008F939F93AF93BF93EF93FF930E945E0DBB
:101C2000FF91EF91BF91AF919F918F917F916F91B4
:101C30005F914F913F912F910F900FBE0F901F908A
:101C40001895CF93DF93C0E0D0E08091D40390E06B
:101C5000C817D907ECF4209761F00197C817D90786
:101C600041F081E02091D2033091D303C217D30712
:101C700009F480E0FE01E25EFC4F60818093F30393
:101C800085ED93E00E94DF0C1092F3032196DDCFE7
:101C9000DF91CF910895CF93DF93CDB7DEB7A297B1
:101CA0000FB6F894DEBF0FBECDBF789484B58260C6
:101CB00084BD84B5816084BD85B5826085BD85B5F0
:101CC000816085BD80916E00816080936E0010926E
:101CD00081008091810082608093810080918100E9
:101CE000816080938100809180008160809380007A
:101CF0008091B10084608093B1008091B0008160D8
:101D00008093B00080917A00846080937A00809103
:101D10007A00826080937A0080917A008E7F80932F
:101D20007A0080917A00806880937A001092C100D6
:101D3000E0911102F091120282E08083E0910D02A5
:101D4000F0910E021082E0910F02F091100287E6EE
:101D5000808310921902E0911502F091160286E03C
:101D60008083E0911302F09114028081806180836E
:101D7000E0911302F0911402808188608083E091E9
:101D80001302F0911402808180688083E091130235
:101D9000F091140280818F7D80831092000161E0B8
:101DA0008DE00E94EF0A61E08DE00E94BF0A61E0D1
:101DB00083E00E94EF0A1092F1031092F003109258
:101DC000EF031092EE031092ED031092EC031092C9
:101DD000EB031092EA031092E9031092E8038AEEF3
:101DE00090E020E030E0FC014591559165917491BF
:101DF000443E55426105710509F034C04EE0429FF2
:101E0000C001439F900D1124FC01E251FF4F259129
:101E100034913093E9032093E803FC01E051FF4F34
:101E2000259134913093EB032093EA03FC01EE50AB
:101E3000FF4F259134913093ED032093EC03FC0187
:101E4000EC50FF4F259134913093EF032093EE0334
:101E5000FC01EA50FF4F859194919093F103809398
:101E6000F00307C02F5F3F4F0E962F30310509F06A
:101E7000BACF8091EC039091ED03892B09F446C011
:101E80009091E1039631E0F520916800983050F090
:101E900031E09E3008F430E081E001C0880F3A95CF
:101EA000EAF701C084E0822B80936800983038F014
:101EB0009E3040F0963148F4ECE6F0E008C0EDE6E4
:101EC000F0E005C0EBE6F0E002C0E0E0F0E04081C9
:101ED000983030F481E001C0880F9A95EAF70EC07F
:101EE000292F30E09E3018F42850310902C02E50BE
:101EF000310981E001C0880F2A95EAF7842B80839D
:101F00008091EE039091EF030E94D80C0E9455033C
:101F100066EE71E085EF91E00E94460482EE91E06A
:101F20009093AD028093AC028CEB91E09093CD0244
:101F30008093CC028091AA029091AB029C012F5F0A
:101F40003F4FF901EE0FFF1FE455FD4F49ED51E002
:101F500051834083FC01EE0FFF1FE253FD4F47ED1D
:101F600051E051834083FC01EE0FFF1FE250FD4F13
:101F700011821082F901E451FD4F10822E5F3F4F14
:101F8000F901EE0FFF1FE655FD4F4BEC51E0518379
:101F90004083FC01EE0FFF1FE053FD4F48EC51E082
:101FA00051834083FC01EE0FFF1FE050FD4F118273
:101FB0001082FC01E251FD4F10823093AB0220935E
:101FC000AA0283E491E09093FF028093FE021092B4
:101FD000ED028BE591E09093010380930003109252
:101FE000EE0286E78093F4038091FD038F3F41F575
:101FF0001092AB011092AA0110926001109282011E
:102000001092A90181E08093A8011092A30161E0E0
:1020100082E10E94BF0A61E083E10E94BF0A8091D1
:10202000B9008E7F8093B9008091B9008D7F809335
:10203000B90080E28093B80085E48093BC004EC074
:1020400061E00E94BF0A61E08091FD030E94EF0AF7
:10205000809100048F3F09F034C01FB7F89480913D
:102060003A01811127C0E2EEF3E08491E6EFF3E05C
:102070009491E82FF0E0EE0FFF1FE254FE4FA59180
:10208000B491EC91E92321F461E08AE00E94BF0A57
:1020900061E08AE00E94EF0A8CB580618CBD8CB54E
:1020A00080648CBD61E08DE00E94EF0A61E08BE00E
:1020B0000E94EF0A80913A018F5F80933A011FBF1F
:1020C0000DC061E00E94EF0A61E08091FE030E9472
:1020D000EF0A60E08091FF030E94EF0A8091FD0308
:1020E0008F3FE9F48091F40391E090935F01809336
:1020F0008101109260011092820160ED8EE992E000
:102100000E94D2090E94680761E08091F4030E9456
:102110001D078EE992E00E948609182F1FC080914A
:1021200000048F3F21F481E590E00E94A70B60E05E
:102130008091FD030E94BF0A80ED0E94BD0680E0F1
:102140000E94BD06182F61E08091FD030E94BF0A26
:10215000809100048F3F11F40E94A60B183509F0FE
:102160008EC088E80E94C507909302048093010402
:102170008AE80E94C50790930404809303048CE8C6
:102180000E94C50790930604809305048EE80E9480
:10219000C507909308048093070480E90E94C5074F
:1021A00090930A048093090482E90E94C5079093E2
:1021B0000C0480930B0484E90E94C50790930E04DD
:1021C00080930D0486E90E94C507909310048093C4
:1021D0000F0488E90E94C5079093120480931104AC
:1021E0008AE90E94C50790931404809313048CE934
:1021F0000E94C50790931604809315048EE90E94EF
:10220000C50790931804809317048091FD038F3FB6
:10221000C1F48091F40391E090935F018093810178
:10222000109260011092820164EF8EE992E00E94A8
:10223000D2096FE38EE992E00E94D2090E946807FA
:102240001EC0809100048F3F21F481E590E00E9440
:10225000A70B60E08091FD030E94BF0A84E70E9403
:10226000BD068FE30E94BD0661E08091FD030E94E0
:10227000BF0A809100048F3F11F40E94A60B1092B8
:1022800046011092450110924801109247011092A8
:102290004A011092490110924C0110924B01109288
:1022A0004E0110924D011092500110924F0181E0A9
:1022B0000E94AF040E94210E0E942B0B4B015C0177
:1022C00054E1C52ED12CE12CF12C0E942B0BDC010A
:1022D000CB0188199909AA09BB09883E9340A10539
:1022E000B10558F0F1E0CF1AD108E108F10828EE65
:1022F000820E23E0921EA11CB11CC114D104E10482
:10230000F10419F78091CC018111D1CF60E08DE00B
:102310000E94BF0A0E94A70887EF0E9421086A8FC7
:102320007B8F8C8F9D8F8091F9039091FA03A09100
:10233000FB03B091FC036C017D01FF0CCC08DC2C8D
:1023400076019C01AD016C2D7C2D8C2D9C2D345F74
:102350004140510961097109810991092AA339A3F1
:1023600049835A836B837C838D839E8359016A01E1
:102370007B018C010E940C1B2A8B3B8B4C8B5D8B51
:102380006E8B7F8B888F998F409111044E8F509167
:1023900012045F8380910F048F8F909110049887AF
:1023A000E0910D04E8A3F0910E04F987B0900A04BF
:1023B000A09009041B2D110F110BC12ED12EE12E5F
:1023C000F12E012F2AA139A149815A816B817C818B
:1023D0008D819E810E940C1B0CE00E943C1C190107
:1023E0002A013B014C01B0900C04A0900B041B2D62
:1023F000110F110BC12ED12EE12EF12E012F2A89A2
:102400003B894C895D896E897F89888D998D0E9471
:102410000C1B08E00E94551C5101620173018401EC
:102420000E94731C70588F4F9F4FA0900704B0906C
:102430000804C12CD12CE12CF12C00E010E00E940A
:102440000C1B01E20E94551C2A873B874C875D8745
:102450006E877F87888B998BA0E00E94851C09F48A
:1024600064C1AE8C1F81110F110BBF80C12ED12E04
:10247000E12EF12E012F2A893B894C895D896E89D5
:102480007F89888D998D0E940C1B19012A013B01BF
:102490004C01AF8C1885110F110BB884C12ED12EB1
:1024A000E12EF12E012F2AA139A149815A816B8198
:1024B0007C818D819E810E940C1B01E10E943C1C4D
:1024C00059016A017B018C019101A201B301C40190
:1024D0000E94731C19012A013B014C018A8D9B8DBE
:1024E000AC8DBD8D24E0B595A795979587952A95D8
:1024F000D1F720E030E040E150E0281B390B4A0BD7
:102500005B0BDA01C90169017A01FF0CCC08DC2CF4
:1025100076019C01AD016C2D7C2D8C2D9C2D0FE145
:102520000E943C1CF901B42FA52F6C837D83898305
:102530009A8328A19985990F990B3985492F592F8D
:10254000692F792F892F03E20E943C1C59016A01EF
:102550007B018C019101A201B301C4010E94731C93
:1025600059016A017B018C019F014B2F5A2F6C810D
:102570007D8189819A810E947C1C4901542E652E9F
:10258000B62FA72FF82FE92F03E00E943C1C54011F
:10259000C52CD62CEB2EFA2E0F2F1E2F0E947C1C42
:1025A00059016A017B01782E192F03E00E943C1C1F
:1025B000072D0E947C1C03E00E943C1C5401C52C8A
:1025C000D62CEB2EFA2E0F2F1E2F0E947C1C02E021
:1025D0000E943C1C0F2F0E947C1C01E00E943C1CAE
:1025E0000F2F0E947C1CAA84BB84CC84DD84EE84E3
:1025F000FF84088919890E94671B2F83232E498332
:102600005A836B837C838D839E830DE00E94551CCF
:10261000322E432E542E652E762E872E982E988796
:102620003091180420911704932F990F990BA32C24
:10263000B42CC52CD62CE72CF82C092D1885492F45
:10264000592F692F792F892F0E940C1B0E940C1B78
:1026500009E10E94551C59016A017B018C012F81FF
:10266000322D49815A816B817C818D819E810E94AE
:10267000731C322E432E542E652E762E872E982EC6
:1026800098873091160420911504932F990F990B78
:10269000AF80B22CC980DA80EB80FC800D811E8176
:1026A000492F592F692F792F892F0E940C1B03E185
:1026B0000E94551C59016A017B018C01232D342D88
:1026C000452D562D672D782D892D98850E94731CD8
:1026D00008E00E94551C49013A01B62FA72FF82F98
:1026E000E92F3091140420911304932F990F990B23
:1026F000492F592F692F792F892F04E00E943C1C04
:1027000059016A017B018C019401A3016B2F7A2F7F
:102710008F2F9E2F0E94731C0E94D81720E030E05C
:1027200040E85BE30E94E31803C060E070E0CB0187
:1027300020E030E048EC52E40E94301720E030E521
:102740004DE754E40E94301721E03EED42E45EE3A1
:102750000E9450199B01AC0160E070E080E89FE3AB
:102760000E94BE1620E03AE24DE257E40E94E318D0
:102770000E94A2176B017C0170935E0160935D0162
:102780000E94A7080E94A21770935C0160935B01EE
:102790002091590130915A012617370724F470937C
:1027A0005A01609359012091570130915801243109
:1027B000310521F4D0925601C0925501409151014A
:1027C00050915201FA01EE0FFF1FEB5BFE4F80911B
:1027D00053019091540160817181861B970BD182C6
:1027E000C0828C0D9D1D90935401809353014F5FC7
:1027F0005F4F463051052CF45093520140935101E4
:1028000004C0109252011092510166E070E00E94E3
:10281000E51A8091550190915601681B790B7093D0
:102820004401609343012531310554F42F5F3F4F3C
:1028300030935801209357011092440110924301A4
:1028400080914301909144012091410130914201D6
:10285000281739075CF42091570130915801253130
:10286000310524F090934201809341010E94500B66
:102870000E94210E0E94500B4B015C0160E083E03E
:102880000E94EF0A62E084E00E94EF0A0E94550372
:1028900085ED93E00E94270A85ED93E00E94360AB9
:1028A000892B61F40E94500BDC01CB018819990936
:1028B000AA09BB090697A105B10570F385ED93E060
:1028C0000E94360A181619060CF05BC085ED93E0DD
:1028D0000E944D0A20910101309102012817390709
:1028E00009F44FC0909302018093010120913F01B0
:1028F00030914001803B910579F1803E910521F0B6
:1029000080379105F1F511C025303105D1F12F5FE8
:102910003F4F3093400120933F012430310589F52A
:102920001092400110923F012CC02530310549F131
:102930002336310539F441E050E050934001409393
:102940003F011FC0215031093093400120933F01C6
:10295000263031052CF715C02330310591F4D09283
:102960005601C092550110924201109241011092FD
:102970005A011092590183E690E0909340018093B0
:102980003F0180913F01909140018530910509F40C
:10299000BFC010923E0110923D018230910509F4B2
:1029A00063C00CF047C0009709F459C0019709F0C3
:1029B000B5C01092DD011092CD0166E872E08DED98
:1029C00091E00E9477161092ED01609143017091A1
:1029D0004401072E000C880B990B0E94E0170E94FF
:1029E00072036DEE71E08DED91E00E94BF1C64E812
:1029F00072E08DED91E00E9477166CE772E08DEC4D
:102A000091E00E9477161092ED0160915B01709148
:102A10005C01072E000C880B990B0E94E0170E94A6
:102A200072036DEE71E08DEC91E00E94BF1C69E7CE
:102A300072E067C08330910509F457C08336910571
:102A400009F06CC01092DD011092CD0164E372E0D8
:102A50008DED91E00E94771664E272E052C061E968
:102A600072E080EA92E058C01092DD011092CD0130
:102A70006FE672E08DED91E00E9477161092ED0105
:102A80006091410170914201072E000C880B990B57
:102A90000E94E0170E9472036DEE71E08DED91E0EF
:102AA0000E94BF1C6DE672E08DED91E00E947716EA
:102AB00062E672E08DEC91E00E9477161092ED01D3
:102AC0006091590170915A01072E000C880B990BE7
:102AD0000E94E0170E9472036DEE71E08DEC91E0B0
:102AE0000E94BF1C6FE572E00CC01092DD011092D5
:102AF000CD016FE472E08DED91E00E94771664E401
:102B000072E08DEC91E00E9477160E94740406C07A
:102B100065E072E084E192E00E94460480913B010E
:102B200090913C01019690933C0180933B01059765
:102B300044F081E00E94AF0410923C0110923B01EE
:102B400003C080E00E94AF040E94500B61E084E06B
:102B50000E94EF0A0E943A09DDCBCF93DF93E1E0B8
:102B6000F2E01382128248EE53E060E070E04483AA
:102B700055836683778388E091E09183808385EC39
:102B800090E09587848784EC90E09787868780EC37
:102B900090E0918B808B81EC90E0938B828B82EC28
:102BA00090E0958B848B86EC90E0978B868B118ED2
:102BB000128E138E148EEEE9F2E013821282448399
:102BC0005583668377838AE191E091838083E4EF84
:102BD000F3E08FEF8187828783878487C5EDD3E019
:102BE0001B821A824C835D836E837F838CE291E02B
:102BF000998388831C8A1B8A1E8A1D8A188E1F8AC5
:102C00001A8E198E1C8E1B8EE2EFF3E080818E7F70
:102C1000808361E084E00E94EF0A61E084E00E942A
:102C2000BF0AE0EFF3E0E491E88BECEDF3E0E49130
:102C3000F0E0EE0FFF1FEC53FC4F859194919A8BBF
:102C4000898B62E083E00E94EF0A83E08C87EFEEDD
:102C5000F3E0E491ED87EBEDF3E0E491F0E0EE0FCB
:102C6000FF1FE253FC4F859194919F878E871092AE
:102C70001C031092AB021092AA021092D40310927D
:102C80001D03DF91CF9108958CE291E09093D603DC
:102C90008093D5032091E103263140F5283028F0B8
:102CA0002E3030F0ECE6F0E005C0EDE6F0E002C0DA
:102CB000EBE6F0E03081283038F481E090E001C0AC
:102CC000880F2A95EAF70FC0422F50E02E3018F4F3
:102CD0004850510902C04E50510981E090E001C0B6
:102CE000880F4A95EAF78095832380830895FB0136
:102CF000DC010D900020E9F7119705900D9200205E
:102D0000E1F70895FB01DC0105900D920020E1F749
:102D10000895BB274A3031F4992322F4BDE29095FF
:102D200081959F4F0C949516BB27FB015527AA2729
:102D3000880F991FAA1FA41710F0A41B8395505148
:102D4000B9F7A05DAA3308F0A95DA193009779F7C0
:102D5000B111B1931192CB010C94AE16DC01FC01C0
:102D6000672F71917723E1F7329704C07C916D93BF
:102D700070836291AE17BF07C8F308955058BB2700
:102D8000AA270E94D6160C94A4180E94961838F010
:102D90000E949D1820F039F49F3F19F426F40C94FA
:102DA00083180EF4E095E7FB0C947D18E92F0E9440
:102DB000B51858F3BA17620773078407950720F010
:102DC00079F4A6F50C94D7180EF4E0950B2EBA2FD3
:102DD000A02D0B01B90190010C01CA01A001112421
:102DE000FF27591B99F0593F50F4503E68F11A16CD
:102DF000F040A22F232F342F4427585FF3CF46955E
:102E000037952795A795F0405395C9F77EF41F167F
:102E1000BA0B620B730B840BBAF09150A1F0FF0F49
:102E2000BB1F661F771F881FC2F70EC0BA0F621F35
:102E3000731F841F48F4879577956795B795F79525
:102E40009E3F08F0B0CF9395880F08F09927EE0FBA
:102E50009795879508950E94591808F481E0089580
:102E60000E9444170C94A4180E949D1858F00E94C8
:102E7000961840F029F45F3F29F00C947D18511109
:102E80000C94D8180C9483180E94B51868F39923F1
:102E9000B1F3552391F3951B550BBB27AA27621756
:102EA0007307840738F09F5F5F4F220F331F441F63
:102EB000AA1FA9F335D00E2E3AF0E0E832D0915097
:102EC0005040E695001CCAF72BD0FE2F29D0660F84
:102ED000771F881FBB1F261737074807AB07B0E8C7
:102EE00009F0BB0B802DBF01FF2793585F4F3AF0CD
:102EF0009E3F510578F00C947D180C94D8185F3FD4
:102F0000E4F3983ED4F3869577956795B795F79552
:102F10009F5FC9F7880F911D9695879597F908953A
:102F2000E1E0660F771F881FBB1F621773078407D6
:102F3000BA0720F0621B730B840BBA0BEE1F88F7E5
:102F4000E09508950E94A9176894B1110C94D818BF
:102F500008950E94BD1888F09F5798F0B92F9927BF
:102F6000B751B0F0E1F0660F771F881F991F1AF074
:102F7000BA95C9F714C0B13091F00E94D718B1E0EA
:102F800008950C94D718672F782F8827B85F39F0E9
:102F9000B93FCCF3869577956795B395D9F73EF40D
:102FA00090958095709561957F4F8F4F9F4F0895B5
:102FB00097FB16F40E9486180C941C18E89409C01C
:102FC00097FB3EF490958095709561957F4F8F4F5C
:102FD0009F4F9923A9F0F92F96E9BB279395F69572
:102FE000879577956795B795F111F8CFFAF4BB0FF0
:102FF00011F460FF1BC06F5F7F4F8F4F9F4F16C054
:10300000882311F096E911C0772321F09EE8872FDD
:10301000762F05C0662371F096E8862F70E060E099
:103020002AF09A95660F771F881FDAF7880F969512
:10303000879597F90895E894F92F96EBFF2381F08F
:10304000121613061406440B9395F69587957795FB
:10305000679557954040FF23B9F71BC099270895FE
:10306000882351F49850D2F7872B762F652F542F51
:10307000432F322F20E0B1F3121613061406440B2F
:1030800088233AF09A95440F551F661F771F881FB3
:10309000CAF755234AF4440F551F11F460FF04C0CA
:1030A0006F5F7F4F8F4F9F4F880F9695879597F94A
:1030B0000895990F0008550FAA0BE0E8FEEF1616C9
:1030C0001706E807F907C0F012161306E407F5071C
:1030D00098F0621B730B840B950B39F40A2661F090
:1030E000232B242B252B21F408950A2609F4A14033
:1030F000A6958FEF811D811D089597F99F6780E840
:1031000070E060E008959FEF80EC089590958095C1
:103110007095609550954095309521953F4F4F4F54
:103120005F4F6F4F7F4F8F4F9F4F089500240A943A
:103130001616170618060906089500240A94121692
:103140001306140605060895092E0394000C11F4C5
:10315000882352F0BB0F40F4BF2B11F460FF04C072
:103160006F5F7F4F8F4F9F4F089557FD9058440FCB
:10317000551F59F05F3F71F04795880F97FB991FD6
:1031800061F09F3F79F08795089512161306140693
:10319000551FF2CF4695F1DF08C016161706180620
:1031A000991FF1CF86957105610508940895E894FB
:1031B000BB2766277727CB0197F908950E945918F6
:1031C00008F48FEF08950E94F6180C94A4180E943A
:1031D000961838F00E949D1820F0952311F00C9459
:1031E0007D180C94831811240C94D8180E94B518DB
:1031F00070F3959FC1F3950F50E0551F629FF0014A
:10320000729FBB27F00DB11D639FAA27F00DB11D62
:10321000AA1F649F6627B00DA11D661F829F2227EB
:10322000B00DA11D621F739FB00DA11D621F839F72
:10323000A00D611D221F749F3327A00D611D231F48
:10324000849F600D211D822F762F6A2F11249F5796
:1032500050409AF0F1F088234AF0EE0FFF1FBB1F99
:10326000661F771F881F91505040A9F79E3F510558
:1032700080F00C947D180C94D8185F3FE4F3983ECE
:10328000D4F3869577956795B795F795E7959F5F02
:10329000C1F7FE2B880F911D9695879597F9089594
:1032A000FA01EE0FFF1F309621053105A1F16115DE
:1032B000710561F48038BFE39B0749F16894903849
:1032C000810561F08038BFEF9B0741F099234AF5F3
:1032D000FF3FE1053105210519F1E8940894E795D0
:1032E000D901AA2329F4AB2FBE2FF85FD0F310C069
:1032F000FF5F70F4A695E0F7F73950F019F0FF3A48
:1033000038F49F779F930DD00F9007FC9058089545
:1033100046F00C94831860E070E080E89FE3089525
:103320004FE79F775F934F933F932F930E944B1AE2
:103330002F913F914F915F910E94E3180C94A8192F
:1033400029F416F00C947D180C94D7180C9483185B
:103350000E94BD18A8F39638A0F707F80F92E894DA
:103360002BE33AEA48EB5FE70E94F9180F920F92BD
:103370000F924DB75EB70F920E94931AE8E6F0E005
:103380000E94DA194F915F91EF91FF91E595EE1F41
:10339000FF1F49F0FE57E0684427EE0F441FFA95DF
:1033A000E1F74195550B0E940D1A0F9007FE0C9402
:1033B000011A0895DF93CF931F930F93FF92EF921B
:1033C000DF927B018C01689406C0DA2EEF010E9427
:1033D000F618FE01E894A5912591359145915591F6
:1033E000A6F3EF010E94D616FE019701A801DA9418
:1033F00069F7DF90EF90FF900F911F91CF91DF91D0
:1034000008959B01AC0160E070E080E89FE30C94BC
:1034100030170C947D180C94C71A0E94BD18D8F36D
:103420009923C9F3940F511DA3F39150504094F088
:1034300059F0882332F0660F771F881F9150504053
:10344000C1F79E3F51052CF7880F911D96958795E2
:1034500097F908955F3FACF0983E9CF0BB278695A6
:1034600077956795B79508F4B1609395C1F7BB0F51
:1034700058F711F460FFE8CF6F5F7F4F8F4F9F4F7A
:10348000E3CF0C94D81816F00C94C71A0C94831838
:1034900068940C947D180E94BD18A8F39923C1F379
:1034A000AEF3DF93CF931F930F93FF92C92FDD27C6
:1034B00088232AF02197660F771F881FDAF720E00C
:1034C00030E040E85FEB9FE3883920F0803E38F041
:1034D00021968F770E94BF16E0E9F0E004C00E94B9
:1034E000BF16EDEBF0E00E94DA198B01BE01EC0192
:1034F000FB2E6F5771097595771F880B990B0E94EA
:10350000E01728E132E741E35FE30E94F618AF2DB0
:103510009801AE01FF900F911F91CF91DF910E9412
:10352000D6160C94A418FA01DC01AA0FBB1F9B014C
:10353000AC01BF5728F4222733274427507820C0F6
:10354000B75190F4AB2F0024469537952795011C71
:10355000A395D2F3002071F0220F331F441FB395BF
:10356000DAF30ED00C94BE1661307105A0E88A071C
:10357000B94630F49B01AC016627772788279078FD
:10358000309621F0208331834283538308959F3FF7
:1035900031F0915020F4879577956795B795880F0E
:1035A000911D9695879597F90895DB018F939F93C9
:1035B0000E94F91ABF91AF91A29F800D911DA39F08
:1035C000900DB29F900D1124089597FB072E16F4CD
:1035D000009407D077FD09D00E94911C07FC05D00C
:1035E0003EF4909581959F4F0895709561957F4F1A
:1035F00008950E94AB1CA59F900DB49F900DA49FB1
:10360000800D911D11240895B7FF0C94F91A0E94A2
:10361000F91A821B930B0895DF93CF931F930F9397
:103620009A9DF02D219FF00D8B9DF00D8A9DE02D30
:10363000F10D039FF00D029FE00DF11D4E9DE00D79
:10364000F11D5E9DF00D4F9DF00D7F936F93BF9226
:10365000AF925F934F93D5010E94AB1C8B01AC01DD
:10366000D7010E94AB1CEB01E80FF91FD6010E94A5
:103670005C1B2F913F91D6010E94AB1CC60FD71F38
:10368000E81FF91FAF91BF910E945C1B2F913F91E2
:103690000E94AB1CC60FD71FE81FF91FD6010E945E
:1036A000AB1CE60FF71F9801BE01CF0111240F914B
:1036B0001F91CF91DF9108950E94AB1C460F571FB9
:1036C000C81FD91F08F431960895689401C0E89482
:1036D000F92FF12B12F00C94991BA0E0B0E0E3E776
:1036E000FBE10C940B1C092E059422F40E94F51B9F
:1036F000112392F4F0E80F26FFEFE094F094009588
:103700001095B094C094D094A194BF0ACF0ADF0A58
:10371000EF0AFF0A0F0B1F0B0E94A41B07FC0E945D
:10372000F51BCDB7DEB7ECE00C94271C689401C004
:10373000E8948F929F92CF93DF930E94A41BDF9116
:10374000CF919F908F90089588249924F401E401EB
:10375000B0E49F93AA279A158B049C04ED05FE05FF
:10376000CF05D007A10798F4AD2FDC2FCF2FFE2F68
:10377000E92D982C892E982F872F762F652F542F7F
:10378000432F322F2227B85031F7BF9127C01B2E6D
:10379000BF91BB27220F331F441F551F661F771F82
:1037A000881F991F881C991CEE1FFF1FCC1FDD1F4F
:1037B000AA1FBB1F8A149B04EC05FD05CE05DF057F
:1037C000A007B10748F08A189B08EC09FD09CE094B
:1037D000DF09A00BB10B21601A94E1F62EF49401DD
:1037E000AF01BE01CD01000C0895609570958095E4
:1037F000909530954095509521953F4F4F4F5F4F95
:103800006F4F7F4F8F4F9F4F08952F923F924F9250
:103810005F926F927F928F929F92AF92BF92CF9260
:10382000DF92EF92FF920F931F93CF93DF93CDB769
:10383000DEB7CA1BDB0B0FB6F894DEBF0FBECDBFE1
:1038400009942A88398848885F846E847D848C84B2
:103850009B84AA84B984C884DF80EE80FD800C81BB
:103860001B81AA81B981CE0FD11D0FB6F894DEBF9E
:103870000FBECDBFED0108950F93083090F0982F43
:10388000872F762F652F542F432F322F2227085052
:10389000F4CF220F331F441F551F661F771F881F49
:1038A000991F0A95B2F70F91089597FB10F8169497
:1038B00000080F93083098F00850232F342F452F1D
:1038C000562F672F782F892F902DF4CF0594979539
:1038D00087957795679557954795379527950A95D5
:1038E000AAF70F9108952A0D3B1D4C1D5D1D6E1DFD
:1038F0007F1D801F911F08952A193B094C095D09FE
:103900006E097F09800B910B08950024A7FD009498
:103910002A173005400550056005700580059005A3
:103920000895AA1BBB1B51E107C0AA1FBB1FA61706
:10393000B70710F0A61BB70B881F991F5A95A9F758
:1039400080959095BC01CD010895EE0FFF1F059065
:10395000F491E02D0994A29FB001B39FC001A39FF1
:10396000700D811D1124911DB29F700D811D1124B8
:10397000911D089581E090E0F8940C94CA1CFB011D
:10398000DC010D900020E9F7119701900D920020C5
:10399000E1F7089512E0C1E0D2E004C0FE010E9408
:0E39A000A51C2196C230D107C9F7F894FFCFBD
:1039AE0001F000060000000094022C025702DB0218
:1039BE002E0966027A0200000000D209A209720ADC
:1039CE0076099A098609770900000000DF0C2C029F
:0A39DE00720A270A360A4D0A0D0A84
:00000001FF
