:100000000C94D8010C9400020C9400020C94850D01
:100010000C94610D0C943D0D0C9400020C940002A4
:100020000C9400020C9400020C9400020C94000248
:100030000C9400020C9400020C9400020C94000238
:100040000C94E40A0C9400020C9421030C94FB021F
:100050000C9400020C9400020C9400020C94000218
:100060000C94320B0C94000207634236B79BD8A75E
:100070001A39685618AEBAAB558C1D3CB7CC5763CD
:10008000BD6DEDFD753EF6177231BF000000803F7B
:1000900008000000BE922449123EABAAAA2ABECD97
:1000A000CCCC4C3E00000080BEABAAAAAA3E000009
:1000B0000000BF000000803F000000000008417801
:1000C000D3BB4387D1133D190E3CC3BD4282AD2B38
:1000D0003E68EC8276BED98FE1A93E4C80EFFFBE30
:1000E00001C4FF7F3F000000000000C201000100CA
:1000F000050005000300030000E1000001000F00FF
:100100000F000D000D0000960000020019001A00FB
:1001100017001700127A00000700200021001D00C0
:100120001D00807000000B00230023002000200031
:10013000004B000014003700370034003400403812
:1001400000001E004B004B004800480048260000FD
:100150003100710071006F006F00E4250000310074
:10016000710071006F006F00802500003200720086
:10017000720070007000C01200006E00E900E9001B
:10018000E600E60060090000E500D801D801D501CD
:10019000D501B0040000D301B403B403B103B1032B
:1001A00058020000B40367076707620762072C0163
:1001B00000006707DD0EDD0EDA0EDA0E200000000B
:1001C0000000240027002A00B0430054656D7065CC
:1001D000726174757265006D00416C746974756448
:1001E000650052435400204A65746920416C744D87
:1001F000657465720020524354204A657469205426
:100200006F6F6C7300B0430054656D702E3A200020
:100210006D00416C7469747564653A2000204A650C
:10022000746920416C744D657465720020524354AA
:10023000204A65746920546F6F6C7300204A65749E
:100240006920416C744D65746572002052435420DE
:100250004A65746920546F6F6C73000000000800D9
:10026000020100000304070000000000000000007D
:10027000070E091C1B1215383F363124232A2D7016
:10028000777E796C6B6265484F464154535A5DE006
:10029000E7EEE9FCFBF2F5D8DFD6D1C4C3CACD90B6
:1002A000979E998C8B8285A8AFA6A1B4B3BABDC71F
:1002B000C0C9CEDBDCD5D2FFF8F1F6E3E4EDEAB756
:1002C000B0B9BEABACA5A28F88818693949D9A27C6
:1002D00020292E3B3C35321F18111603040D0A57F6
:1002E00050595E4B4C45426F68616673747D7A89E4
:1002F0008E878095929B9CB1B6BFB8ADAAA3A4F996
:10030000FEF7F0E5E2EBECC1C6CFC8DDDAD3D46985
:100310006E676075727B7C51565F584D4A43441935
:100320001E171005020B0C21262F283D3A33344EA0
:1003300049404752555C5B7671787F6A6D64633ED5
:1003400039303722252C2B0601080F1A1D1413AE45
:10035000A9A0A7B2B5BCBB9691989F8A8D8483DE75
:10036000D9D0D7C2C5CCCBE6E1E8EFFAFDF4F30073
:10037000000000250028002B0000000000230026BC
:10038000002900040404040404040402020202021A
:100390000203030303030301020408102040800149
:1003A000020408102001020408102000CC14631578
:1003B00011241FBECFEFD8E0DEBFCDBF11E0A0E01B
:1003C000B1E0ECEEF7E302C005900D92A433B10763
:1003D000D9F724E0A4E3B1E001C01D92A83AB20726
:1003E000E1F711E0C7EDD1E004C02197FE010E94C2
:1003F0006617C63DD107C9F70E94D30D0C94E91BBF
:100400000C940000CF92DF92EF92FF920F931F9314
:10041000CF93DF936C017A018B01C0E0D0E0CE1561
:10042000DF0589F0D8016D918D01D601ED91FC9128
:100430000190F081E02DC6010995892B11F47E0110
:1004400002C02196ECCFC701DF91CF911F910F9190
:10045000FF90EF90DF90CF900895FC01918D828DF9
:10046000981761F0828DDF01A80FB11D5D968C9108
:10047000928D9F5F9F73928F90E008958FEF9FEF13
:100480000895FC01918D828D981731F0828DE80FCF
:10049000F11D858D90E008958FEF9FEF0895FC0189
:1004A000918D228D892F90E0805C9F4F821B910956
:1004B0008F739927089587E192E00E944F0221E00F
:1004C000892B09F420E0822F0895FC01848DDF013F
:1004D000A80FB11DA35ABF4F2C91848D90E00196B7
:1004E0008F739927848FA689B7892C93A089B189A6
:1004F0008C9180648C93938D848D981306C00288B0
:10050000F389E02D80818F7D80830895EF92FF92A3
:100510000F931F93CF93DF93EC0181E0888F9B8D26
:100520008C8D981305C0E889F989808185FD24C0E8
:10053000F62E0B8D10E00F5F1F4F0F731127E02E6B
:100540008C8DE8120CC00FB607FCFACFE889F98948
:10055000808185FFF5CFCE010E946502F1CF8B8DA2
:10056000FE01E80FF11DE35AFF4FF0820B8FEA897D
:10057000FB898081806207C0EE89FF896083E889FA
:10058000F98980818064808381E090E0DF91CF9160
:100590001F910F91FF90EF900895CF93DF93EC019F
:1005A000888D8823C9F0EA89FB89808185FD05C093
:1005B000A889B9898C9186FD0FC00FB607FCF5CFCD
:1005C000808185FFF2CFA889B9898C9185FFEDCF15
:1005D000CE010E946502E7CFDF91CF91089580E0C0
:1005E00090E0892B29F00E945B0281110C9400009D
:1005F00008950E94921B1F920F920FB60F92112422
:100600002F933F934F935F936F937F938F939F931A
:10061000AF93BF93EF93FF9387E192E00E9465024F
:10062000FF91EF91BF91AF919F918F917F916F91CA
:100630005F914F913F912F910F900FBE0F901F90A0
:1006400018951F920F920FB60F9211242F938F932C
:100650009F93EF93FF93E0912702F091280280810E
:10066000E0912D02F0912E0282FD12C090818091C6
:1006700030028F5F8F7320913102821751F0E09129
:100680003002F0E0E95EFD4F958F8093300201C0AB
:100690008081FF91EF919F918F912F910F900FBECD
:1006A0000F901F90189580911502909116028B5E05
:1006B0009340A1F0809108048E7F809308048FB747
:1006C000F89410921402109213022BEE33E0309340
:1006D0001602209315028FBF81E0089580E00895EF
:1006E0002F923F924F925F926F927F928F929F9242
:1006F000AF92BF92CF92DF92EF92FF920F931F9330
:10070000CF93DF9300D000D0CDB7DEB72B013C01F3
:1007100020E030E0A9010E94E81787FF05C020E033
:1007200030E040E05FEB04C020E030E040E05FE319
:10073000C301B2010E947C176B017C0120E030E014
:10074000A901C301B2010E94E81787FF04C0F7FAAC
:10075000F094F7F8F094A12CB12C8DEC282E9CECA1
:10076000392E8CEC8B839DE39C8320E030E040E2CB
:1007700051E4B1018B819C810E94A0194B018C0135
:10078000A70196010E94E81718163CF0AFEFAA1ACD
:10079000BA0A14010B831C83E8CF20E030E0A901E2
:1007A000C301B2010E94E81787FF06C08DE2809363
:1007B000030201E010E002C000E010E0A114B10467
:1007C00039F4F801ED5FFD4F80E380830F5F1F4F29
:1007D000812C912CF401E00FF11FFA83E9838A1434
:1007E0009B04B1F191014B815C81C701B6010E946C
:1007F000ED170E945F182B013C0169817A816D5FC2
:100800007D4F4AE0C2010E94B41BB201550C880B17
:10081000990B0E949D1891014B815C810E94A01947
:100820009B01AC01C701B6010E947B176B017C01E3
:1008300020E030E040E251E4B1018B819C810E94D4
:10084000ED171B018B839C83BFEF8B1A9B0AC2CFD2
:10085000ED5FFD4F108283E092E00F900F900F90BC
:100860000F90DF91CF911F910F91FF90EF90DF904C
:10087000CF90BF90AF909F908F907F906F905F9040
:100880004F903F902F900895A3EEB1E020E040E21A
:1008900050E15A0F21111FC0FC0134913323D9F0CC
:1008A0003C93119601965A13F5CF80E090E020E03A
:1008B00030E2DC01AD51BE4F211110C0FB01E80F49
:1008C000F91FE491EE2351F05096EC93019680319C
:1008D000910579F708954C9321E0E3CF50963C932E
:1008E00021E0F4CF2F923F924F925F926F927F92CE
:1008F0008F929F92AF92BF92CF92DF92EF92FF9230
:100900000F931F93CF93DF93CDB7DEB7A0970FB6AA
:10091000F894DEBF0FBECDBF909132039923C9F08A
:100920002EE72093340322E92093350323E220931A
:1009300036039093370390910301992311F091505E
:1009400003C01092320396E09093030104E010E09C
:1009500002C000E010E090913203911197C19EE730
:10096000909334039FE9909335031092360393E1FB
:100970009093370394EA909338039CEA9093390359
:1009800097E090933A0310923B038111E8C080E412
:1009900080933603709033038090C0029090C10220
:1009A00008E010E0612CD62CD70CED2DF0E0E81516
:1009B000F9050CF0C7C0DF01AA0FBB1FAE5EBC4F2C
:1009C000AD90BC90A114B10409F4B8C0D29430EF3A
:1009D000D322C80180549D4F7C01DC01AC58BF4F2D
:1009E000DC92EE5FFC4FC080CC2021F093E09C15A0
:1009F00090F104C0D5016D917C9130C06C2D70E0F8
:100A000080E090E00E949B189B01AC0160E070E0E8
:100A100080E291E40E940D1AF5012081318142812A
:100A200053810E94A0191B012C0120E030E0A90194
:100A30000E949B1920E030E040E05FE387FD05C0A5
:100A4000C201B1010E947C1704C0C201B1010E9421
:100A50007B170E945F18F3E0FC15B0F0F701EC582B
:100A6000FF4F8D2D816080837F79D12C20E2C29E43
:100A7000D02CCC2411246C297D29319660833196A9
:100A800070830D5F1F4F5AC084E0C81211C0F70178
:100A9000EC58FF4F8D2D846080833196D5018C9169
:100AA0008083319611968C9180833196108219C083
:100AB000B5E0CB1219C0F701EC58FF4F8D2D8560C2
:100AC0008083F5018281F701EB58FF4F8083D501C8
:100AD00011968C9111973196808331968C918F71FC
:100AE00080830C5F1F4F2AC0B9E0CB1227C0F701EB
:100AF000EC58FF4F8D2D89608083F5018381F701CC
:100B0000EB58FF4F8083D50112968C911297319646
:100B1000808311968C911197319680838C91F80186
:100B2000E85CFC4F80838C91853421F08E3421F475
:100B3000108202C0B0E2B0830B5F1F4F6394E6E007
:100B40006E1231CF86E0870D282F30E02815390549
:100B50001CF4809333037BC01092330378C0E09180
:100B6000E201F0E0EE0FFF1FEE53FD4F6081718157
:100B70007E01F1E1EF0EF11CC7010E94AD1BE09177
:100B8000E201F0E0EE0FFF1FEE51FD4F6081718139
:100B90008E010F5F1F4FC8010E94AD1B8091E201C3
:100BA00080933C03F70101900020E9F73197EE199B
:100BB000FF09EE0FEE0FEE0FD8010D900020E9F7C0
:100BC0001197A01BB10BA370EA2BE0933D03D70153
:100BD0002AE030E0F70101900020E9F73197AF01FA
:100BE0004E195F09F901EC58FF4FBD016E197F09DD
:100BF0006417750738F49D91E054FD4F90832F5F83
:100C00003F4FE8CFE054FD4FA801201B310BB90145
:100C1000640F751FD8010D900020E9F71197A01BF4
:100C2000B10B7A01E01AF10AEA16FB0628F4DA01A0
:100C30009D91AD019193EBCF8B018F5F90E060911F
:100C4000C0027091C1020E94A6158093E2018091BA
:100C500036039EEF900F892B8093360322E0E0E06D
:100C6000822F90E0801791075CF4DC01AC5CBC4FF4
:100C70008C91E827F0E0E159FD4FE4912F5FF0CF30
:100C8000D801AC5CBC4FEC930F5F1F4FC801805480
:100C90009D4FFC01EC58FF4F2EEF20831093E9038A
:100CA0000093E803D801AB5CBC4FE3EEF1E020E237
:100CB0002E0F31913D932E13FCCFFC01EB56FF4FCD
:100CC0008FEF80830E5D1F4F0093EA0381E0A096B3
:100CD0000FB6F894DEBF0FBECDBFDF91CF911F914D
:100CE0000F91FF90EF90DF90CF90BF90AF909F90CB
:100CF0008F907F906F905F904F903F902F900895CE
:100D0000CF92DF92EF92FF920F931F93CF93DF93D7
:100D1000909116049F3F39F48EBD00000DB407FE7C
:100D2000FDCF8EB544C0E82EC7E0D0E0D12C01E065
:100D300010E0DD0C60E0809116040E94470AB801C3
:100D40000C2E01C0660F0A94EAF76E2180911404FC
:100D50000E94470A61E0809116040E94470A209190
:100D6000150430E0F901E55AFD4F8491F901E95687
:100D7000FC4FC490F901ED57FC4FF490FF2071F047
:100D800081110E941E0AEF2DF0E0EE0FFF1FE758C1
:100D9000FC4FA591B491EC91EC2129F4219708F036
:100DA000C8CF8D2D04C08D2D8160D82EF7CFDF9157
:100DB000CF911F910F91FF90EF90DF90CF9008950A
:100DC0009091BF019111FCCF613208F060E291E097
:100DD0009093BF019093BE012FEF2093BD0110921D
:100DE000BC01260F2093BB019093BA019091BA01E8
:100DF000880F892B8093BA018091B901813061F409
:100E00001092B9018091BA018093BB008091BC001F
:100E100083FDF8CF85EC01C085EE8093BC00809106
:100E2000BF018130E1F38091BC01861710F460911D
:100E3000BC01A9E9B1E022EC31E0F9018E2F821B5F
:100E4000861718F48D918193F9CF1092C1016093A8
:100E5000C001862F08952091980190919701213229
:100E600008F04AC08091BF018111FCCF32E030937D
:100E7000BF0131E03093BE013FEF3093BD011092CE
:100E8000BC012093BB01A7E7B1E049E951E0FA01B9
:100E90003E2F341B321718F43D913193F9CF109245
:100EA000BA012091BA01990F922B9093BA019091B7
:100EB000B901913061F41092B9019091BA01909307
:100EC000BB009091BC0093FDF8CF95EC01C095EE6E
:100ED0009093BC009091BF019230E1F39091BD01DD
:100EE0009F3F79F08091BD01803241F08091BD013A
:100EF000803331F084E005C081E003C082E001C0AE
:100F000083E0109276011092980110927501089575
:100F1000CF93DF93C82F809113048F3F39F58091D1
:100F20000A0491E0909375018093970110927601E5
:100F3000109298016C2F84EB92E00E947F090E942E
:100F40002B0762E080910A040E94E00684EB92E0A5
:100F50000E943309C82F84EB92E00E94330920E0FD
:100F600030E03C2FE901C82BD92B29C08091160411
:100F70008F3F21F481E590E00E942F0B60E080918B
:100F800013040E94470A8C2F80680E94800680E02C
:100F90000E948006C82F80E00E9480062C2F30E03F
:100FA000322F2227E901C82B61E0809113040E94AF
:100FB000470A809116048F3F11F40E942E0B9C2F3C
:100FC0008D2FDF91CF910895CF92DF92EF92FF9214
:100FD000CF93C82F809113048F3F09F040C08091B8
:100FE0000A0491E090937501809397011092760125
:100FF000109298016C2F84EB92E00E947F090E946E
:101000002B0763E080910A040E94E00684EB92E0E3
:101010000E9433096C01990FEE08FF08FE2CED2C9D
:10102000DC2CCC2484EB92E00E943309AC01990FB4
:10103000660B770BC42AD52AE62AF72AFE2CED2C5C
:10104000DC2CCC2484EB92E00E943309AC01990F94
:10105000660B770BC42AD52AE62AF72A33C080917B
:1010600016048F3F21F481E590E00E942F0B60E091
:10107000809113040E94470A8C2F80680E9480068A
:1010800080E00E948006C82ED12CE12CF12CFE2C91
:10109000ED2CDC2CCC2480E00E948006C82AFE2C9B
:1010A000ED2CDC2CCC2480E00E948006C82A61E074
:1010B000809113040E94470A809116048F3F11F417
:1010C0000E942E0BC701B601CF91FF90EF90DF90E9
:1010D000CF9008958F929F92AF92BF92CF92DF925E
:1010E000EF92FF928AEF0E94E407EAE0F4E0458580
:1010F00056854A01A12CB12CC72ED82EE92EFF24EB
:10110000E7FCFA94C818D908EA08FB08DC01CB010F
:1011100037E0B595A795979587953A95D1F7B5019D
:10112000A401440F551F661F771F4C015D01841AEF
:10113000950AA60AB70AA5019401A785B0890E945D
:10114000C5154B015C013BE0B594A7949794879437
:101150003A95D1F7A7019601C701B6010E949615ED
:101160009B01AC016CE055954795379527956A959D
:10117000D1F7A189B2890E94C515DC01CB017EE0BF
:10118000B595A795979587957A95D1F7A50194017F
:10119000280F391F4A1F5B1F2583368347835087DB
:1011A000A5E0B0E00E94BA15DC01CB0180589F4F4A
:1011B000AF4FBF4F692F7A2F8B2F992787FD9A95B5
:1011C0000E949D1820E030E048EC52E40E94ED17A8
:1011D000FF90EF90DF90CF90BF90AF909F908F9057
:1011E000089585ED8093BC008091BC0084FDFCCF08
:1011F0001092BF01089540917A04262F30E0240F09
:10120000311D21323105DCF42091BF012430C9F4B5
:10121000FC0180E090E0861758F430917A04219127
:10122000DC01A85ABB4FA30FB11D2C930196F3CF3D
:1012300080917A04680F60937A0480E0089581E0D9
:10124000089582E008950895E091C1018091C00160
:10125000E81730F4F0E0EE53FE4F808190E00895FF
:101260008FEF9FEF08959091C1018091C001981771
:1012700050F4E92FF0E0EE53FE4F208130E09F5F05
:101280009093C10102C02FEF3FEFC90108958091F3
:10129000C00190E02091C101821B91090895CF9275
:1012A000DF92EF92FF920F931F93CF93DF937C0116
:1012B000262F972F8A0180917501882391F0C62FE0
:1012C000D72F6E01C40ED51ECC15DD0571F06991C6
:1012D000D701ED91FC910190F081E02DC7010995B6
:1012E000F3CF642F822F0E94FB08C801DF91CF91BA
:1012F0001F910F91FF90EF90DF90CF900895CF93C3
:10130000DF931F92CDB7DEB7698320917501222349
:10131000D1F020919801203240F021E030E0FC0132
:101320003383228380E090E015C080917601E82F1E
:10133000F0E0E958FE4F998190838F5F80937601AA
:101340008093980105C061E0CE0101960E94FB08E0
:1013500081E090E00F90DF91CF910895DC015196EC
:10136000ED91FC915297908150968C9180958923B4
:1013700080830895209115023091160228173907AD
:1013800081F49091130280911402981751F0E0912A
:101390001302F0E0E85CFB4F8081082E000C990BF3
:1013A00008958FEF9FEF0895209115023091160256
:1013B0002817390739F48FB7F89410921402109255
:1013C00013028FBF0895209115023091160228173D
:1013D000390769F4809114022091130290E08096FD
:1013E000821B910960E270E00E94A61508958FEFBC
:1013F0009FEF0895209115023091160228173907A2
:10140000B9F490911302809114029817A1F0E09121
:101410001302F0E0E85CFB4F80812091130230E082
:101420002F5F3F4F2F7133272093130290E00895D1
:101430008FEF9FEF08958EEF9FEF0895833081F037
:1014400028F4813099F08230A1F008958730A9F016
:101450008830B9F08430D1F4809180008F7D03C052
:10146000809180008F7780938000089584B58F7776
:1014700002C084B58F7D84BD08958091B0008F77C0
:1014800003C08091B0008F7D8093B00008951F93BA
:10149000CF93DF93282F30E0F901E55AFD4F849177
:1014A000F901E956FC4FD491F901ED57FC4FC49175
:1014B000CC23C9F0162F81110E941E0AEC2FF0E0F8
:1014C000EE0FFF1FE159FC4FA591B4918FB7F8942F
:1014D000111105C09C91ED2FE095E92302C0EC911C
:1014E000ED2BEC938FBFDF91CF911F910895CF9398
:1014F000DF9390E0FC01E956FC4F2491FC01ED578D
:10150000FC4F8491882361F190E0880F991FFC01C2
:10151000E254FE4FC591D491FC01E159FC4FA591D5
:10152000B491611109C09FB7F894888120958223F6
:101530008883EC912E230BC0623061F49FB7F8943E
:101540003881822F809583238883EC912E2B2C93D6
:101550009FBF06C08FB7F894E8812E2B28838FBFDA
:10156000DF91CF9108953FB7F8948091A4049091B2
:10157000A504A091A604B091A70426B5A89B05C018
:101580002F3F19F00196A11DB11D3FBFBA2FA92F02
:10159000982F8827820F911DA11DB11DBC01CD017F
:1015A00043E0660F771F881F991F4A95D1F708956A
:1015B0002FB7F8946091A0047091A1048091A204C7
:1015C0009091A3042FBF08951F920F920FB60F9210
:1015D00011242F933F938F939F93AF93BF93809149
:1015E000A0049091A104A091A204B091A304309111
:1015F0009F0426E0230F2D3720F40296A11DB11D74
:1016000005C029E8230F0396A11DB11D20939F0457
:101610008093A0049093A104A093A204B093A30488
:101620008091A4049091A504A091A604B091A70470
:101630000196A11DB11D8093A4049093A504A093CD
:10164000A604B093A704BF91AF919F918F913F9152
:101650002F910F900FBE0F901F90189508958CBD7D
:101660009DBD08951F920F920FB60F9211242F93D4
:101670003F934F935F936F937F938F939F93AF931A
:10168000BF93EF93FF938091B900887F803609F470
:101690009CC068F5883209F45BC090F4803109F48D
:1016A00054C038F4882309F4F6C0883009F44DC0DA
:1016B000F6C0883109F44CC0803209F45DC0EFC037
:1016C000803409F468C048F4803309F455C0883385
:1016D00009F0E5C08093BD01D8C0803509F44FC042
:1016E000883509F45DC0883409F0D9C0D6C088397E
:1016F00009F4C7C0A8F4883709F467C038F48836FD
:1017000009F463C0803709F460C0C9C0883809F49F
:10171000B8C0803909F45FC0803809F0C0C05BC030
:10172000803B09F486C038F4803A09F466C0883AF0
:1017300009F47FC0B4C0803C09F4A7C0883C09F418
:10174000A4C0883B09F48AC0AAC08091BA0110C025
:101750009091BC018091BB01981770F5E091BC019C
:1017600081E08E0F8093BC01F0E0E756FE4F808150
:101770008093BB0085EC86C08093BD018EC0E09154
:10178000BC0181E08E0F8093BC018091BB00F0E032
:10179000E756FE4F80839091BC018091BB016EC0E3
:1017A000E091BC0181E08E0F8093BC018091BB0071
:1017B000F0E0E756FE4F80838091BE0181116DC03D
:1017C00081E08093B90184EA61C083E08093BF0126
:1017D00010929E04CFCF80919E04803208F051C0B9
:1017E000E0919E0481E08E0F80939E048091BB0067
:1017F000F0E0E258FB4F8083BDCF85EC8093BC00C6
:101800001092BF0180919E04803230F4E0919E04DA
:10181000F0E0E258FB4F108260919E0470E0E0918E
:101820007C04F0917D048EE794E0099510929E046B
:1018300036C084E08093BF0110927B0410927A043A
:10184000E0917804F0917904099580917A048111EE
:1018500005C081E080937A0410925804E0917B04E3
:1018600081E08E0F80937B04F0E0E85AFB4F80818B
:101870008093BB0090917B0480917A04981708F4C0
:1018800079CF85E88093BC000AC085EC8093BC00CA
:101890001092BF0104C01092BD010E94F108FF9197
:1018A000EF91BF91AF919F918F917F916F915F91D8
:1018B0004F913F912F910F900FBE0F901F90189551
:1018C00020E001972FEF8F3F9207D9F70895CF922D
:1018D000DF92EF92FF920F931F93CF93DF93EC0170
:1018E000898D9A8D009729F421E030E03B832A838B
:1018F00064C0FFB6F89428E030E090E081E0482F23
:10190000462309F09F5F880F21503109C1F78E8D62
:1019100081119F5FE62E192F1095CE010E94AE090E
:10192000898D9A8D04960E94600C88E0C82ED12C77
:1019300001E0802F8E2139F0E989FA899081888928
:10194000892B808303C0CE010E94AE09898D9A8DB8
:101950000E94600C000F81E0C81AD10851F78E8DEB
:10196000882339F0E989FA8990818889892B8083D5
:1019700003C0CE010E94AE09898D9A8D0E94600C31
:1019800010FF07C0E989FA8990818889892B8083B3
:1019900003C0CE010E94AE09898D9A8D0E94600C11
:1019A000E989FA8990818889892B8083FFBE8B8D94
:1019B0009C8D0E94600C81E090E0DF91CF911F919F
:1019C0000F91FF90EF90DF90CF900895EF92FF92EC
:1019D0000F931F93CF93DF93C0911502D0911602FE
:1019E000209709F443C08B899C890E94600C88E091
:1019F000E82EF12C10E001E08D899E890E94600C98
:101A0000EE85FF8590818D85892311F0102B03C011
:101A1000802F80951823000F81E0E81AF10861F704
:101A20008D899E890E94600C8F89988D0E94600C20
:101A3000809114022091130290E001968F719927F2
:101A400030E08217930779F0E0911402F0E0E85C4F
:101A5000FB4F10838091140290E001968F719927BB
:101A60008093140203C08D8D81608D8FDF91CF91A3
:101A70001F910F91FF90EF9008951F920F920FB654
:101A80000F9211242F933F934F935F936F937F9304
:101A90008F939F93AF93BF93EF93FF930E94E60CB6
:101AA000FF91EF91BF91AF919F918F917F916F9136
:101AB0005F914F913F912F910F900FBE0F901F900C
:101AC00018951F920F920FB60F9211242F933F93E8
:101AD0004F935F936F937F938F939F93AF93BF9336
:101AE000EF93FF930E94E60CFF91EF91BF91AF91AE
:101AF0009F918F917F916F915F914F913F912F9126
:101B00000F900FBE0F901F9018951F920F920FB657
:101B10000F9211242F933F934F935F936F937F9373
:101B20008F939F93AF93BF93EF93FF930E94E60C25
:101B3000FF91EF91BF91AF919F918F917F916F91A5
:101B40005F914F913F912F910F900FBE0F901F907B
:101B50001895CF93DF93C0E0D0E08091EA0390E046
:101B6000C817D907ECF4209761F00197C817D90777
:101B700041F081E02091E8033091E903C217D307D7
:101B800009F480E0FE01EC5CFC4F60818093090465
:101B90008BEE93E00E94670C109209042196DDCF32
:101BA000DF91CF910895CF93DF93CDB7DEB7A297A2
:101BB0000FB6F894DEBF0FBECDBF789484B58260B7
:101BC00084BD84B5816084BD85B5826085BD85B5E1
:101BD000816085BD80916E00816080936E0010925F
:101BE00081008091810082608093810080918100DA
:101BF000816080938100809180008160809380006B
:101C00008091B10084608093B1008091B0008160C8
:101C10008093B00080917A00846080937A008091F4
:101C20007A00826080937A0080917A008E7F809320
:101C30007A0080917A00806880937A001092C100C7
:101C4000E0912702F091280282E08083E091230254
:101C5000F09124021082E0912502F091260287E69D
:101C6000808310922F02E0912B02F0912C0286E0EB
:101C70008083E0912902F0912A0280818061808333
:101C8000E0912902F0912A02808188608083E091AE
:101C90002902F0912A02808180688083E0912902E4
:101CA000F0912A0280818F7D80831092000161E093
:101CB0008DE00E94770A61E08DE00E94470A61E0B2
:101CC00083E00E94770A1092070410920604109293
:101CD000050410920404109203041092020410925E
:101CE0000104109200041092FF031092FE038AEE8A
:101CF00090E020E030E0FC014591559165917491B0
:101D0000443E55426105710509F034C04EE0429FE2
:101D1000C001439F900D1124FC01E251FF4F25911A
:101D200034913093FF032093FE03FC01E051FF4FF9
:101D3000259134913093010420930004FC01EE506E
:101D4000FF4F259134913093030420930204FC014A
:101D5000EC50FF4F259134913093050420930404F7
:101D6000FC01EA50FF4F8591949190930704809372
:101D7000060407C02F5F3F4F0E962F30310509F044
:101D8000BACF8091020490910304892B09F446C0D4
:101D90009091F7039631E0F520916800983050F06B
:101DA00031E09E3008F430E081E001C0880F3A95C0
:101DB000EAF701C084E0822B80936800983038F005
:101DC0009E3040F0963148F4ECE6F0E008C0EDE6D5
:101DD000F0E005C0EBE6F0E002C0E0E0F0E04081BA
:101DE000983030F481E001C0880F9A95EAF70EC070
:101DF000292F30E09E3018F42850310902C02E50AF
:101E0000310981E001C0880F2A95EAF7842B80838D
:101E100080910404909105040E94600C0E94530379
:101E200066EE71E085EF91E00E94440482EE91E05D
:101E30009093C3028093C2028CEB91E09093E302F3
:101E40008093E2028091C0029091C1029C012F5FB9
:101E50003F4FF901EE0FFF1FEE53FD4F49ED51E0EB
:101E600051834083FC01EE0FFF1FEC51FD4F47ED06
:101E700051E051834083FC01EE0FFF1FEC5EFC4FED
:101E800011821082F901EE5FFC4F10822E5F3F4FEE
:101E9000F901EE0FFF1FE054FD4F4BEC51E0518371
:101EA0004083FC01EE0FFF1FEA51FD4F48EC51E06B
:101EB00051834083FC01EE0FFF1FEA5EFC4F11824D
:101EC0001082FC01EC5FFC4F10823093C102209322
:101ED000C0028BE591E09093150380931403109258
:101EE000030381E791E09093170380931603109208
:101EF000040386E780930A04809113048F3F41F521
:101F00001092C1011092C0011092760110929801B6
:101F10001092BF0181E08093BE011092B90161E08F
:101F200082E10E94470A61E083E10E94470A8091B2
:101F3000B9008E7F8093B9008091B9008D7F809326
:101F4000B90080E28093B80085E48093BC004EC065
:101F500061E00E94470A61E0809113040E94770AC1
:101F6000809116048F3F09F034C01FB7F894809118
:101F70003401811127C0EDE8F3E08491E1EAF3E058
:101F80009491E82FF0E0EE0FFF1FE254FE4FA59171
:101F9000B491EC91E92321F461E08AE00E94470AC0
:101FA00061E08AE00E94770A8CB580618CBD8CB5B7
:101FB00080648CBD61E08DE00E94770A61E08BE077
:101FC0000E94770A809134018F5F809334011FBF94
:101FD0000DC061E00E94770A61E0809114040E94C4
:101FE000770A60E0809115040E94770A80911304BB
:101FF0008F3FE9F480910A0491E0909375018093FA
:102000009701109276011092980160ED84EB92E0B6
:102010000E947F090E942B0761E080910A040E94C0
:10202000E00684EB92E00E943309182F1FC08091D4
:1020300016048F3F21F481E590E00E942F0B60E0B1
:10204000809113040E94470A80ED0E94800680E080
:102050000E948006182F61E0809113040E94470AB5
:10206000809116048F3F11F40E942E0B183509F051
:102070008EC088E80E948807909318048093170404
:102080008AE80E94880790931A04809319048CE8C8
:102090000E94880790931C0480931B048EE80E9482
:1020A000880790931E0480931D0480E90E9488078E
:1020B0009093200480931F0482E90E9488079093E4
:1020C00022048093210484E90E94880790932404C9
:1020D0008093230486E90E948807909326048093C6
:1020E000250488E90E948807909328048093270498
:1020F0008AE90E94880790932A04809329048CE936
:102100000E94880790932C0480932B048EE90E94F0
:10211000880790932E0480932D04809113048F3FA1
:10212000C1F480910A0491E0909375018093970126
:10213000109276011092980164EF84EB92E00E9475
:102140007F096FE384EB92E00E947F090E942B07D6
:102150001EC0809116048F3F21F481E590E00E941B
:102160002F0B60E0809113040E94470A84E70E94CD
:1021700080068FE30E94800661E0809113040E9434
:10218000470A809116048F3F11F40E942E0B109283
:102190005E0110925D011092600110925F01109239
:1021A0006201109261011092640110926301109219
:1021B000660110926501109268011092670181E03A
:1021C0000E9472040E94A90D0E94B30A4B015C0197
:1021D00054E1C52ED12CE12CF12C0E94B30ADC0174
:1021E000CB0188199909AA09BB09883E9340A1052A
:1021F000B10558F0F1E0CF1AD108E108F10828EE56
:10220000820E23E0921EA11CB11CC114D104E10472
:10221000F10419F78091E2018111D1CF60E08DE0E6
:102220000E94470A0E946A0887EF0E94E4076A8FAB
:102230007B8F8C8F9D8F80910F0490911004A091C3
:102240001104B09112046C017D01FF0CCC08DC2C50
:1022500076019C01AD016C2D7C2D8C2D9C2D345F65
:102260004140510961097109810991092AA339A3E2
:1022700049835A836B837C838D839E8359016A01D2
:102280007B018C010E94CD152A8B3B8B4C8B5D8B87
:102290006E8B7F8B888F998F409127044E8F509142
:1022A00028045F83609125046F8F709126047887DE
:1022B0008091230488A3909124049987B0902004EE
:1022C000A0901F041B2D110F110BC12ED12EE12E3A
:1022D000F12E012F2AA139A149815A816B817C817C
:1022E0008D819E810E94CD150CE00E94FD16190182
:1022F0002A013B014C01B0902204A09021041B2D27
:10230000110F110BC12ED12EE12EF12E012F2A8992
:102310003B894C895D896E897F89888D998D0E9462
:10232000CD1508E00E941617510162017301840166
:102330000E94341770588F4F9F4FA0901D04B0908B
:102340001E04C12CD12CE12CF12C00E010E00E94E5
:10235000CD1501E20E9416172A873B874C875D87BF
:102360006E877F87888B998BA0E00E94461709F4BF
:1023700064C1AE8C1F81110F110BBF80C12ED12EF5
:10238000E12EF12E012F2A893B894C895D896E89C6
:102390007F89888D998D0E94CD1519012A013B01F5
:1023A0004C01AF8C1885110F110BB884C12ED12EA2
:1023B000E12EF12E012F2AA139A149815A816B8189
:1023C0007C818D819E810E94CD1501E10E94FD16C8
:1023D00059016A017B018C019101A201B301C40181
:1023E0000E94341719012A013B014C018A8D9B8DF3
:1023F000AC8DBD8D24E0B595A795979587952A95C9
:10240000D1F720E030E040E150E0281B390B4A0BC7
:102410005B0BDA01C90169017A01FF0CCC08DC2CE5
:1024200076019C01AD016C2D7C2D8C2D9C2D0FE136
:102430000E94FD16F901B42FA52F6C837D8389833B
:102440009A8328A19985990F990B3985492F592F7E
:10245000692F792F892F03E20E94FD1659016A0125
:102460007B018C019101A201B301C4010E943417C8
:1024700059016A017B018C019F014B2F5A2F6C81FE
:102480007D8189819A810E943D174901542E652ED4
:10249000B62FA72FF82FE92F03E00E94FD16540155
:1024A000C52CD62CEB2EFA2E0F2F1E2F0E943D1777
:1024B00059016A017B01782E192F03E00E94FD1655
:1024C000072D0E943D1703E00E94FD165401C52C04
:1024D000D62CEB2EFA2E0F2F1E2F0E943D1702E056
:1024E0000E94FD160F2F0E943D1701E00E94FD166D
:1024F0000F2F0E943D17AA84BB84CC84DD84EE8418
:10250000FF84088919890E9428162F83232E498366
:102510005A836B837C838D839E830DE00E94161704
:10252000322E432E542E652E762E872E982E988787
:1025300030912E0420912D04932F990F990BA32CE9
:10254000B42CC52CD62CE72CF82C092D1885492F36
:10255000592F692F792F892F0E94CD150E94CD15F3
:1025600009E10E94161759016A017B018C012F8134
:10257000322D49815A816B817C818D819E810E949F
:102580003417322E432E542E652E762E872E982EFB
:10259000988730912C0420912B04932F990F990B3D
:1025A000AF80B22CC980DA80EB80FC800D811E8167
:1025B000492F592F692F792F892F0E94CD1503E1BB
:1025C0000E94161759016A017B018C01232D342DBD
:1025D000452D562D672D782D892D98850E9434170D
:1025E00008E00E94161749013A01B62FA72FF82FCD
:1025F000E92F30912A0420912904932F990F990BE8
:10260000492F592F692F792F892F04E00E94FD1639
:1026100059016A017B018C019401A3016B2F7A2F70
:102620008F2F9E2F0E9434170E94951820E030E0D3
:1026300040E85BE30E94A01903C060E070E0CB01BA
:1026400020E030E048EC52E40E94ED1720E030E555
:102650004DE754E40E94ED1721E03EED42E45EE3D5
:102660000E940D1A9B01AC0160E070E080E89FE3DE
:102670000E947B1720E03AE24DE257E40E94A01945
:102680000E945F186B017C01709374016093730169
:102690000E946A080E945F18709372016093710132
:1026A00020916F01309170012431310521F4D092D5
:1026B0006E01C0926D014091690150916A01FA0169
:1026C000EE0FFF1FE35AFE4FA0916B01B0916C011A
:1026D00080819181BD01681B790BCB01D182C082C1
:1026E0008C0D9D1D90936C0180936B014F5F5F4F2C
:1026F000463051052CF450936A014093690104C09F
:1027000010926A011092690166E070E00E94A615BD
:1027100080916D0190916E01681B790B70935C0143
:1027200060935B012531310554F42F5F3F4F3093A7
:10273000700120936F0110925C0110925B010E9466
:10274000D80A0E94A90D0E94D80A6B017C0160E0A2
:1027500083E00E94770A62E084E00E94770A0E9488
:1027600053038BEE93E00E94D4098BEE93E00E941A
:10277000E309892B61F40E94D80ADC01CB018C1992
:102780009D09AE09BF090697A105B10570F38BEE4F
:1027900093E00E94E309181619060CF040C08BEE76
:1027A00093E00E94FA09209101013091020128175B
:1027B0003907A9F1909302018093010120915901F9
:1027C00030915A0180379105A1F0803E910539F58D
:1027D0002330310521F12F5F3F4F30935A01209371
:1027E000590122303105D9F410925A011092590141
:1027F00016C02330310599F02230310539F481E0DB
:1028000090E090935A018093590109C021503109F9
:1028100030935A0120935901243031052CF78091CF
:10282000590190915A018330910509F490C010929A
:10283000580110925701009709F456C0019709F00A
:102840008CC0109245011092350162E172E085E47E
:1028500091E00E94A21B1092030260915B017091B3
:102860005C01072E000C880B990B0E949D180E949A
:10287000700363E072E085E491E00E94971B60E1E1
:1028800072E085E491E00E94A21B68E072E085E3BB
:1028900091E00E94A21B109203026091710170915D
:1028A0007201072E000C880B990B0E949D180E9444
:1028B000700363E072E085E391E00E94971B65E09E
:1028C00072E085E391E00E94A21BE5E4F1E0019053
:1028D0000020E9F73197E554F1404E2F25E431E02F
:1028E000A3EEB1E080E005C06CE372E08BE492E01F
:1028F00032C0841720F4F90190819C9302C0F0E269
:10290000FC938F5F2F5F3F4F1196803191F7E5E386
:10291000F1E001900020E9F73197E553F1404E2FA7
:1029200080E090E0DC01AD51BE4F841740F49C0183
:102930002B5C3E4FF901208150962C9303C0F0E2AE
:102940005096FC9301968031910561F706C06DE1C8
:1029500072E08CE292E00E944404809155019091D3
:10296000560101969093560180935501059744F0C6
:1029700081E00E947204109256011092550103C02A
:1029800080E00E9472040E94D80A61E084E00E9404
:10299000770A0E94EF0246CCCF93DF93E7E1F2E0A3
:1029A0001382128248EE53E060E070E04483558366
:1029B0006683778388E091E09183808385EC90E063
:1029C0009587848784EC90E09787868780EC90E0F9
:1029D000918B808B81EC90E0938B828B82EC90E0EA
:1029E000958B848B86EC90E0978B868B118E128E64
:1029F000138E148EE4EBF2E013821282448355832B
:102A00006683778388E191E091838083EAE0F4E054
:102A10008FEF8187828783878487CBEED3E01B8209
:102A20001A824C835D836E837F8388E291E0998371
:102A300088831C8A1B8A1E8A1D8A188E1F8A1A8EFA
:102A4000198E1C8E1B8EE8E0F4E080818E7F8083DF
:102A500061E084E00E94770A61E084E00E94470A16
:102A6000EBE9F3E0E491E88BE7E8F3E0E491F0E0F0
:102A7000EE0FFF1FE159FC4F859194919A8B898B42
:102A800062E083E00E94770A83E08C87EAE9F3E062
:102A9000E491ED87E6E8F3E0E491F0E0EE0FFF1F4C
:102AA000E758FC4F859194919F878E87109232034F
:102AB0001092C1021092C0021092EA0310923303E6
:102AC000DF91CF91089588E291E09093EC03809399
:102AD000EB032091F703263140F5283028F02E3003
:102AE00030F0ECE6F0E005C0EDE6F0E002C0EBE629
:102AF000F0E03081283038F481E090E001C0880FA8
:102B00002A95EAF70FC0422F50E02E3018F44850B3
:102B1000510902C04E50510981E090E001C0880F78
:102B20004A95EAF78095832380830895DB018F938C
:102B30009F930E94BA15BF91AF91A29F800D911DE6
:102B4000A39F900DB29F900D1124089597FB072E1F
:102B500016F4009407D077FD09D00E94521707FCA5
:102B600005D03EF4909581959F4F0895709561959D
:102B70007F4F08950E946C17A59F900DB49F900DF4
:102B8000A49F800D911D11240895B7FF0C94BA15D0
:102B90000E94BA15821B930B0895DF93CF931F9366
:102BA0000F939A9DF02D219FF00D8B9DF00D8A9D26
:102BB000E02DF10D039FF00D029FE00DF11D4E9DE4
:102BC000E00DF11D5E9DF00D4F9DF00D7F936F9315
:102BD000BF92AF925F934F93D5010E946C178B0108
:102BE000AC01D7010E946C17EB01E80FF91FD60169
:102BF0000E941D162F913F91D6010E946C17C60F9F
:102C0000D71FE81FF91FAF91BF910E941D162F918A
:102C10003F910E946C17C60FD71FE81FF91FD601FE
:102C20000E946C17E60FF71F9801BE01CF01112417
:102C30000F911F91CF91DF9108950E946C17460F5D
:102C4000571FC81FD91F08F431960895689401C012
:102C5000E894F92FF12B12F00C945A16A0E0B0E092
:102C6000E4E3F6E10C94CC16092E059422F40E94BC
:102C7000B616112392F4F0E80F26FFEFE094F094DB
:102C800000951095B094C094D094A194BF0ACF0A37
:102C9000DF0AEF0AFF0A0F0B1F0B0E94651607FCE5
:102CA0000E94B616CDB7DEB7ECE00C94E816689437
:102CB00001C0E8948F929F92CF93DF930E94651694
:102CC000DF91CF919F908F90089588249924F401EB
:102CD000E401B0E49F93AA279A158B049C04ED05A8
:102CE000FE05CF05D007A10798F4AD2FDC2FCF2F1D
:102CF000FE2FE92D982C892E982F872F762F652F60
:102D0000542F432F322F2227B85031F7BF9127C0BD
:102D10001B2EBF91BB27220F331F441F551F661F59
:102D2000771F881F991F881C991CEE1FFF1FCC1F3F
:102D3000DD1FAA1FBB1F8A149B04EC05FD05CE05F1
:102D4000DF05A007B10748F08A189B08EC09FD09C8
:102D5000CE09DF09A00BB10B21601A94E1F62EF425
:102D60009401AF01BE01CD01000C089560957095EE
:102D70008095909530954095509521953F4F4F4FB8
:102D80005F4F6F4F7F4F8F4F9F4F08952F923F920E
:102D90004F925F926F927F928F929F92AF92BF926B
:102DA000CF92DF92EF92FF920F931F93CF93DF9317
:102DB000CDB7DEB7CA1BDB0B0FB6F894DEBF0FBE74
:102DC000CDBF09942A88398848885F846E847D84C1
:102DD0008C849B84AA84B984C884DF80EE80FD80C3
:102DE0000C811B81AA81B981CE0FD11D0FB6F89439
:102DF000DEBF0FBECDBFED0108950F93083090F0F8
:102E0000982F872F762F652F542F432F322F22276D
:102E10000850F4CF220F331F441F551F661F771F22
:102E2000881F991F0A95B2F70F91089597FB10F824
:102E3000169400080F93083098F00850232F342F71
:102E4000452F562F672F782F892F902DF4CF05947B
:102E500097958795779567955795479537952795D2
:102E60000A95AAF70F9108952A0D3B1D4C1D5D1D73
:102E70006E1D7F1D801F911F08952A193B094C0963
:102E80005D096E097F09800B910B08950024A7FD51
:102E900000942A173005400550056005700580052F
:102EA00090050895AA1BBB1B51E107C0AA1FBB1FB9
:102EB000A617B70710F0A61BB70B881F991F5A95C6
:102EC000A9F780959095BC01CD010895EE0FFF1FE5
:102ED0000590F491E02D0994A29FB001B39FC00129
:102EE000A39F700D811D1124911DB29F700D811D36
:102EF0001124911D08955058BB27AA270E949317AB
:102F00000C9461190E94531938F00E945A1920F04C
:102F100039F49F3F19F426F40C9440190EF4E0950F
:102F2000E7FB0C943A19E92F0E94721958F3BA176B
:102F3000620773078407950720F079F4A6F50C94CF
:102F400094190EF4E0950B2EBA2FA02D0B01B901A8
:102F500090010C01CA01A0011124FF27591B99F00F
:102F6000593F50F4503E68F11A16F040A22F232F1B
:102F7000342F4427585FF3CF469537952795A7956B
:102F8000F0405395C9F77EF41F16BA0B620B730B12
:102F9000840BBAF09150A1F0FF0FBB1F661F771F83
:102FA000881FC2F70EC0BA0F621F731F841F48F438
:102FB000879577956795B795F7959E3F08F0B0CFC1
:102FC0009395880F08F09927EE0F979587950895A8
:102FD0000E94161908F481E008950E9401180C94CB
:102FE00061190E945A1958F00E94531940F029F4AF
:102FF0005F3F29F00C943A1951110C9495190C94D7
:1030000040190E94721968F39923B1F3552391F383
:10301000951B550BBB27AA2762177307840738F047
:103020009F5F5F4F220F331F441FAA1FA9F335D0A4
:103030000E2E3AF0E0E832D091505040E695001C58
:10304000CAF72BD0FE2F29D0660F771F881FBB1F12
:10305000261737074807AB07B0E809F0BB0B802DF0
:10306000BF01FF2793585F4F3AF09E3F510578F01C
:103070000C943A190C9495195F3FE4F3983ED4F3FD
:10308000869577956795B795F7959F5FC9F7880FF0
:10309000911D9695879597F90895E1E0660F771F42
:1030A000881FBB1F621773078407BA0720F0621BD3
:1030B000730B840BBA0BEE1F88F7E09508950E94FE
:1030C00066186894B1110C94951908950E947A19A4
:1030D00088F09F5798F0B92F9927B751B0F0E1F0D9
:1030E000660F771F881F991F1AF0BA95C9F714C089
:1030F000B13091F00E949419B1E008950C949419A4
:10310000672F782F8827B85F39F0B93FCCF38695C1
:1031100077956795B395D9F73EF49095809570951E
:1031200061957F4F8F4F9F4F089597FB16F40E9434
:1031300043190C94D918E89409C097FB3EF4909574
:103140008095709561957F4F8F4F9F4F9923A9F080
:10315000F92F96E9BB279395F6958795779567950F
:10316000B795F111F8CFFAF4BB0F11F460FF1BC053
:103170006F5F7F4F8F4F9F4F16C0882311F096E9E6
:1031800011C0772321F09EE8872F762F05C0662394
:1031900071F096E8862F70E060E02AF09A95660F4D
:1031A000771F881FDAF7880F9695879597F9089506
:1031B000E894F92F96EBFF2381F0121613061406FC
:1031C000440B9395F695879577956795579540406D
:1031D000FF23B9F71BC099270895882351F498500D
:1031E000D2F7872B762F652F542F432F322F20E0D5
:1031F000B1F3121613061406440B88233AF09A957D
:10320000440F551F661F771F881FCAF755234AF4BE
:10321000440F551F11F460FF04C06F5F7F4F8F4F45
:103220009F4F880F9695879597F90895990F0008F5
:10323000550FAA0BE0E8FEEF16161706E807F90788
:10324000C0F012161306E407F50798F0621B730B23
:10325000840B950B39F40A2661F0232B242B252BA4
:1032600021F408950A2609F4A140A6958FEF811D47
:10327000811D089597F99F6780E870E060E00895E8
:103280009FEF80EC0895909580957095609550958E
:103290004095309521953F4F4F4F5F4F6F4F7F4F78
:1032A0008F4F9F4F089500240A941616170618068C
:1032B0000906089500240A9412161306140605063A
:1032C0000895092E0394000C11F4882352F0BB0FCB
:1032D00040F4BF2B11F460FF04C06F5F7F4F8F4F2E
:1032E0009F4F089557FD9058440F551F59F05F3F69
:1032F00071F04795880F97FB991F61F09F3F79F018
:1033000087950895121613061406551FF2CF469599
:10331000F1DF08C0161617061806991FF1CF86951B
:103320007105610508940895E894BB2766277727FF
:10333000CB0197F908950E94161908F48FEF0895AC
:103340000E94B3190C9461190E94531938F00E941D
:103350005A1920F0952311F00C943A190C94401945
:1033600011240C9495190E94721970F3959FC1F362
:10337000950F50E0551F629FF001729FBB27F00D23
:10338000B11D639FAA27F00DB11DAA1F649F662778
:10339000B00DA11D661F829F2227B00DA11D621FC7
:1033A000739FB00DA11D621F839FA00D611D221F81
:1033B000749F3327A00D611D231F849F600D211D65
:1033C000822F762F6A2F11249F5750409AF0F1F0E8
:1033D00088234AF0EE0FFF1FBB1F661F771F881F51
:1033E00091505040A9F79E3F510580F00C943A1936
:1033F0000C9495195F3FE4F3983ED4F38695779546
:103400006795B795F795E7959F5FC1F7FE2B880FF6
:10341000911D9695879597F90895FA01EE0FFF1F74
:10342000309621053105A1F16115710561F48038EF
:10343000BFE39B0749F168949038810561F08038BB
:10344000BFEF9B0741F099234AF5FF3FE1053105A6
:10345000210519F1E8940894E795D901AA2329F4E4
:10346000AB2FBE2FF85FD0F310C0FF5F70F4A695AE
:10347000E0F7F73950F019F0FF3A38F49F779F934F
:103480000DD00F9007FC9058089546F00C94401909
:1034900060E070E080E89FE308954FE79F775F93D7
:1034A0004F933F932F930E94081B2F913F914F9171
:1034B0005F910E94A0190C94651A29F416F00C94DF
:1034C0003A190C9494190C9440190E947A19A8F393
:1034D0009638A0F707F80F92E8942BE33AEA48EB06
:1034E0005FE70E94B6190F920F920F924DB75EB729
:1034F0000F920E94501BE8E6F0E00E94971A4F914D
:103500005F91EF91FF91E595EE1FFF1F49F0FE5788
:10351000E0684427EE0F441FFA95E1F74195550BFB
:103520000E94CA1A0F9007FE0C94BE1A0895DF93EA
:10353000CF931F930F93FF92EF92DF927B018C0149
:10354000689406C0DA2EEF010E94B319FE01E894D8
:10355000A5912591359145915591A6F3EF010E94D2
:103560009317FE019701A801DA9469F7DF90EF90B5
:10357000FF900F911F91CF91DF9108959B01AC01B6
:1035800060E070E080E89FE30C94ED170C943A192A
:103590000C94841B0E947A19D8F39923C9F3940FD1
:1035A000511DA3F39150504094F059F0882332F00C
:1035B000660F771F881F91505040C1F79E3F5105FD
:1035C0002CF7880F911D9695879597F908955F3F81
:1035D000ACF0983E9CF0BB27869577956795B7959C
:1035E00008F4B1609395C1F7BB0F58F711F460FF71
:1035F000E8CF6F5F7F4F8F4F9F4FE3CF0C949519AC
:1036000016F00C94841B0C94401968940C943A198D
:103610000E947A19A8F39923C1F3AEF3DF93CF93F5
:103620001F930F93FF92C92FDD2788232AF021973C
:10363000660F771F881FDAF720E030E040E85FEB85
:103640009FE3883920F0803E38F021968F770E94E2
:103650007C17E0E9F0E004C00E947C17EDEBF0E09D
:103660000E94971A8B01BE01EC01FB2E6F57710966
:103670007595771F880B990B0E949D1828E132E7FA
:1036800041E35FE30E94B319AF2D9801AE01FF90B3
:103690000F911F91CF91DF910E9493170C946119A4
:1036A000FA01DC01AA0FBB1F9B01AC01BF5728F434
:1036B000222733274427507820C0B75190F4AB2FEE
:1036C0000024469537952795011CA395D2F3002039
:1036D00071F0220F331F441FB395DAF30ED00C9410
:1036E0007B1761307105A0E88A07B94630F49B0169
:1036F000AC016627772788279078309621F02083C1
:1037000031834283538308959F3F31F0915020F4D9
:10371000879577956795B795880F911D96958795AD
:1037200097F9089581E090E0F8940C94E91BFB016F
:10373000DC010D900020E9F7119701900D92002017
:10374000E1F70895FB01DC010D900020E9F71197E6
:1037500005900D920020E1F70895FB01DC01059032
:103760000D920020E1F70895BB274A3031F49923E8
:1037700022F4BDE2909581959F4F0C94C01BBB270E
:10378000FB015527AA27880F991FAA1FA41710F01D
:10379000A41B83955051B9F7A05DAA3308F0A95D29
:1037A000A193009779F7B111B1931192CB010C94C9
:1037B000D91BDC01FC01672F71917723E1F7329768
:1037C00004C07C916D9370836291AE17BF07C8F3FC
:1037D000089511E0C7EDD1E004C0FE010E94661714
:0C37E0002196C83DD107C9F7F894FFCF2F
:1037EC0001F0000600000000860202024F022D02CA
:1037FC004102CD02000000007F094F09470933093F
:10380C002409230900000000670C0202E309FA09ED
:04381C00BA09D40908
:00000001FF
