:100000000C94F5010C941D020C941D020C945708DD
:100010000C9433080C940F080C941D020C941D02D0
:100020000C941D020C941D020C941D020C941D02D4
:100030000C941D020C941D020C941D020C941D02C4
:100040000C9497060C941D020C94A3050C947D054A
:100050000C941D020C941D020C941D020C941D02A4
:100060000C94E1060C941D0207634236B79BD8A797
:100070001A39685618AEBAAB558C1D3CB7CC5763CD
:10008000BD6DEDFD753EF6177231BF000000803F7B
:1000900008000000BE922449123EABAAAA2ABECD97
:1000A000CCCC4C3E00000080BEABAAAAAA3E000009
:1000B0000000BF000000803F000000000008417801
:1000C000D3BB4387D1133D190E3CC3BD4282AD2B38
:1000D0003E68EC8276BED98FE1A93E4C80EFFFBE30
:1000E00001C4FF7F3F00000000000000000024006A
:1000F00027002A0000000008000201000003040796
:10010000000000000000000000C201000100050026
:1001100005000300030000E1000001000F000F00D4
:100120000D000D0000960000020019001A001700D3
:100130001700127A00000700200021001D001D009A
:10014000807000000B002300230020002000004BE3
:10015000000014003700370034003400403800003D
:100160001E004B004B0048004800482600003100AC
:10017000710071006F006F00E42500003100710014
:1001800071006F006F008025000032007200720065
:1001900070007000C01200006E00E900E900E60087
:1001A000E60060090000E500D801D801D501D501BD
:1001B000B0040000D301B403B403B103B103580287
:1001C0000000B40367076707620762072C0100009D
:1001D0006707DD0EDD0EDA0EDA0E2000B0430054A4
:1001E000656D7065726174757265006D00416C7447
:1001F00069747564650052435400204A657469202F
:10020000416C744D657465720020524354204A65F8
:10021000746920546F6F6C7300204A6574692041C3
:100220006C744D657465720020524354204A6574A5
:100230006920546F6F6C73005072657373203C209B
:10024000746F206578697400416C746974756465B5
:100250002072657365742100507265737320444F7A
:10026000574E00416C7469747564652052657365FE
:100270007400B0430054656D702E3A20006D00414B
:100280006C7469747564653A2000204A657469204D
:10029000416C744D657465720020524354204A6568
:1002A000746920546F6F6C730000070E091C1B12D9
:1002B00015383F363124232A2D70777E796C6B6296
:1002C00065484F464154535A5DE0E7EEE9FCFBF2C6
:1002D000F5D8DFD6D1C4C3CACD90979E998C8B82B6
:1002E00085A8AFA6A1B4B3BABDC7C0C9CEDBDCD563
:1002F000D2FFF8F1F6E3E4EDEAB7B0B9BEABACA5D6
:10030000A28F88818693949D9A2720292E3B3C3585
:10031000321F18111603040D0A5750595E4B4C45F5
:10032000426F68616673747D7A898E878095929B2F
:100330009CB1B6BFB8ADAAA3A4F9FEF7F0E5E2EB15
:10034000ECC1C6CFC8DDDAD3D4696E676075727B45
:100350007C51565F584D4A4344191E171005020B35
:100360000C21262F283D3A33344E49404752555CE4
:100370005B7671787F6A6D64633E39303722252C55
:100380002B0601080F1A1D1413AEA9A0A7B2B5BC05
:10039000BB9691989F8A8D8483DED9D0D7C2C5CC75
:1003A000CBE6E1E8EFFAFDF4F300000000250028B9
:1003B000002B000000000023002600290004040494
:1003C00004040404040202020202020303030303FE
:1003D00003010204081020408001020408102001DB
:1003E0000204081020002313F01211241FBECFEFC7
:1003F000D8E0DEBFCDBF11E0A0E0B1E0E6EFF0E372
:1004000002C005900D92A433B107D9F724E0A4E30C
:10041000B1E001C01D92A039B207E1F711E0C4EFCD
:10042000D1E004C02197FE010E943F14C33FD107D1
:10043000C9F70E94040D0C946E180C940000CF9222
:10044000DF92EF92FF920F931F93CF93DF936C0194
:100450007A018B01C0E0D0E0CE15DF0589F0D8012C
:100460006D918D01D601ED91FC910190F081E02D0F
:10047000C6010995892B11F47E0102C02196ECCFAB
:10048000C701DF91CF911F910F91FF90EF90DF9007
:10049000CF900895FC01918D828D981761F0828D27
:1004A000DF01A80FB11D5D968C91928D9F5F9F73A8
:1004B000928F90E008958FEF9FEF0895FC01918D4A
:1004C000828D981731F0828DE80FF11D858D90E0B7
:1004D00008958FEF9FEF0895FC01918D228D892F54
:1004E00090E0805C9F4F821B91098F73992708953C
:1004F00085E692E00E946C0221E0892B09F420E05D
:10050000822F0895FC01848DDF01A80FB11DA35A2D
:10051000BF4F2C91848D90E001968F739927848F23
:10052000A689B7892C93A089B1898C9180648C931A
:10053000938D848D981306C00288F389E02D808105
:100540008F7D80830895EF92FF920F931F93CF9337
:10055000DF93EC0181E0888F9B8D8C8D981305C013
:10056000E889F989808185FD24C0F62E0B8D10E085
:100570000F5F1F4F0F731127E02E8C8DE8120CC0F8
:100580000FB607FCFACFE889F989808185FFF5CF9E
:10059000CE010E948202F1CF8B8DFE01E80FF11D8A
:1005A000E35AFF4FF0820B8FEA89FB8980818062DA
:1005B00007C0EE89FF896083E889F98980818064BA
:1005C000808381E090E0DF91CF911F910F91FF90A8
:1005D000EF900895CF93DF93EC01888D8823C9F0C5
:1005E000EA89FB89808185FD05C0A889B9898C913C
:1005F00086FD0FC00FB607FCF5CF808185FFF2CFD7
:10060000A889B9898C9185FFEDCFCE010E94820225
:10061000E7CFDF91CF91089580E090E0892B29F01A
:100620000E94780281110C94000008953FB7F8945D
:100630008091A0019091A101A091A201B091A3018C
:1006400026B5A89B05C02F3F19F00196A11DB11D2D
:100650003FBFBA2FA92F982F8827820F911DA11D68
:10066000B11DBC01CD0143E0660F771F881F991FA4
:100670004A95D1F708952FB7F89460919C01709135
:100680009D0180919E0190919F012FBF089585ED5E
:100690008093BC008091BC0084FDFCCF10920C02C2
:1006A000089540917601262F30E0240F311D21322C
:1006B0003105DCF420910C022430C9F4FC0180E007
:1006C00090E0861758F4309176012191DC01AC5A04
:1006D000BE4FA30FB11D2C930196F3CF80917601ED
:1006E000680F6093760180E0089581E0089582E0CC
:1006F00008950895E091C5018091C401E81730F490
:10070000F0E0EA53FE4F808190E008958FEF9FEF75
:1007100008959091C5018091C401981750F4E92F74
:10072000F0E0EA53FE4F208130E09F5F9093C501D7
:1007300002C02FEF3FEFC90108958091C40190E0FE
:100740002091C501821B91090895CF92DF92EF920B
:10075000FF920F931F93CF93DF937C01262F972F48
:100760008A0180910D02882391F0C62FD72F6E0148
:10077000C40ED51ECC15DD0571F06991D701ED9140
:10078000FC910190F081E02DC7010995F3CF642F12
:10079000822F0E945103C801DF91CF911F910F91C9
:1007A000FF90EF90DF90CF900895CF93DF931F924B
:1007B000CDB7DEB7698320910D022223D1F02091BD
:1007C0002F02203240F021E030E0FC01338322830D
:1007D00080E090E015C080910E02E82FF0E0E15F2C
:1007E000FD4F998190838F5F80930E0280932F023B
:1007F00005C061E0CE0101960E94510381E090E0C6
:100800000F90DF91CF910895DC015196ED91FC910D
:100810005297908150968C9180958923808308957A
:1008200020916302309164022817390781F4909176
:10083000610280916202981751F0E0916102F0E04C
:10084000EC5CFE4F8081082E000C990B08958FEF11
:100850009FEF0895209163023091640228173907B1
:1008600039F48FB7F89410926202109261028FBF30
:10087000089520916302309164022817390769F4C2
:10088000809162022091610290E08096821B910922
:1008900060E270E00E94C31308958FEF9FEF089508
:1008A000209163023091640228173907B9F49091BE
:1008B0006102809162029817A1F0E0916102F0E07C
:1008C000EC5CFE4F80812091610230E02F5F3F4F52
:1008D0002F7133272093610290E008958FEF9FEFEF
:1008E00008958EEF9FEF089520E001972FEF8F3F3F
:1008F0009207D9F70895EF92FF920F931F93CF932A
:10090000DF93C0916302D0916402209709F443C041
:100910008B899C890E94740488E0E82EF12C10E0F9
:1009200001E08D899E890E947404EE85FF85908187
:100930008D85892311F0102B03C0802F80951823FB
:10094000000F81E0E81AF10861F78D899E890E9405
:1009500074048F89988D0E947404809162022091A2
:10096000610290E001968F71992730E0821793071A
:1009700079F0E0916202F0E0EC5CFE4F1083809130
:10098000620290E001968F7199278093620203C002
:100990008D8D81608D8FDF91CF911F910F91FF9091
:1009A000EF9008950E941718CF92DF92EF92FF9276
:1009B0000F931F93CF93DF93EC01898D9A8D00974E
:1009C00029F421E030E03B832A8364C0FFB6F89429
:1009D00028E030E090E081E0482F462309F09F5F57
:1009E000880F21503109C1F78E8D81119F5FE62E4E
:1009F000192F1095CE010E940404898D9A8D0496BA
:100A00000E94740488E0C82ED12C01E0802F8E2132
:100A100039F0E989FA8990818889892B808303C01C
:100A2000CE010E940404898D9A8D0E947404000FE7
:100A300081E0C81AD10851F78E8D882339F0E989F1
:100A4000FA8990818889892B808303C0CE010E9416
:100A50000404898D9A8D0E94740410FF07C0E989EF
:100A6000FA8990818889892B808303C0CE010E94F6
:100A70000404898D9A8D0E947404E989FA89908111
:100A80008889892B8083FFBE8B8D9C8D0E94740486
:100A900081E090E0DF91CF911F910F91FF90EF9057
:100AA000DF90CF900895CF93DF93C0E0D0E08091A6
:100AB000380490E0C817D907ECF4209761F001974B
:100AC000C817D90741F081E02091360430913704EE
:100AD000C217D30709F480E0FE01EE57FC4F608196
:100AE0008093570489E394E00E94D4041092570441
:100AF0002196DDCFDF91CF9108951F920F920FB60F
:100B00000F9211242F933F934F935F936F937F9393
:100B10008F939F93AF93BF93EF93FF9385E692E0FC
:100B20000E948202FF91EF91BF91AF919F918F91AF
:100B30007F916F915F914F913F912F910F900FBED9
:100B40000F901F9018951F920F920FB60F921124BD
:100B50002F938F939F93EF93FF93E0917502F09102
:100B600076028081E0917B02F0917C0282FD12C0CE
:100B7000908180917E028F5F8F7320917F02821718
:100B800051F0E0917E02F0E0EB59FD4F958F80939C
:100B90007E0201C08081FF91EF919F918F912F91F3
:100BA0000F900FBE0F901F90189590E0FC01EC5035
:100BB000FF4F3491FC01EF52FC4F2491FC01E354B0
:100BC000FC4FE491EE2309F43BC0332339F1333079
:100BD00091F038F43130A9F0323001F584B58F7DD1
:100BE00012C0373091F03830A1F03430B9F4809130
:100BF00080008F7D03C0809180008F77809380007C
:100C00000DC084B58F7784BD09C08091B0008F7707
:100C100003C08091B0008F7D8093B000F0E0EE0FB4
:100C2000FF1FE755FC4FA591B4918FB7F894EC9155
:100C3000611103C020952E2301C02E2B2C938FBF52
:100C40000895CF93DF9390E0FC01EF52FC4F249185
:100C5000FC01E354FC4F8491882361F190E0880FFC
:100C6000991FFC01E651FF4FC591D491FC01E75556
:100C7000FC4FA591B491611109C09FB7F894888188
:100C8000209582238883EC912E230BC0623061F47F
:100C90009FB7F8943881822F809583238883EC91C5
:100CA0002E2B2C939FBF06C08FB7F894E8812E2B74
:100CB00028838FBFDF91CF9108958F929F92AF923B
:100CC000BF92CF92DF92EF92FF926B017C010E9464
:100CD00016034B015C01C114D104E104F104F1F0ED
:100CE0000E941603DC01CB0188199909AA09BB09E6
:100CF000883E9340A105B10570F321E0C21AD108E6
:100D0000E108F10888EE880E83E0981EA11CB11C52
:100D1000C114D104E104F10419F7DDCFFF90EF9085
:100D2000DF90CF90BF90AF909F908F9008951F92CB
:100D30000F920FB60F9211242F933F938F939F938F
:100D4000AF93BF9380919C0190919D01A0919E01D2
:100D5000B0919F0130919B0126E0230F2D3720F4A5
:100D60000296A11DB11D05C029E8230F0396A11D00
:100D7000B11D20939B0180939C0190939D01A093B2
:100D80009E01B0939F018091A0019091A101A0913B
:100D9000A201B091A3010196A11DB11D8093A001F4
:100DA0009093A101A093A201B093A301BF91AF9131
:100DB0009F918F913F912F910F900FBE0F901F9099
:100DC00018951F920F920FB60F9211242F933F93F5
:100DD0004F935F936F937F938F939F93AF93BF9343
:100DE000EF93FF938091B900887F803609F49CC00F
:100DF00068F5883209F45BC090F4803109F454C07E
:100E000038F4882309F4F6C0883009F44DC0F6C0E0
:100E1000883109F44CC0803209F45DC0EFC08034E1
:100E200009F468C048F4803309F455C0883309F0E8
:100E3000E5C080930A02D8C0803509F44FC08835D8
:100E400009F45DC0883409F0D9C0D6C0883909F4E6
:100E5000C7C0A8F4883709F467C038F4883609F4A5
:100E600063C0803709F460C0C9C0883809F4B8C0CD
:100E7000803909F45FC0803809F0C0C05BC0803B96
:100E800009F486C038F4803A09F466C0883A09F457
:100E90007FC0B4C0803C09F4A7C0883C09F4A4C05A
:100EA000883B09F48AC0AAC08091E70110C09091E4
:100EB000090280910802981770F5E091090281E01B
:100EC0008E0F80930902F0E0E851FE4F80818093FD
:100ED000BB0085EC86C080930A028EC0E0910902B7
:100EE00081E08E0F809309028091BB00F0E0E85111
:100EF000FE4F808390910902809108026EC0E091BC
:100F0000090281E08E0F809309028091BB00F0E01E
:100F1000E851FE4F808380910B0281116DC081E00A
:100F20008093E60184EA61C083E080930C02109212
:100F30009A01CFCF80919A01803208F051C0E091A0
:100F40009A0181E08E0F80939A018091BB00F0E0BE
:100F5000E658FE4F8083BDCF85EC8093BC00109295
:100F60000C0280919A01803230F4E0919A01F0E015
:100F7000E658FE4F108260919A0170E0E09178018E
:100F8000F09179018AE791E0099510929A0136C0B3
:100F900084E080930C021092770110927601E09128
:100FA0007401F0917501099580917601811105C058
:100FB00081E08093760110925401E091770181E005
:100FC0008E0F80937701F0E0EC5AFE4F8081809382
:100FD000BB009091770180917601981708F479CF42
:100FE00085E88093BC000AC085EC8093BC00109219
:100FF0000C0204C010920A020E944703FF91EF9175
:10100000BF91AF919F918F917F916F915F914F9120
:101010003F912F910F900FBE0F901F9018951F9228
:101020000F920FB60F9211242F933F934F935F931C
:101030006F937F938F939F93AF93BF93EF93FF93A0
:101040000E947B04FF91EF91BF91AF919F918F918F
:101050007F916F915F914F913F912F910F900FBEB4
:101060000F901F9018951F920F920FB60F92112498
:101070002F933F934F935F936F937F938F939F93A0
:10108000AF93BF93EF93FF930E947B04FF91EF9187
:10109000BF91AF919F918F917F916F915F914F9190
:1010A0003F912F910F900FBE0F901F9018951F9298
:1010B0000F920FB60F9211242F933F934F935F938C
:1010C0006F937F938F939F93AF93BF93EF93FF9310
:1010D0000E947B04FF91EF91BF91AF919F918F91FF
:1010E0007F916F915F914F913F912F910F900FBE24
:1010F0000F901F90189520912F0290916F0421322C
:1011000008F04AC080910C028111FCCF32E030938C
:101110000C0231E030930B023FEF30930A02109241
:10112000090220930802AFE0B2E048EE51E0FA0174
:101130003E2F341B321718F43D913193F9CF1092A2
:10114000E7012091E701990F922B9093E70190918D
:10115000E601913061F41092E6019091E7019093DD
:10116000BB009091BC0093FDF8CF95EC01C095EECB
:101170009093BC0090910C029230E1F390910A029E
:101180009F3F79F080910A02803241F080910A02FB
:10119000803331F084E005C081E003C082E001C00B
:1011A00083E010920E0210922F0210920D02089509
:1011B00090910C029111FCCF813208F080E291E015
:1011C00090930C0290930B022FEF20930A0210923F
:1011D0000902280F209308029093E7019091E701FC
:1011E0009E6E9093E7019091E601913061F4109228
:1011F000E6019091E7019093BB009091BC0093FDB4
:10120000F8CF95EC01C095EE9093BC0090910C0244
:101210009130E1F390910902981710F4809109023E
:10122000A8EEB1E026EC31E0F9019E2F921B981751
:1012300018F49D919193F9CF1092C5018093C40148
:101240000895809163029091640289539440A1F0C3
:10125000809156048E7F809356048FB7F894109235
:1012600062021092610229E334E030936402209319
:1012700063028FBF81E0089580E008952F923F922E
:101280004F925F926F927F928F929F92AF92BF9296
:10129000CF92DF92EF92FF920F931F93CF93DF9342
:1012A00000D000D0CDB7DEB72B013C0120E030E00C
:1012B000A9010E94C11487FF05C020E030E040E092
:1012C0005FEB04C020E030E040E05FE3C301B20127
:1012D0000E9455146B017C0120E030E0A901C3019C
:1012E000B2010E94C11487FF04C0F7FAF094F7F826
:1012F000F094A12CB12C8DEC282E9CEC392E8CEC8A
:101300008B839DE39C8320E030E040E251E4B10117
:101310008B819C810E9425164B018C01A7019601AF
:101320000E94C11418163CF0AFEFAA1ABA0A1401B1
:101330000B831C83E8CF20E030E0A901C301B20198
:101340000E94C11487FF06C08DE28093510201E024
:1013500010E002C000E010E0A114B10439F4F8017B
:10136000EF5AFD4F80E380830F5F1F4F812C912C3C
:10137000F401E00FF11FFA83E9838A149B04B1F1B1
:1013800091014B815C81C701B6010E94C6140E9485
:1013900038152B013C0169817A816F5A7D4F4AE0F3
:1013A000C2010E943918B201550C880B990B0E949A
:1013B000701591014B815C810E9425169B01AC0147
:1013C000C701B6010E9454146B017C0120E030E09B
:1013D00040E251E4B1018B819C810E94C6141B0143
:1013E0008B839C83BFEF8B1A9B0AC2CFEF5AFD4FB2
:1013F000108281E592E00F900F900F900F90DF9197
:10140000CF911F910F91FF90EF90DF90CF90BF9001
:10141000AF909F908F907F906F905F904F903F9094
:101420002F900895A0E7B4E020E040E250E15A0F89
:1014300021111FC0FC0134913323D9F03C93119644
:1014400001965A13F5CF80E090E020E030E2DC0115
:10145000A059BB4F211110C0FB01E80FF91FE49107
:10146000EE2351F05096EC9301968031910579F777
:1014700008954C9321E0E3CF50963C9321E0F4CFC4
:10148000CF93DF93E1E4F2E001900020E9F7319798
:10149000E154F240C1E4D2E0A0E7B4E080E090E2A1
:1014A0008E1718F428812C9301C09C938F5F21968E
:1014B00011968031A9F7E1E3F2E001900020E9F70D
:1014C0003197E153F24080E090E020E2DC01A05946
:1014D000BB4F8E1738F4EC01CF5CDD4F388150964E
:1014E0003C9302C050962C9301968031910571F780
:1014F000DF91CF9108952F923F924F925F926F921A
:101500007F928F929F92AF92BF92CF92DF92EF9293
:10151000FF920F931F93CF93DF93CDB7DEB7A097C2
:101520000FB6F894DEBF0FBECDBF90918003992314
:10153000C9F02EE72093820322E92093830323E25C
:10154000209384039093850390910301992311F0D4
:10155000915003C01092800396E09093030104E041
:1015600010E002C000E010E090918003911197C15B
:101570009EE7909382039FE99093830310928403E4
:1015800098E19093850394EA909386039CEA909364
:10159000870397E090938803109289038111E8C034
:1015A00080E4809384037090810380900E03909078
:1015B0000F0308E010E0612CD62CD70CED2DF0E0E5
:1015C000E815F9050CF0C7C0DF01AA0FBB1FA05A30
:1015D000BC4FAD90BC90A114B10409F4B8C0D29432
:1015E00030EFD322C801825F9C4F7C01DC01AC58F4
:1015F000BF4FDC92E05BFC4FC080CC2021F093E039
:101600009C1590F104C0D5016D917C9130C06C2D7A
:1016100070E080E090E00E946E159B01AC0160E0FC
:1016200070E080E291E40E949216F5012081318100
:10163000428153810E9425161B012C0120E030E0DD
:10164000A9010E94201620E030E040E05FE387FD22
:1016500005C0C201B1010E94551404C0C201B1010C
:101660000E9454140E943815F3E0FC15B0F0F70105
:10167000EC58FF4F8D2D816080837F79D12C20E243
:10168000C29ED02CCC2411246C297D2931966083F4
:10169000319670830D5F1F4F5AC084E0C81211C08D
:1016A000F701EC58FF4F8D2D846080833196D50172
:1016B0008C918083319611968C9180833196108223
:1016C00019C0B5E0CB1219C0F701EC58FF4F8D2DB2
:1016D00085608083F5018281F701EB58FF4F80839D
:1016E000D50111968C9111973196808331968C910A
:1016F0008F7180830C5F1F4F2AC0B9E0CB1227C0C7
:10170000F701EC58FF4F8D2D89608083F5018381AF
:10171000F701EB58FF4F8083D50112968C911297F9
:101720003196808311968C911197319680838C919C
:10173000F801EA57FC4F80838C91853421F08E3478
:1017400021F4108202C0B0E2B0830B5F1F4F63949C
:10175000E6E06E1231CF86E0870D282F30E02815A5
:1017600039051CF4809381037BC01092810378C0FB
:10177000E0913002F0E0EE0FFF1FE05FFC4F608170
:1017800071817E01F1E1EF0EF11CC7010E94321858
:10179000E0913002F0E0EE0FFF1FE05DFC4F608152
:1017A00071818E010F5F1F4FC8010E943218809116
:1017B000300280938A03F70101900020E9F7319706
:1017C000EE19FF09EE0FEE0FEE0FD8010D9000207D
:1017D000E9F71197A01BB10BA370EA2BE0938B03E1
:1017E000D7012AE030E0F70101900020E9F73197B6
:1017F000AF014E195F09F901EC58FF4FBD016E1999
:101800007F096417750738F49D91E25FFC4F908360
:101810002F5F3F4FE8CFE25FFC4FA801201B310B49
:10182000B901640F751FD8010D900020E9F71197D9
:10183000A01BB10B7A01E01AF10AEA16FB0628F4A4
:10184000DA019D91AD019193EBCF8B018F5F90E019
:1018500060910E0370910F030E94C31380933002B6
:10186000809184039EEF900F892B8093840322E064
:10187000E0E0822F90E0801791075CF4DC01AE5726
:10188000BC4F8C91E827F0E0E755FD4FE4912F5FC6
:10189000F0CFD801AE57BC4FEC930F5F1F4FC8017C
:1018A000825F9C4FFC01EC58FF4F2EEF208310937A
:1018B000370400933604D801AD57BC4FE0E7F4E09D
:1018C00020E22E0F31913D932E13FCCFFC01EB56FD
:1018D000FF4F8FEF80830E5D1F4F0093380481E030
:1018E000A0960FB6F894DEBF0FBECDBFDF91CF91AB
:1018F0001F910F91FF90EF90DF90CF90BF90AF902E
:101900009F908F907F906F905F904F903F902F901F
:101910000895CF93DF93C1E0C0930D0297E79093B2
:101920006F0410920E0210922F02682F82E093E053
:101930000E94D5030E947B08C0930D0210920E02F4
:1019400010922F0282E090E00E94D80882E093E09B
:101950000E948903D82F80E0C82F82E093E00E9484
:101960008903C82BD92B0E947B08CE01DF91CF9130
:101970000895CF93C1E0C0930D0297E790936F0451
:1019800010920E0210922F02682F82E093E00E94C4
:10199000D5030E947B08C0930D0210920E02109294
:1019A0002F0281E090E00E94D80882E093E00E943C
:1019B0008903C82F0E947B088C2FCF910895CF9365
:1019C000C82F81E080930D0287E780936F04109207
:1019D0000E0210922F0264EF82E093E00E94D50382
:1019E0006C2F82E093E00E94D503CF910C947B088A
:1019F0008EE20E94DF0C65E070E080E090E00E94E3
:101A00005D0686EF0C94890CCF93DF93CDB7DEB7DC
:101A10002B970FB6F894DEBF0FBECDBF789484B578
:101A2000826084BD84B5816084BD85B5826085BDDA
:101A300085B5816085BD80916E00816080936E0068
:101A4000109281008091810082608093810080915A
:101A5000810081608093810080918000816080930B
:101A600080008091B10084608093B1008091B000CB
:101A700081608093B00080917A00846080937A00C6
:101A800080917A00826080937A0080917A008E7FC4
:101A900080937A0080917A00806880937A00109217
:101AA000C100E0917502F091760282E08083E091BE
:101AB0007102F09172021082E0917302F09174024F
:101AC00087E6808310927D02E0917902F0917A029C
:101AD00086E08083E0917702F091780280818061D6
:101AE0008083E0917702F091780280818860808322
:101AF000E0917702F0917802808180688083E091A4
:101B00007702F091780280818F7D808310920001AE
:101B100061E08DE00E94210661E08DE00E94D50524
:101B200061E083E00E942106109255041092540453
:101B300010925304109252041092510410925004C7
:101B400010924F0410924E0410924D0410924C04C7
:101B500088E091E020E030E0FC01459155916591ED
:101B60007491443E55426105710509F034C04EE060
:101B7000429FC001439F900D1124FC01E45FFE4F82
:101B80002591349130934D0420934C04FC01E25F85
:101B9000FE4F2591349130934F0420934E04FC0165
:101BA000E05FFE4F2591349130935104209350040F
:101BB000FC01EE5EFE4F2591349130935304209347
:101BC0005204FC01EC5EFE4F859194919093550474
:101BD0008093540407C02F5F3F4F0E962F3031057E
:101BE00009F0BACF8091500490915104892B09F4E7
:101BF00046C0909145049631E0F5209168009830F8
:101C000050F031E09E3008F430E081E001C0880FF0
:101C10003A95EAF701C084E0822B809368009830FF
:101C200038F09E3040F0963148F4ECE6F0E008C021
:101C3000EDE6F0E005C0EBE6F0E002C0E0E0F0E049
:101C40004081983030F481E001C0880F9A95EAF71E
:101C50000EC0292F30E09E3018F42850310902C000
:101C60002E50310981E001C0880F2A95EAF7842BB4
:101C7000808380915204909153040E9474040E94C6
:101C800021096AEF71E089E092E00E94120A86EF72
:101C900091E090931103809310038AED91E090936B
:101CA00031038093300380910E0390910F039C01C8
:101CB0002F5F3F4FF901EE0FFF1FE05FFC4F4DEE2E
:101CC00051E051834083FC01EE0FFF1FEE5CFC4F9F
:101CD0004BEE51E051834083FC01EE0FFF1FEE59A4
:101CE000FC4F11821082F901E05BFC4F10822E5FE5
:101CF0003F4FF901EE0FFF1FE25FFC4F4FED51E048
:101D000051834083FC01EE0FFF1FEC5CFC4F4CED58
:101D100051E051834083FC01EE0FFF1FEC59FC4F53
:101D200011821082FC01EE5AFC4F108230930F0397
:101D300020930E038AEA91E09093630380936203F9
:101D40001092510380EC91E09093650380936403BB
:101D50001092520383E0809358041092C5011092B0
:101D6000C40110920E0210922F0210920C0281E018
:101D700080930B021092E60161E082E10E94D5059A
:101D800061E083E10E94D5058091B9008E7F809348
:101D9000B9008091B9008D7F8093B90080E2809373
:101DA000B80085E48093BC0080ED0E94B90C8535B5
:101DB00009F04DC08AEA0E94890C90935A048093DE
:101DC00059048CEA0E94890C90935C0480935B0414
:101DD0008EEA0E94890C90935E0480935D0480EBF0
:101DE0000E94890C90936A048093690482EB0E949C
:101DF000890C90936C0480936B0484EB0E94890C93
:101E000090936E0480936D0486EB0E94890C9093EE
:101E1000600480935F0488EB0E94890C90936204B5
:101E2000809361048AEB0E94890C909364048093F0
:101E300063048CEB0E94890C909366048093650484
:101E40008EEB0E94890C9093680480936704109233
:101E5000AD011092AC011092AF011092AE01109240
:101E6000B1011092B0011092B3011092B201109220
:101E7000B5011092B4011092B7011092B60181E041
:101E80000E947B0A0E94530564E170E080E090E0CC
:101E90000E945D06809130028111F1CF60E08DE0FB
:101EA0000E94D50533E6232E312C01E010E00E947C
:101EB000F80C6C01E12CF12C809158048295880F6C
:101EC000880F807C8C5C0E94DF0C8091580481110B
:101ED00005C065E070E080E090E012C0813029F438
:101EE00068E070E080E090E00BC0823029F46EE0A2
:101EF00070E080E090E004C06AE170E080E090E093
:101F00000E945D0686EF0E94890C4C01A12CB12C29
:101F1000BA2CA92C982C882488EF0E94B90C882A06
:101F2000B0915804BB8780916D0490916E04A70115
:101F30009601281B390B41095109A0916B04B091FE
:101F40006C040E9418146B017C019FE0F594E794E7
:101F5000D794C7949A95D1F76091650470916604FF
:101F6000CB01770FAA0BBB0BBC01CD012BE0660F99
:101F7000771F881F991F2A95D1F720916704309108
:101F800068042901330F66087708A7019601240D1C
:101F9000351D461D571D0E94F913C20ED31EE41EA7
:101FA000F51EE0EACE1AEFE0DE0AE108F108A7012B
:101FB0009601C701B6010E94B3139B01AC016CE00E
:101FC00055954795379527956A95D1F729833A8393
:101FD0004B835C83E0915904F0915A04FA87E987B6
:101FE000A0915D04B0915E04A70196010E942314A4
:101FF0002B013C017DE075946794579447947A9542
:10200000D1F7A0915F04B091600429813A814B819E
:102010005C810E942314BB2797FDB095AB2F840DE4
:10202000951DA61DB71D0296A11DB11DF2E0B59527
:10203000A79597958795FA95D1F79C01AD013058F2
:102040004F4F5F4FA0916904B0916A040E94181429
:102050002B013C01AFE07694679457944794AA957E
:10206000D1F788E090E0FB858F1B9109A5019401D1
:1020700004C056954795379527958A95D2F72D83B5
:102080003E834F835887E985FA854F01FF0FAA08E1
:10209000BB08B2E0880C991CAA1CBB1CBA95D1F7EE
:1020A000A0916104B091620429813A814B815C81E5
:1020B0000E9423149B01AC018BE055954795379501
:1020C00027958A95D1F729833A834B835C83A09126
:1020D0005B04B0915C04A70196010E942314DC010B
:1020E000CB012BE0B595A795979587952A95D1F7C4
:1020F00029813A814B815C81820F931FA41FB51FF8
:10210000880D991DAA1DBB1D0B8404C0880F991F43
:10211000AA1FBB1F0A94D2F7BC01CD016E5F7F4F8F
:102120008F4F9F4F24E030E040E050E00E94F913D1
:102130008D819E81AF81B885821B930BA40BB50B5B
:102140009C01AD0160E573EC80E090E00B8404C07D
:1021500096958795779567950A94D2F70E94B31361
:1021600097FD0BC0660F771F881F991FA30192016F
:102170000E94D71369017A010AC0A30192010E944B
:10218000D71369017A01CC0CDD1CEE1CFF1C9927CA
:10219000F7FC9A958F2D7E2D6D2D9B01AC010E9431
:1021A000B3139B01AC01AEEDBBE00E9418144C01CF
:1021B000BB2497FCB094AB2CA3E4B3EEA70196012B
:1021C0000E942614BB2797FDB095AB2F880D991D53
:1021D000AA1DBB1D8153914FAF4FBF4F44E0B59532
:1021E000A795979587954A95D1F7BC01CD016C0DC0
:1021F0007D1D8E1D9F1D0E94701520E836EE45EC5A
:1022000057E40E94C61421E03EED42E45EE30E94E2
:1022100092169B01AC0160E070E080E89FE30E94B1
:10222000541420E03AE24DE257E40E9425160E9441
:1022300038156B017C017093C3016093C2010E9449
:10224000F80CAC0160E070E080916D0490916E0438
:102250009A01AB01281B390B41095109A0916B046C
:10226000B0916C040E9418144B015C015FE0B594BE
:10227000A794979487945A95D1F7609165047091CB
:102280006604CB01770FAA0BBB0BBC01CD01EBE0C1
:10229000660F771F881F991FEA95D1F72091670471
:1022A000309168042901330F66087708A50194016D
:1022B000240D351D461D571D0E94F913D501C4017B
:1022C000820F931FA41FB51F0896A11DB11DBC014D
:1022D000CD01F4E09595879577956795FA95D1F7B7
:1022E0000E94701520E030E040E251E40E94C614E4
:1022F0000E9438157093C1016093C0012091BE0106
:102300003091BF012431310521F4D092BD01C0923A
:10231000BC014091B8015091B901FA01EE0FFF1FC5
:10232000E455FE4F8091BA019091BB0160817181AB
:10233000861B970BD182C0828C0D9D1D9093BB0193
:102340008093BA014F5F5F4F463051052CF4509394
:10235000B9014093B80104C01092B9011092B801BC
:1023600066E070E00E94C3138091BC019091BD01B2
:10237000681B790B7093AB016093AA01253131057D
:1023800054F42F5F3F4F3093BF012093BE01109252
:10239000AB011092AA010E943B030E9453050E94C8
:1023A0003B034B015C0160E083E00E94210662E098
:1023B00084E00E9421060E94210989E394E00E94A2
:1023C0002A0489E394E00E943904892B61F40E9475
:1023D0003B03DC01CB0188199909AA09BB090697BF
:1023E000A105B10570F389E394E00E943904181641
:1023F00019060CF04FC089E394E00E94500420912C
:102400000101309102012817390709F443C0909364
:102410000201809301012091A8013091A901803B24
:10242000910569F1803E910521F08037910591F584
:1024300011C02430310571F12F5F3F4F3093A90156
:102440002093A8012330310529F51092A90110929B
:10245000A80120C024303105E9F02336310529F4E4
:102460001093A9010093A80115C0215031093093A0
:10247000A9012093A801253031053CF70BC022307B
:10248000310541F4D092BD01C092BC013092A90146
:102490002092A8018091A8019091A9018430910512
:1024A00009F479C01092A7011092A601813091051C
:1024B000F1F044F4892B09F074C06AE872E089E90C
:1024C00092E06DC08230910509F452C083369105C7
:1024D00009F067C0109241021092310268E472E084
:1024E00081E492E00E94271868E372E04DC01092E8
:1024F0004102109231026FE772E081E492E00E94A3
:102500002718109251026091AA017091AB01072E19
:10251000000C880B990B0E9470150E943E0961E522
:1025200072E081E492E00E941C186DE772E081E4A1
:1025300092E00E94271865E772E081E392E00E9432
:102540002718109251026091C0017091C101072EAD
:10255000000C880B990B0E9470150E943E0961E5E2
:1025600072E081E392E00E941C1862E772E00CC006
:10257000109241021092310263E672E081E492E02F
:102580000E94271868E572E081E392E00E94271814
:102590000E94400A06C069E172E088E292E00E946F
:1025A000120A8091A4019091A50101969093A50132
:1025B0008093A401059744F081E00E947B0A109269
:1025C000A5011092A40103C080E00E947B0A0E9432
:1025D0003B0361E084E00E9421060E940C0367CC6B
:1025E00088E291E090933A04809339042091450465
:1025F000263140F5283028F02E3030F0ECE6F0E0BF
:1026000005C0EDE6F0E002C0EBE6F0E030812830F6
:1026100038F481E090E001C0880F2A95EAF70FC0F6
:10262000422F50E02E3018F44850510902C04E504D
:10263000510981E090E001C0880F4A95EAF7809542
:10264000832380830895CF93DF93E5E6F2E013823E
:10265000128288EE93E0A0E0B0E084839583A683A5
:10266000B78328E031E03183208325EC30E03587E3
:10267000248724EC30E03787268720EC30E0318B4C
:10268000208B21EC30E0338B228B22EC30E0358B39
:10269000248B26EC30E0378B268B118E128E138E16
:1026A000148EE2E0F3E01382128284839583A68382
:1026B000B78328E131E031832083C9E3D4E01B8272
:1026C0001A828C839D83AE83BF8388E291E09983D5
:1026D00088831C8A1B8A1E8A1D8A188E1F8A1A8E5E
:1026E000198E1C8E1B8EE6E5F4E080818E7F808340
:1026F00061E084E00E94210661E084E00E94D5054B
:10270000E5EDF3E0E491E88BE1ECF3E0E491F0E057
:10271000EE0FFF1FE755FC4F859194919A8B898BA3
:1027200062E083E00E94210683E08C87E4EDF3E021
:10273000E491ED87E0ECF3E0E491F0E0EE0FFF1FB1
:10274000ED54FC4F859194919F878E871092800362
:1027500010920F0310920E0310923804109281030E
:10276000DF91CF910895DB018F939F930E941814FE
:10277000BF91AF91A29F800D911DA39F900DB29F1D
:10278000900D1124089597FB072E16F4009407D09E
:1027900077FD09D00E942B1407FC05D03EF49095DC
:1027A00081959F4F0895709561957F4F0895A1E29F
:1027B0001A2EAA1BBB1BFD010DC0AA1FBB1FEE1FBB
:1027C000FF1FA217B307E407F50720F0A21BB30B06
:1027D000E40BF50B661F771F881F991F1A9469F782
:1027E00060957095809590959B01AC01BD01CF01DE
:1027F0000895052E97FB1EF400940E94101457FDB7
:1028000007D00E94D71307FC03D04EF40C94101489
:1028100050954095309521953F4F4F4F5F4F08950C
:1028200090958095709561957F4F8F4F9F4F08953C
:102830000E944514A59F900DB49F900DA49F800DFC
:10284000911D11240895B7FF0C9418140E941814B8
:10285000821B930B0895AA1BBB1B51E107C0AA1F43
:10286000BB1FA617B70710F0A61BB70B881F991F31
:102870005A95A9F780959095BC01CD010895EE0F6A
:10288000FF1F0590F491E02D0994A29FB001B39F22
:10289000C001A39F700D811D1124911DB29F700D69
:1028A000811D1124911D08955058BB27AA270E940D
:1028B0006C140C94E6150E94D81538F00E94DF15B0
:1028C00020F039F49F3F19F426F40C94D5150EF43A
:1028D000E095E7FB0C94CF15E92F0E94F71558F30C
:1028E000BA17620773078407950720F079F4A6F5F5
:1028F0000C9419160EF4E0950B2EBA2FA02D0B0197
:10290000B90190010C01CA01A0011124FF27591B34
:1029100099F0593F50F4503E68F11A16F040A22F3A
:10292000232F342F4427585FF3CF469537952795AB
:10293000A795F0405395C9F77EF41F16BA0B620BAA
:10294000730B840BBAF09150A1F0FF0FBB1F661FF1
:10295000771F881FC2F70EC0BA0F621F731F841F34
:1029600048F4879577956795B795F7959E3F08F05A
:10297000B0CF9395880F08F09927EE0F979587951C
:1029800008950E94AB1508F481E008950E94DA14BE
:102990000C94E6150E94DF1558F00E94D81540F0FF
:1029A00029F45F3F29F00C94CF1551110C941A169D
:1029B0000C94D5150E94F71568F39923B1F35523AC
:1029C00091F3951B550BBB27AA2762177307840742
:1029D00038F09F5F5F4F220F331F441FAA1FA9F3D8
:1029E00035D00E2E3AF0E0E832D091505040E695C6
:1029F000001CCAF72BD0FE2F29D0660F771F881F27
:102A0000BB1F261737074807AB07B0E809F0BB0B19
:102A1000802DBF01FF2793585F4F3AF09E3F51052D
:102A200078F00C94CF150C941A165F3FE4F3983E9F
:102A3000D4F3869577956795B795F7959F5FC9F716
:102A4000880F911D9695879597F90895E1E0660F97
:102A5000771F881FBB1F621773078407BA0720F010
:102A6000621B730B840BBA0BEE1F88F7E095089579
:102A70000E943F156894B1110C941A1608950E9493
:102A8000FF1588F09F5798F0B92F9927B751B0F0EC
:102A9000E1F0660F771F881F991F1AF0BA95C9F7E2
:102AA00014C0B13091F00E941916B1E008950C9451
:102AB0001916672F782F8827B85F39F0B93FCCF304
:102AC000869577956795B395D9F73EF4909580955F
:102AD000709561957F4F8F4F9F4F0895E89409C07F
:102AE00097FB3EF490958095709561957F4F8F4F41
:102AF0009F4F9923A9F0F92F96E9BB279395F69557
:102B0000879577956795B795F111F8CFFAF4BB0FD4
:102B100011F460FF1BC06F5F7F4F8F4F9F4F16C038
:102B2000882311F096E911C0772321F09EE8872FC2
:102B3000762F05C0662371F096E8862F70E060E07E
:102B40002AF09A95660F771F881FDAF7880F9695F7
:102B5000879597F90895990F0008550FAA0BE0E89B
:102B6000FEEF16161706E807F907C0F0121613064F
:102B7000E407F50798F0621B730B840B950B39F48F
:102B80000A2661F0232B242B252B21F408950A26F5
:102B900009F4A140A6958FEF811D811D089597F935
:102BA0009F6780E870E060E008959FEF80EC0895F3
:102BB00000240A941616170618060906089500241C
:102BC0000A9412161306140605060895092E039496
:102BD000000C11F4882352F0BB0F40F4BF2B11F40A
:102BE00060FF04C06F5F7F4F8F4F9F4F089557FD69
:102BF0009058440F551F59F05F3F71F04795880F6B
:102C000097FB991F61F09F3F79F087950895121601
:102C100013061406551FF2CF4695F1DF08C01616AD
:102C200017061806991FF1CF86957105610508945E
:102C30000895E894BB2766277727CB0197F9089575
:102C40000E94AB1508F48FEF08950E9438160C947B
:102C5000E6150E94D81538F00E94DF1520F0952364
:102C600011F00C94CF150C94D51511240C941A1650
:102C70000E94F71570F3959FC1F3950F50E0551F13
:102C8000629FF001729FBB27F00DB11D639FAA27C1
:102C9000F00DB11DAA1F649F6627B00DA11D661F10
:102CA000829F2227B00DA11D621F739FB00DA11D31
:102CB000621F839FA00D611D221F749F3327A00DEB
:102CC000611D231F849F600D211D822F762F6A2F87
:102CD00011249F5750409AF0F1F088234AF0EE0FEC
:102CE000FF1FBB1F661F771F881F91505040A9F719
:102CF0009E3F510580F00C94CF150C941A165F3F3F
:102D0000E4F3983ED4F3869577956795B795F79554
:102D1000E7959F5FC1F7FE2B880F911D96958795CC
:102D200097F90895FA01EE0FFF1F3096210531053E
:102D3000A1F16115710561F48038BFE39B0749F18A
:102D400068949038810561F08038BFEF9B0741F0AF
:102D500099234AF5FF3FE1053105210519F1E89472
:102D60000894E795D901AA2329F4AB2FBE2FF85F69
:102D7000D0F310C0FF5F70F4A695E0F7F73950F07C
:102D800019F0FF3A38F49F779F930DD00F9007FC0E
:102D90009058089546F00C94D51560E070E080E8F6
:102DA0009FE308954FE79F775F934F933F932F9350
:102DB0000E948D172F913F914F915F910E94251690
:102DC0000C94EA1629F416F00C94CF150C941916ED
:102DD0000C94D5150E94FF15A8F39638A0F707F8B4
:102DE0000F92E8942BE33AEA48EB5FE70E943B1628
:102DF0000F920F920F924DB75EB70F920E94D517A8
:102E0000E8E6F0E00E941C174F915F91EF91FF916F
:102E1000E595EE1FFF1F49F0FE57E0684427EE0FCF
:102E2000441FFA95E1F74195550B0E944F170F90FB
:102E300007FE0C9443170895DF93CF931F930F93CE
:102E4000FF92EF92DF927B018C01689406C0DA2E2C
:102E5000EF010E943816FE01E894A5912591359165
:102E600045915591A6F3EF010E946C14FE01970164
:102E7000A801DA9469F7DF90EF90FF900F911F910E
:102E8000CF91DF9108959B01AC0160E070E080E894
:102E90009FE30C94C6140C94CF150C9409180E944F
:102EA000FF15D8F39923C9F3940F511DA3F3915043
:102EB000504094F059F0882332F0660F771F881F36
:102EC00091505040C1F79E3F51052CF7880F911D3E
:102ED0009695879597F908955F3FACF0983E9CF0E2
:102EE000BB27869577956795B79508F4B16093955C
:102EF000C1F7BB0F58F711F460FFE8CF6F5F7F4F4A
:102F00008F4F9F4FE3CF0C941A1616F00C940918AC
:102F10000C94D51568940C94CF150E94FF15A8F356
:102F20009923C1F3AEF3DF93CF931F930F93FF92D7
:102F3000C92FDD2788232AF02197660F771F881F66
:102F4000DAF720E030E040E85FEB9FE3883920F0DB
:102F5000803E38F021968F770E945514E0E9F0E02A
:102F600004C00E945514EDEBF0E00E941C178B0189
:102F7000BE01EC01FB2E6F5771097595771F880B09
:102F8000990B0E94701528E132E741E35FE30E944C
:102F90003816AF2D9801AE01FF900F911F91CF9180
:102FA000DF910E946C140C94E615FA01DC01AA0F63
:102FB000BB1F9B01AC01BF5728F4222733274427AE
:102FC000507820C0B75190F4AB2F00244695379528
:102FD0002795011CA395D2F3002071F0220F331F17
:102FE000441FB395DAF30ED00C945414613071057C
:102FF000A0E88A07B94630F49B01AC016627772721
:1030000088279078309621F0208331834283538340
:1030100008959F3F31F0915020F4879577956795FB
:10302000B795880F911D9695879597F9089581E03A
:1030300090E0F8940C946E18FB01DC010D900020D8
:10304000E9F7119701900D920020E1F70895FB0137
:10305000DC010D900020E9F7119705900D920020FA
:10306000E1F70895FB01DC0105900D920020E1F7E6
:103070000895BB274A3031F4992322F4BDE290959C
:1030800081959F4F0C944518BB27FB015527AA2714
:10309000880F991FAA1FA41710F0A41B83955051E5
:1030A000B9F7A05DAA3308F0A95DA193009779F75D
:1030B000B111B1931192CB010C945E18DC01FC01AB
:1030C000672F71917723E1F7329704C07C916D935C
:1030D00070836291AE17BF07C8F3089511E0C4EF83
:1030E000D1E004C0FE010E943F142196C53FD107E4
:0630F000C9F7F894FFCFC0
:1030F60001F0000600000000A3021F026C024A0253
:103106005E02EA0200000000D503A5039D038903C1
:103116007A03790300000000D4041F023904500426
:0431260010042A0463
:00000001FF
