:100000000C94D8010C9400020C9400020C943A0851
:100010000C9416080C94F2070C9400020C94000245
:100020000C9400020C9400020C9400020C94000248
:100030000C9400020C9400020C9400020C94000238
:100040000C947A060C9400020C9486050C946005BE
:100050000C9400020C9400020C9400020C94000218
:100060000C94C4060C94000207634236B79BD8A7D1
:100070001A39685618AEBAAB558C1D3CB7CC5763CD
:10008000BD6DEDFD753EF6177231BF000000803F7B
:1000900008000000BE922449123EABAAAA2ABECD97
:1000A000CCCC4C3E00000080BEABAAAAAA3E000009
:1000B0000000BF000000803F000000000008417801
:1000C000D3BB4387D1133D190E3CC3BD4282AD2B38
:1000D0003E68EC8276BED98FE1A93E4C80EFFFBE30
:1000E00001C4FF7F3F00000000000000000024006A
:1000F00027002A0000000008000201000003040796
:10010000000000000000000000C201000100050026
:1001100005000300030000E1000001000F000F00D4
:100120000D000D0000960000020019001A001700D3
:100130001700127A00000700200021001D001D009A
:10014000807000000B002300230020002000004BE3
:10015000000014003700370034003400403800003D
:100160001E004B004B0048004800482600003100AC
:10017000710071006F006F00E42500003100710014
:1001800071006F006F008025000032007200720065
:1001900070007000C01200006E00E900E900E60087
:1001A000E60060090000E500D801D801D501D501BD
:1001B000B0040000D301B403B403B103B103580287
:1001C0000000B40367076707620762072C0100009D
:1001D0006707DD0EDD0EDA0EDA0E2000B0430054A4
:1001E000656D7065726174757265006D00416C7447
:1001F00069747564650052435400204A657469202F
:10020000416C744D657465720020524354204A65F8
:10021000746920546F6F6C7300B0430054656D7047
:100220002E3A20006D00416C7469747564653A2043
:1002300000204A65746920416C744D6574657200D4
:1002400020524354204A65746920546F6F6C7300C8
:10025000204A65746920416C744D65746572002094
:10026000524354204A65746920546F6F6C730000C8
:10027000070E091C1B1215383F363124232A2D7016
:10028000777E796C6B6265484F464154535A5DE006
:10029000E7EEE9FCFBF2F5D8DFD6D1C4C3CACD90B6
:1002A000979E998C8B8285A8AFA6A1B4B3BABDC71F
:1002B000C0C9CEDBDCD5D2FFF8F1F6E3E4EDEAB756
:1002C000B0B9BEABACA5A28F88818693949D9A27C6
:1002D00020292E3B3C35321F18111603040D0A57F6
:1002E00050595E4B4C45426F68616673747D7A89E4
:1002F0008E878095929B9CB1B6BFB8ADAAA3A4F996
:10030000FEF7F0E5E2EBECC1C6CFC8DDDAD3D46985
:100310006E676075727B7C51565F584D4A43441935
:100320001E171005020B0C21262F283D3A33344EA0
:1003300049404752555C5B7671787F6A6D64633ED5
:1003400039303722252C2B0601080F1A1D1413AE45
:10035000A9A0A7B2B5BCBB9691989F8A8D8483DE75
:10036000D9D0D7C2C5CCCBE6E1E8EFFAFDF4F30073
:10037000000000250028002B0000000000230026BC
:10038000002900040404040404040402020202021A
:100390000203030303030301020408102040800149
:1003A000020408102001020408102000C91296124D
:1003B00011241FBECFEFD8E0DEBFCDBF11E0A0E01B
:1003C000B1E0E2E4F0E302C005900D92A433B1077E
:1003D000D9F724E0A4E3B1E001C01D92A039B2072F
:1003E000E1F711E0C7EDD1E004C02197FE010E94C2
:1003F000E513C63DD107C9F70E94AC0C0C94141844
:100400000C940000CF92DF92EF92FF920F931F9314
:10041000CF93DF936C017A018B01C0E0D0E0CE1561
:10042000DF0589F0D8016D918D01D601ED91FC9128
:100430000190F081E02DC6010995892B11F47E0110
:1004400002C02196ECCFC701DF91CF911F910F9190
:10045000FF90EF90DF90CF900895FC01918D828DF9
:10046000981761F0828DDF01A80FB11D5D968C9108
:10047000928D9F5F9F73928F90E008958FEF9FEF13
:100480000895FC01918D828D981731F0828DE80FCF
:10049000F11D858D90E008958FEF9FEF0895FC0189
:1004A000918D228D892F90E0805C9F4F821B910956
:1004B0008F739927089585E892E00E944F0221E00A
:1004C000892B09F420E0822F0895FC01848DDF013F
:1004D000A80FB11DA35ABF4F2C91848D90E00196B7
:1004E0008F739927848FA689B7892C93A089B189A6
:1004F0008C9180648C93938D848D981306C00288B0
:10050000F389E02D80818F7D80830895EF92FF92A3
:100510000F931F93CF93DF93EC0181E0888F9B8D26
:100520008C8D981305C0E889F989808185FD24C0E8
:10053000F62E0B8D10E00F5F1F4F0F731127E02E6B
:100540008C8DE8120CC00FB607FCFACFE889F98948
:10055000808185FFF5CFCE010E946502F1CF8B8DA2
:10056000FE01E80FF11DE35AFF4FF0820B8FEA897D
:10057000FB898081806207C0EE89FF896083E889FA
:10058000F98980818064808381E090E0DF91CF9160
:100590001F910F91FF90EF900895CF93DF93EC019F
:1005A000888D8823C9F0EA89FB89808185FD05C093
:1005B000A889B9898C9186FD0FC00FB607FCF5CFCD
:1005C000808185FFF2CFA889B9898C9185FFEDCF15
:1005D000CE010E946502E7CFDF91CF91089580E0C0
:1005E00090E0892B29F00E945B0281110C9400009D
:1005F00008953FB7F8948091A0019091A101A09136
:10060000A201B091A30126B5A89B05C02F3F19F008
:100610000196A11DB11D3FBFBA2FA92F982F882782
:10062000820F911DA11DB11DBC01CD0143E0660FDC
:10063000771F881F991F4A95D1F708952FB7F8940F
:1006400060919C0170919D0180919E0190919F010C
:100650002FBF089585ED8093BC008091BC0084FD80
:10066000FCCF10922C02089540917601262F30E0A5
:10067000240F311D21323105DCF420912C0224306D
:10068000C9F4FC0180E090E0861758F430917601BF
:100690002191DC01AC5ABE4FA30FB11D2C930196E2
:1006A000F3CF80917601680F6093760180E0089522
:1006B00081E0089582E008950895E091E501809138
:1006C000E401E81730F4F0E0EA51FE4F808190E059
:1006D00008958FEF9FEF08959091E5018091E401D7
:1006E000981750F4E92FF0E0EA51FE4F208130E0F6
:1006F0009F5F9093E50102C02FEF3FEFC90108957E
:100700008091E40190E02091E501821B9109089518
:10071000CF92DF92EF92FF920F931F93CF93DF93CD
:100720007C01262F972F8A0180912D02882391F03A
:10073000C62FD72F6E01C40ED51ECC15DD0571F066
:100740006991D701ED91FC910190F081E02DC701F5
:100750000995F3CF642F822F0E943403C801DF91E3
:10076000CF911F910F91FF90EF90DF90CF90089560
:10077000CF93DF931F92CDB7DEB7698320912D020F
:100780002223D1F020914F02203240F021E030E0CE
:10079000FC013383228380E090E015C080912E021B
:1007A000E82FF0E0E15DFD4F998190838F5F8093AA
:1007B0002E0280934F0205C061E0CE0101960E9497
:1007C000340381E090E00F90DF91CF910895DC0138
:1007D0005196ED91FC915297908150968C91809515
:1007E0008923808308952091830230918402281701
:1007F000390781F49091810280918202981751F01B
:10080000E0918102F0E0EC5CFE4F8081082E000C4C
:10081000990B08958FEF9FEF0895209183023091F7
:1008200084022817390739F48FB7F894109282029E
:10083000109281028FBF089520918302309184022B
:100840002817390769F4809182022091810290E093
:100850008096821B910960E270E00E9469130895FE
:100860008FEF9FEF08952091830230918402281723
:100870003907B9F490918102809182029817A1F012
:10088000E0918102F0E0EC5CFE4F808120918102DA
:1008900030E02F5F3F4F2F7133272093810290E08C
:1008A00008958FEF9FEF08958EEF9FEF089520E05A
:1008B00001972FEF8F3F9207D9F70895EF92FF929C
:1008C0000F931F93CF93DF93C0918302D091840243
:1008D000209709F443C08B899C890E94570488E0C3
:1008E000E82EF12C10E001E08D899E890E945704CA
:1008F000EE85FF8590818D85892311F0102B03C033
:10090000802F80951823000F81E0E81AF10861F725
:100910008D899E890E9457048F89988D0E94570463
:10092000809182022091810290E001968F71992737
:1009300030E08217930779F0E0918202F0E0EC5CFE
:10094000FE4F10838091820290E001968F7199276B
:100950008093820203C08D8D81608D8FDF91CF9156
:100960001F910F91FF90EF9008950E94BD17CF92B5
:10097000DF92EF92FF920F931F93CF93DF93EC01DF
:10098000898D9A8D009729F421E030E03B832A83FA
:1009900064C0FFB6F89428E030E090E081E0482F92
:1009A000462309F09F5F880F21503109C1F78E8DD2
:1009B00081119F5FE62E192F1095CE010E94E7034B
:1009C000898D9A8D04960E94570488E0C82ED12CF8
:1009D00001E0802F8E2139F0E989FA899081888998
:1009E000892B808303C0CE010E94E703898D9A8DF5
:1009F0000E945704000F81E0C81AD10851F78E8D6C
:100A0000882339F0E989FA8990818889892B808344
:100A100003C0CE010E94E703898D9A8D0E9457047E
:100A200010FF07C0E989FA8990818889892B808322
:100A300003C0CE010E94E703898D9A8D0E9457045E
:100A4000E989FA8990818889892B8083FFBE8B8D03
:100A50009C8D0E94570481E090E0DF91CF911F911F
:100A60000F91FF90EF90DF90CF900895CF93DF9399
:100A7000C0E0D0E08091580490E0C817D907ECF4AA
:100A8000209761F00197C817D90741F081E02091C4
:100A9000560430915704C217D30709F480E0FE01D1
:100AA000EE55FC4F60818093770489E594E00E94C5
:100AB000B704109277042196DDCFDF91CF9108958E
:100AC0001F920F920FB60F9211242F933F934F93C3
:100AD0005F936F937F938F939F93AF93BF93EF93A6
:100AE000FF9385E892E00E946502FF91EF91BF912C
:100AF000AF919F918F917F916F915F914F913F91B6
:100B00002F910F900FBE0F901F9018951F920F926C
:100B10000FB60F9211242F938F939F93EF93FF9310
:100B2000E0919502F09196028081E0919B02F09114
:100B30009C0282FD12C0908180919E028F5F8F7314
:100B400020919F02821751F0E0919E02F0E0EB5756
:100B5000FD4F958F80939E0201C08081FF91EF91A0
:100B60009F918F912F910F900FBE0F901F9018950E
:100B700090E0FC01EC50FF4F3491FC01E956FC4F32
:100B80002491FC01ED57FC4FE491EE2309F43BC0A6
:100B9000332339F1333091F038F43130A9F0323069
:100BA00001F584B58F7D12C0373091F03830A1F057
:100BB0003430B9F4809180008F7D03C08091800033
:100BC0008F77809380000DC084B58F7784BD09C076
:100BD0008091B0008F7703C08091B0008F7D8093AB
:100BE000B000F0E0EE0FFF1FE159FC4FA591B4916A
:100BF0008FB7F894EC91611103C020952E2301C0AA
:100C00002E2B2C938FBF0895CF93DF9390E0FC01A0
:100C1000E956FC4F2491FC01ED57FC4F8491882349
:100C200061F190E0880F991FFC01E651FF4FC591DB
:100C3000D491FC01E159FC4FA591B491611109C017
:100C40009FB7F8948881209582238883EC912E2386
:100C50000BC0623061F49FB7F8943881822F809581
:100C600083238883EC912E2B2C939FBF06C08FB7D4
:100C7000F894E8812E2B28838FBFDF91CF910895C0
:100C80008F929F92AF92BF92CF92DF92EF92FF929C
:100C90006B017C010E94F9024B015C01C114D1047B
:100CA000E104F104F1F00E94F902DC01CB018819A2
:100CB0009909AA09BB09883E9340A105B10570F3C3
:100CC00021E0C21AD108E108F10888EE880E83E01D
:100CD000981EA11CB11CC114D104E104F10419F740
:100CE000DDCFFF90EF90DF90CF90BF90AF909F90BF
:100CF0008F9008951F920F920FB60F9211242F9389
:100D00003F938F939F93AF93BF9380919C0190915A
:100D10009D01A0919E01B0919F0130919B0126E021
:100D2000230F2D3720F40296A11DB11D05C029E81F
:100D3000230F0396A11DB11D20939B0180939C015D
:100D400090939D01A0939E01B0939F018091A0017B
:100D50009091A101A091A201B091A3010196A11DC2
:100D6000B11D8093A0019093A101A093A201B09323
:100D7000A301BF91AF919F918F913F912F910F90C0
:100D80000FBE0F901F9018951F920F920FB60F92E3
:100D900011242F933F934F935F936F937F938F9380
:100DA0009F93AF93BF93EF93FF938091B900887F98
:100DB000803609F49CC068F5883209F45BC090F471
:100DC000803109F454C038F4882309F4F6C088301F
:100DD00009F44DC0F6C0883109F44CC0803209F4E2
:100DE0005DC0EFC0803409F468C048F4803309F472
:100DF00055C0883309F0E5C080932A02D8C08035F9
:100E000009F44FC0883509F45DC0883409F0D9C0B1
:100E1000D6C0883909F4C7C0A8F4883709F467C078
:100E200038F4883609F463C0803709F460C0C9C05B
:100E3000883809F4B8C0803909F45FC0803809F0F7
:100E4000C0C05BC0803B09F486C038F4803A09F426
:100E500066C0883A09F47FC0B4C0803C09F4A7C0DA
:100E6000883C09F4A4C0883B09F48AC0AAC08091D8
:100E7000070210C09091290280912802981770F5FE
:100E8000E091290281E08E0F80932902F0E0E85F73
:100E9000FD4F80818093BB0085EC86C080932A0241
:100EA0008EC0E091290281E08E0F8093290280910B
:100EB000BB00F0E0E85FFD4F8083909129028091B4
:100EC00028026EC0E091290281E08E0F80932902F2
:100ED0008091BB00F0E0E85FFD4F808380912B02A2
:100EE00081116DC081E08093060284EA61C083E0D5
:100EF00080932C0210929A01CFCF80919A01803278
:100F000008F051C0E0919A0181E08E0F80939A0120
:100F10008091BB00F0E0E658FE4F8083BDCF85ECAA
:100F20008093BC0010922C0280919A01803230F4A0
:100F3000E0919A01F0E0E658FE4F108260919A012C
:100F400070E0E0917801F09179018AE791E00995EC
:100F500010929A0136C084E080932C02109277019F
:100F600010927601E0917401F091750109958091DC
:100F70007601811105C081E08093760110925401C1
:100F8000E091770181E08E0F80937701F0E0EC5AD9
:100F9000FE4F80818093BB00909177018091760114
:100FA000981708F479CF85E88093BC000AC085ECD7
:100FB0008093BC0010922C0204C010922A020E945E
:100FC0002A03FF91EF91BF91AF919F918F917F91F4
:100FD0006F915F914F913F912F910F900FBE0F90A6
:100FE0001F9018951F920F920FB60F9211242F93F6
:100FF0003F934F935F936F937F938F939F93AF93A1
:10100000BF93EF93FF930E945E04FF91EF91BF9116
:10101000AF919F918F917F916F915F914F913F9190
:101020002F910F900FBE0F901F9018951F920F9247
:101030000FB60F9211242F933F934F935F936F93AB
:101040007F938F939F93AF93BF93EF93FF930E94F0
:101050005E04FF91EF91BF91AF919F918F917F912E
:101060006F915F914F913F912F910F900FBE0F9015
:101070001F9018951F920F920FB60F9211242F9365
:101080003F934F935F936F937F938F939F93AF9310
:10109000BF93EF93FF930E945E04FF91EF91BF9186
:1010A000AF919F918F917F916F915F914F913F9100
:1010B0002F910F900FBE0F901F90189520914F0207
:1010C00090918F04213208F04AC080912C02811146
:1010D000FCCF32E030932C0231E030932B023FEF13
:1010E00030932A021092290220932802AFE2B2E044
:1010F00048E052E0FA013E2F341B321718F43D91BC
:101100003193F9CF1092070220910702990F922B89
:101110009093070290910602913061F410920602BA
:10112000909107029093BB009091BC0093FDF8CF83
:1011300095EC01C095EE9093BC0090912C029230FA
:10114000E1F390912A029F3F79F080912A02803248
:1011500041F080912A02803331F084E005C081E0C3
:1011600003C082E001C083E010922E0210924F0271
:1011700010922D02089590912C029111FCCF813292
:1011800008F080E291E090932C0290932B022FEFD5
:1011900020932A0210922902280F2093280290936C
:1011A0000702909107029C6E9093070290910602AD
:1011B000913061F410920602909107029093BB0067
:1011C0009091BC0093FDF8CF95EC01C095EE909303
:1011D000BC0090912C029130E1F390912902981774
:1011E00010F480912902A8E0B2E026EE31E0F90186
:1011F0009E2F921B981718F49D919193F9CF1092FE
:10120000E5018093E4010895809183029091840226
:1012100089559440A1F0809176048E7F8093760466
:101220008FB7F894109282021092810229E534E07F
:1012300030938402209383028FBF81E0089580E081
:1012400008952F923F924F925F926F927F928F926A
:101250009F92AF92BF92CF92DF92EF92FF920F9345
:101260001F93CF93DF9300D000D0CDB7DEB72B0113
:101270003C0120E030E0A9010E94671487FF05C00F
:1012800020E030E040E05FEB04C020E030E040E0F0
:101290005FE3C301B2010E94FB136B017C0120E0FC
:1012A00030E0A901C301B2010E94671487FF04C0A6
:1012B000F7FAF094F7F8F094A12CB12C8DEC282ECD
:1012C0009CEC392E8CEC8B839DE39C8320E030E0FA
:1012D00040E251E4B1018B819C810E94CB154B010E
:1012E0008C01A70196010E94671418163CF0AFEF1D
:1012F000AA1ABA0A14010B831C83E8CF20E030E05D
:10130000A901C301B2010E94671487FF06C08DE2E4
:101310008093710201E010E002C000E010E0A1142F
:10132000B10439F4F801EF58FD4F80E380830F5F7B
:101330001F4F812C912CF401E00FF11FFA83E983F8
:101340008A149B04B1F191014B815C81C701B60104
:101350000E946C140E94DE142B013C0169817A8189
:101360006F587D4F4AE0C2010E94DF17B201550C51
:10137000880B990B0E94161591014B815C810E948C
:10138000CB159B01AC01C701B6010E94FA136B019A
:101390007C0120E030E040E251E4B1018B819C818E
:1013A0000E946C141B018B839C83BFEF8B1A9B0ADA
:1013B000C2CFEF58FD4F108281E792E00F900F905F
:1013C0000F900F90DF91CF911F910F91FF90EF90B1
:1013D000DF90CF90BF90AF909F908F907F906F9055
:1013E0005F904F903F902F900895A1E5B2E020E0EC
:1013F00040E250E15A0F21111FC0FC013491332308
:10140000D9F03C93119601965A13F5CF80E090E005
:1014100020E030E2DC01AF5ABD4F211110C0FB01CA
:10142000E80FF91FE491EE2351F05096EC930196EA
:101430008031910579F708954C9321E0E3CF5096E0
:101440003C9321E0F4CF2F923F924F925F926F92A4
:101450007F928F929F92AF92BF92CF92DF92EF9244
:10146000FF920F931F93CF93DF93CDB7DEB7A09773
:101470000FB6F894DEBF0FBECDBF9091A0039923A5
:10148000C9F02EE72093A20322E92093A30323E2CD
:101490002093A4039093A50390910301992311F045
:1014A000915003C01092A00396E09093030104E0D2
:1014B00010E002C000E010E09091A003911197C1EC
:1014C0009EE79093A2039FE99093A3031092A40335
:1014D00093E19093A50394EA9093A6039CEA9093DA
:1014E000A70397E09093A8031092A9038111E8C085
:1014F00080E48093A4037090A10380902E039090C9
:101500002F0308E010E0612CD62CD70CED2DF0E075
:10151000E815F9050CF0C7C0DF01AA0FBB1FA058E2
:10152000BC4FAD90BC90A114B10409F4B8C0D294E2
:1015300030EFD322C801825D9C4F7C01DC01AC58A6
:10154000BF4FDC92E059FC4FC080CC2021F093E0EB
:101550009C1590F104C0D5016D917C9130C06C2D2B
:1015600070E080E090E00E9414159B01AC0160E007
:1015700070E080E291E40E943816F501208131810B
:10158000428153810E94CB151B012C0120E030E0E9
:10159000A9010E94C61520E030E040E05FE387FD2E
:1015A00005C0C201B1010E94FB1304C0C201B10118
:1015B0000E94FA130E94DE14F3E0FC15B0F0F7016C
:1015C000EC58FF4F8D2D816080837F79D12C20E2F4
:1015D000C29ED02CCC2411246C297D2931966083A5
:1015E000319670830D5F1F4F5AC084E0C81211C03E
:1015F000F701EC58FF4F8D2D846080833196D50123
:101600008C918083319611968C91808331961082D3
:1016100019C0B5E0CB1219C0F701EC58FF4F8D2D62
:1016200085608083F5018281F701EB58FF4F80834D
:10163000D50111968C9111973196808331968C91BA
:101640008F7180830C5F1F4F2AC0B9E0CB1227C077
:10165000F701EC58FF4F8D2D89608083F501838160
:10166000F701EB58FF4F8083D50112968C911297AA
:101670003196808311968C911197319680838C914D
:10168000F801EA55FC4F80838C91853421F08E342B
:1016900021F4108202C0B0E2B0830B5F1F4F63944D
:1016A000E6E06E1231CF86E0870D282F30E0281556
:1016B00039051CF48093A1037BC01092A10378C06C
:1016C000E0915002F0E0EE0FFF1FE05DFC4F608103
:1016D00071817E01F1E1EF0EF11CC7010E94D81764
:1016E000E0915002F0E0EE0FFF1FE05BFC4F6081E5
:1016F00071818E010F5F1F4FC8010E94D817809122
:1017000050028093AA03F70101900020E9F7319776
:10171000EE19FF09EE0FEE0FEE0FD8010D9000202D
:10172000E9F71197A01BB10BA370EA2BE093AB0371
:10173000D7012AE030E0F70101900020E9F7319766
:10174000AF014E195F09F901EC58FF4FBD016E1949
:101750007F096417750738F49D91E25DFC4F908313
:101760002F5F3F4FE8CFE25DFC4FA801201B310BFC
:10177000B901640F751FD8010D900020E9F711978A
:10178000A01BB10B7A01E01AF10AEA16FB0628F455
:10179000DA019D91AD019193EBCF8B018F5F90E0CA
:1017A00060912E0370912F030E9469138093500261
:1017B0008091A4039EEF900F892B8093A40322E0D5
:1017C000E0E0822F90E0801791075CF4DC01AE55D9
:1017D000BC4F8C91E827F0E0E159FD4FE4912F5F79
:1017E000F0CFD801AE55BC4FEC930F5F1F4FC8012F
:1017F000825D9C4FFC01EC58FF4F2EEF208310932D
:10180000570400935604D801AD55BC4FE1E5F2E012
:1018100020E22E0F31913D932E13FCCFFC01EB56AD
:10182000FF4F8FEF80830E5D1F4F0093580481E0C0
:10183000A0960FB6F894DEBF0FBECDBFDF91CF915B
:101840001F910F91FF90EF90DF90CF90BF90AF90DE
:101850009F908F907F906F905F904F903F902F90D0
:101860000895CF93DF93C1E0C0932D0296E7909344
:101870008F0410922E0210924F02682F82E293E0A2
:101880000E94B8030E945E08C0932D0210922E029F
:1018900010924F0282E090E00E94BB0882E293E047
:1018A0000E946C03D82F80E0C82F82E293E00E9450
:1018B0006C03C82BD92B0E945E08CE01DF91CF911B
:1018C0000895CF93C1E0C0932D0296E790938F04C3
:1018D00010922E0210924F02682F82E293E00E9433
:1018E000B8030E945E08C0932D0210922E0210923F
:1018F0004F0281E090E00E94BB0882E293E00E94E8
:101900006C03C82F0E945E088C2FCF910895CF934F
:10191000C82F81E080932D0286E780938F04109278
:101920002E0210924F0264EF82E293E00E94B8030D
:101930006C2F82E293E00E94B803CF910C945E0872
:101940008EE20E94870C65E070E080E090E00E94EB
:10195000400686EF0C94310CCF93DF93CDB7DEB702
:101960002B970FB6F894DEBF0FBECDBF789484B529
:10197000826084BD84B5816084BD85B5826085BD8B
:1019800085B5816085BD80916E00816080936E0019
:10199000109281008091810082608093810080910B
:1019A00081008160809381008091800081608093BC
:1019B00080008091B10084608093B1008091B0007C
:1019C00081608093B00080917A00846080937A0077
:1019D00080917A00826080937A0080917A008E7F75
:1019E00080937A0080917A00806880937A001092C8
:1019F000C100E0919502F091960282E08083E0912F
:101A00009102F09192021082E0919302F09194027F
:101A100087E6808310929D02E0919902F0919A02EC
:101A200086E08083E0919702F09198028081806146
:101A30008083E0919702F091980280818860808392
:101A4000E0919702F0919802808180688083E09114
:101A50009702F091980280818F7D8083109200011F
:101A600061E08DE00E94040661E08DE00E94B8050F
:101A700061E083E00E9404061092750410927404E1
:101A800010927304109272041092710410927004F8
:101A900010926F0410926E0410926D0410926C04F8
:101AA00088E091E020E030E0FC014591559165919E
:101AB0007491443E55426105710509F034C04EE011
:101AC000429FC001439F900D1124FC01E45FFE4F33
:101AD0002591349130936D0420936C04FC01E25FF6
:101AE000FE4F2591349130936F0420936E04FC01D6
:101AF000E05FFE4F25913491309371042093700480
:101B0000FC01EE5EFE4F25913491309373042093D7
:101B10007204FC01EC5EFE4F8591949190937504E4
:101B20008093740407C02F5F3F4F0E962F3031050E
:101B300009F0BACF8091700490917104892B09F457
:101B400046C0909165049631E0F520916800983088
:101B500050F031E09E3008F430E081E001C0880FA1
:101B60003A95EAF701C084E0822B809368009830B0
:101B700038F09E3040F0963148F4ECE6F0E008C0D2
:101B8000EDE6F0E005C0EBE6F0E002C0E0E0F0E0FA
:101B90004081983030F481E001C0880F9A95EAF7CF
:101BA0000EC0292F30E09E3018F42850310902C0B1
:101BB0002E50310981E001C0880F2A95EAF7842B65
:101BC000808380917204909173040E9457040E9454
:101BD00004096AEF71E089E092E00E94F50986EF5E
:101BE00091E090933103809330038AED91E09093DC
:101BF00051038093500380912E0390912F039C01F9
:101C00002F5F3F4FF901EE0FFF1FE05DFC4F4DEEE0
:101C100051E051834083FC01EE0FFF1FEE5AFC4F51
:101C20004BEE51E051834083FC01EE0FFF1FEE5756
:101C3000FC4F11821082F901E059FC4F10822E5F97
:101C40003F4FF901EE0FFF1FE25DFC4F4FED51E0FA
:101C500051834083FC01EE0FFF1FEC5AFC4F4CED0B
:101C600051E051834083FC01EE0FFF1FEC57FC4F06
:101C700011821082FC01EE58FC4F108230932F032A
:101C800020932E038AEC91E0909383038093820348
:101C90001092710380EE91E090938503809384030A
:101CA0001092720383E0809378041092E501109201
:101CB000E40110922E0210924F0210922C0281E049
:101CC00080932B021092060261E082E10E94B80527
:101CD00061E083E10E94B8058091B9008E7F809316
:101CE000B9008091B9008D7F8093B90080E2809324
:101CF000B80085E48093BC0080ED0E94610C8535BE
:101D000009F04DC08AEA0E94310C90937A048093C6
:101D100079048CEA0E94310C90937C0480937B04BC
:101D20008EEA0E94310C90937E0480937D0480EBB8
:101D30000E94310C90938A048093890482EB0E9464
:101D4000310C90938C0480938B0484EB0E94310CB3
:101D500090938E0480938D0486EB0E94310C9093B7
:101D6000800480937F0488EB0E94310C909382045E
:101D7000809381048AEB0E94310C909384048093B9
:101D800083048CEB0E94310C90938604809385042D
:101D90008EEB0E94310C90938804809387041092FC
:101DA000CD011092CC011092CF011092CE01109271
:101DB000D1011092D0011092D3011092D201109251
:101DC000D5011092D4011092D7011092D60181E072
:101DD0000E94230A0E94360564E170E080E090E0F2
:101DE0000E944006809150028111F1CF60E08DE0A9
:101DF0000E94B80508E010E022242394312C0E94B0
:101E0000A00C6C01E12CF12C809178048295880F54
:101E1000880F807C8C5C0E94870C809178048111F3
:101E200005C065E070E080E090E012C0813029F4E8
:101E300068E070E080E090E00BC0823029F46EE052
:101E400070E080E090E004C06AE170E080E090E043
:101E50000E94400686EF0E94310C4C01A12CB12C4F
:101E6000BA2CA92C982C882488EF0E94610C882A0F
:101E7000B0917804BB8780918D0490918E04A70166
:101E80009601281B390B41095109A0918B04B0918F
:101E90008C040E94BE136B017C019FE0F594E794D3
:101EA000D794C7949A95D1F7609185047091860470
:101EB000CB01770FAA0BBB0BBC01CD012BE0660F4A
:101EC000771F881F991F2A95D1F720918704309199
:101ED00088042901330F66087708A7019601240DAD
:101EE000351D461D571D0E949F13C20ED31EE41EB2
:101EF000F51EE0EACE1AEFE0DE0AE108F108A701DC
:101F00009601C701B6010E9459139B01AC016CE018
:101F100055954795379527956A95D1F729833A8343
:101F20004B835C83E0917904F0917A04FA87E98726
:101F3000A0917D04B0917E04A70196010E94C9136F
:101F40002B013C017DE075946794579447947A95F2
:101F5000D1F7A0917F04B091800429813A814B810F
:101F60005C810E94C913BB2797FDB095AB2F840DF0
:101F7000951DA61DB71D0296A11DB11DF2E0B595D8
:101F8000A79597958795FA95D1F79C01AD013058A3
:101F90004F4F5F4FA0918904B0918A040E94BE13F5
:101FA0002B013C01AFE07694679457944794AA952F
:101FB000D1F7C801FB858F1B9109A501940104C0CD
:101FC00056954795379527958A95D2F72D833E8369
:101FD0004F835887E985FA854F01FF0FAA08BB0890
:101FE000B2E0880C991CAA1CBB1CBA95D1F7A09131
:101FF0008104B091820429813A814B815C810E94E5
:10200000C9139B01AC018BE05595479537952795F2
:102010008A95D1F729833A834B835C83A0917B0413
:10202000B0917C04A70196010E94C913DC01CB0189
:102030002BE0B595A795979587952A95D1F7298196
:102040003A814B815C81820F931FA41FB51F880DBD
:10205000991DAA1DBB1D0B8404C0880F991FAA1FC0
:10206000BB1F0A94D2F7BC01CD016E5F7F4F8F4F2B
:102070009F4F24E030E040E050E00E949F138D81AC
:102080009E81AF81B885821B930BA40BB50B9C017D
:10209000AD0160E573EC80E090E00B8404C09695A0
:1020A0008795779567950A94D2F70E94591397FD03
:1020B0000BC0660F771F881F991FA30192010E9412
:1020C0007D1369017A010AC0A30192010E947D1368
:1020D00069017A01CC0CDD1CEE1CFF1C9927F7FC72
:1020E0009A958F2D7E2D6D2D9B01AC010E94591369
:1020F0009B01AC01AEEDBBE00E94BE134C01BB24C2
:1021000097FCB094AB2CA3E4B3EEA70196010E9418
:10211000CC13BB2797FDB095AB2F880D991DAA1D39
:10212000BB1D8153914FAF4FBF4F44E0B595A7956D
:10213000979587954A95D1F7BC01CD016C0D7D1D12
:102140008E1D9F1D0E94161520E836EE45EC57E4C3
:102150000E946C1421E03EED42E45EE30E943816DA
:102160009B01AC0160E070E080E89FE30E94FA13FD
:1021700020E03AE24DE257E40E94CB150E94DE14C3
:102180006B017C017093E3016093E2010E94A00C5B
:10219000AC0160E070E080918D0490918E049A0112
:1021A000AB01281B390B41095109A0918B04B09157
:1021B0008C040E94BE134B015C015FE0B594A794B0
:1021C000979487945A95D1F760918504709186040D
:1021D000CB01770FAA0BBB0BBC01CD01EBE0660F67
:1021E000771F881F991FEA95D1F7209187043091B6
:1021F00088042901330F66087708A5019401240D8E
:10220000351D461D571D0E949F13D501C401820F25
:10221000931FA41FB51F0896A11DB11DBC01CD01C0
:10222000F4E09595879577956795FA95D1F70E9493
:10223000161520E030E040E251E40E946C140E9448
:10224000DE147093E1016093E001E091DE01F09112
:10225000DF01E431F10521F4D092DD01C092DC010F
:102260004091D8015091D901DA01AA0FBB1FA453A4
:10227000BE4F2091DA013091DB018D919C91119735
:10228000281B390BCD92DC92C9018C0D9D1D9093BA
:10229000DB018093DA014F5F5F4F463051052CF42C
:1022A0005093D9014093D80104C01092D9011092E3
:1022B000D80166E070E00E9469138091DC01909182
:1022C000DD01681B790B7093CB016093CA01E53186
:1022D000F1054CF43196F093DF01E093DE011092AA
:1022E000CB011092CA010E941E030E9436050E9473
:1022F0001E036B017C0160E083E00E94040662E043
:1023000084E00E9404060E94040989E594E00E948A
:102310000D0489E594E00E941C04892B61F40E945D
:102320001E03DC01CB018C199D09AE09BF0906977C
:10233000A105B10570F389E594E00E941C0418160C
:102340001906F4F589E594E00E9433042091010117
:10235000309102012817390799F190930201809377
:1023600001012091C8013091C90180379105A1F088
:10237000803E910529F52330310511F12F5F3F4F44
:102380003093C9012093C80122303105C9F410925D
:10239000C9011092C80114C02330310589F02230E0
:1023A000310529F43092C9012092C80109C0215099
:1023B00031093093C9012093C801243031053CF71D
:1023C0008091C8019091C9018330910509F489C0B9
:1023D0001092C7011092C601009709F456C00197E8
:1023E00009F085C01092B4011092A40166E272E077
:1023F00084EB91E00E94CD17109271026091CA01A6
:102400007091CB01072E000C880B990B0E941615BA
:102410000E94210961E772E084EB91E00E94C217FB
:1024200064E272E084EB91E00E94CD176CE172E00F
:1024300084EA91E00E94CD17109271026091E00150
:102440007091E101072E000C880B990B0E94161564
:102450000E94210961E772E084EA91E00E94C217BC
:1024600069E172E084EA91E00E94CD17E4EBF1E0CB
:1024700001900020E9F73197E45BF1408E2FA4EB47
:10248000B1E0E1E5F2E090E005C060E572E08FE5E3
:1024900092E02BC0981710F42C9101C020E2208309
:1024A0009F5F119631969031A9F7E4EAF1E001902F
:1024B0000020E9F73197E45AF1402E2F80E090E0B8
:1024C000FC01EF5AFD4F821728F4DC01AC55BE4FDA
:1024D0003C9101C030E2308B01968031910581F74B
:1024E00006C061E372E080E492E00E94F509809109
:1024F000C4019091C50101969093C5018093C401D8
:10250000059744F081E00E94230A1092C5011092C1
:10251000C40103C080E00E94230A0E941E0361E000
:1025200084E00E9404060E94EF0269CC88E291E0F8
:1025300090935A048093590420916504263140F504
:10254000283028F02E3030F0ECE6F0E005C0EDE663
:10255000F0E002C0EBE6F0E03081283038F481E0B2
:1025600090E001C0880F2A95EAF70FC0422F50E093
:102570002E3018F44850510902C04E50510981E0E4
:1025800090E001C0880F4A95EAF780958323808305
:102590000895CF93DF93E5E8F2E01382128288EE8C
:1025A00093E0A0E0B0E084839583A683B78328E01E
:1025B00031E03183208325EC30E03587248724EC1B
:1025C00030E03787268720EC30E0318B208B21EC00
:1025D00030E0338B228B22EC30E0358B248B26ECE1
:1025E00030E0378B268B118E128E138E148EE2E222
:1025F000F3E01382128284839583A683B78328E154
:1026000031E031832083C9E5D4E01B821A828C83B8
:102610009D83AE83BF8388E291E0998388831C8A7F
:102620001B8A1E8A1D8A188E1F8A1A8E198E1C8E6E
:102630001B8EE6E7F4E080818E7F808361E084E09A
:102640000E94040661E084E00E94B805EBE9F3E033
:10265000E491E88BE7E8F3E0E491F0E0EE0FFF1F90
:10266000E159FC4F859194919A8B898B62E083E0CC
:102670000E94040683E08C87EAE9F3E0E491ED87A9
:10268000E6E8F3E0E491F0E0EE0FFF1FE758FC4FBF
:10269000859194919F878E871092A00310922F03AB
:1026A00010922E03109258041092A103DF91CF9143
:1026B0000895DB018F939F930E94BE13BF91AF914A
:1026C000A29F800D911DA39F900DB29F900D11248C
:1026D000089597FB072E16F4009407D077FD09D0D4
:1026E0000E94D11307FC05D03EF4909581959F4F31
:1026F0000895709561957F4F0895A1E21A2EAA1B47
:10270000BB1BFD010DC0AA1FBB1FEE1FFF1FA217A1
:10271000B307E407F50720F0A21BB30BE40BF50B9E
:10272000661F771F881F991F1A9469F76095709527
:10273000809590959B01AC01BD01CF010895052EB8
:1027400097FB1EF400940E94B61357FD07D00E9419
:102750007D1307FC03D04EF40C94B61350954095AE
:10276000309521953F4F4F4F5F4F0895909580953D
:10277000709561957F4F8F4F9F4F08950E94EB1387
:10278000A59F900DB49F900DA49F800D911D1124C5
:102790000895B7FF0C94BE130E94BE13821B930BC7
:1027A0000895AA1BBB1B51E107C0AA1FBB1FA61798
:1027B000B70710F0A61BB70B881F991F5A95A9F7EA
:1027C00080959095BC01CD010895EE0FFF1F0590F7
:1027D000F491E02D0994A29FB001B39FC001A39F83
:1027E000700D811D1124911DB29F700D811D11244A
:1027F000911D08955058BB27AA270E9412140C94CB
:102800008C150E947E1538F00E94851520F039F451
:102810009F3F19F426F40C947B150EF4E095E7FB2A
:102820000C947515E92F0E949D1558F3BA1762078D
:1028300073078407950720F079F4A6F50C94BF156B
:102840000EF4E0950B2EBA2FA02D0B01B9019001CB
:102850000C01CA01A0011124FF27591B99F0593F0F
:1028600050F4503E68F11A16F040A22F232F342F57
:102870004427585FF3CF469537952795A795F040A5
:102880005395C9F77EF41F16BA0B620B730B840BBA
:10289000BAF09150A1F0FF0FBB1F661F771F881F72
:1028A000C2F70EC0BA0F621F731F841F48F48795CA
:1028B00077956795B795F7959E3F08F0B0CF9395BC
:1028C000880F08F09927EE0F9795879508950E9435
:1028D000511508F481E008950E9480140C948C1521
:1028E0000E94851558F00E947E1540F029F45F3F44
:1028F00029F00C94751551110C94C0150C947B158E
:102900000E949D1568F39923B1F3552391F3951B0C
:10291000550BBB27AA2762177307840738F09F5F00
:102920005F4F220F331F441FAA1FA9F335D00E2E6D
:102930003AF0E0E832D091505040E695001CCAF7DA
:102940002BD0FE2F29D0660F771F881FBB1F26179D
:1029500037074807AB07B0E809F0BB0B802DBF0174
:10296000FF2793585F4F3AF09E3F510578F00C9443
:1029700075150C94C0155F3FE4F3983ED4F386952B
:1029800077956795B795F7959F5FC9F7880F911D64
:102990009695879597F90895E1E0660F771F881F50
:1029A000BB1F621773078407BA0720F0621B730B03
:1029B000840BBA0BEE1F88F7E09508950E94E5148A
:1029C0006894B1110C94C01508950E94A51588F063
:1029D0009F5798F0B92F9927B751B0F0E1F0660FE3
:1029E000771F881F991F1AF0BA95C9F714C0B13024
:1029F00091F00E94BF15B1E008950C94BF15672FA8
:102A0000782F8827B85F39F0B93FCCF38695779552
:102A10006795B395D9F73EF490958095709561953B
:102A20007F4F8F4F9F4F0895E89409C097FB3EF466
:102A300090958095709561957F4F8F4F9F4F99230B
:102A4000A9F0F92F96E9BB279395F6958795779589
:102A50006795B795F111F8CFFAF4BB0F11F460FF49
:102A60001BC06F5F7F4F8F4F9F4F16C0882311F0A1
:102A700096E911C0772321F09EE8872F762F05C0B5
:102A8000662371F096E8862F70E060E02AF09A9550
:102A9000660F771F881FDAF7880F9695879597F945
:102AA0000895990F0008550FAA0BE0E8FEEF1616DF
:102AB0001706E807F907C0F012161306E407F50732
:102AC00098F0621B730B840B950B39F40A2661F0A6
:102AD000232B242B252B21F408950A2609F4A14049
:102AE000A6958FEF811D811D089597F99F6780E856
:102AF00070E060E008959FEF80EC089500240A9450
:102B00001616170618060906089500240A941216C8
:102B10001306140605060895092E0394000C11F4FB
:102B2000882352F0BB0F40F4BF2B11F460FF04C0A8
:102B30006F5F7F4F8F4F9F4F089557FD9058440F01
:102B4000551F59F05F3F71F04795880F97FB991F0C
:102B500061F09F3F79F087950895121613061406C9
:102B6000551FF2CF4695F1DF08C016161706180656
:102B7000991FF1CF86957105610508940895E89431
:102B8000BB2766277727CB0197F908950E94511537
:102B900008F48FEF08950E94DE150C948C150E94A6
:102BA0007E1538F00E94851520F0952311F00C94C5
:102BB00075150C947B1511240C94C0150E949D155D
:102BC00070F3959FC1F3950F50E0551F629FF00180
:102BD000729FBB27F00DB11D639FAA27F00DB11D99
:102BE000AA1F649F6627B00DA11D661F829F222722
:102BF000B00DA11D621F739FB00DA11D621F839FA9
:102C0000A00D611D221F749F3327A00D611D231F7E
:102C1000849F600D211D822F762F6A2F11249F57CC
:102C200050409AF0F1F088234AF0EE0FFF1FBB1FCF
:102C3000661F771F881F91505040A9F79E3F51058E
:102C400080F00C9475150C94C0155F3FE4F3983E2A
:102C5000D4F3869577956795B795F795E7959F5F38
:102C6000C1F7FE2B880F911D9695879597F90895CA
:102C7000FA01EE0FFF1F309621053105A1F1611514
:102C8000710561F48038BFE39B0749F1689490387F
:102C9000810561F08038BFEF9B0741F099234AF529
:102CA000FF3FE1053105210519F1E8940894E79506
:102CB000D901AA2329F4AB2FBE2FF85FD0F310C09F
:102CC000FF5F70F4A695E0F7F73950F019F0FF3A7E
:102CD00038F49F779F930DD00F9007FC905808957C
:102CE00046F00C947B1560E070E080E89FE3089567
:102CF0004FE79F775F934F933F932F930E94331734
:102D00002F913F914F915F910E94CB150C9490169B
:102D100029F416F00C9475150C94BF150C947B15C2
:102D20000E94A515A8F39638A0F707F80F92E8942B
:102D30002BE33AEA48EB5FE70E94E1150F920F920E
:102D40000F924DB75EB70F920E947B17E8E6F0E056
:102D50000E94C2164F915F91EF91FF91E595EE1F92
:102D6000FF1F49F0FE57E0684427EE0F441FFA9515
:102D7000E1F74195550B0E94F5160F9007FE0C9454
:102D8000E9160895DF93CF931F930F93FF92EF926D
:102D9000DF927B018C01689406C0DA2EEF010E945D
:102DA000DE15FE01E894A591259135914591559147
:102DB000A6F3EF010E941214FE019701A801DA9414
:102DC00069F7DF90EF90FF900F911F91CF91DF9106
:102DD00008959B01AC0160E070E080E89FE30C94F3
:102DE0006C140C9475150C94AF170E94A515D8F3AC
:102DF0009923C9F3940F511DA3F39150504094F0BF
:102E000059F0882332F0660F771F881F9150504089
:102E1000C1F79E3F51052CF7880F911D9695879518
:102E200097F908955F3FACF0983E9CF0BB278695DC
:102E300077956795B79508F4B1609395C1F7BB0F87
:102E400058F711F460FFE8CF6F5F7F4F8F4F9F4FB0
:102E5000E3CF0C94C01516F00C94AF170C947B15AF
:102E600068940C9475150E94A515A8F39923C1F3D5
:102E7000AEF3DF93CF931F930F93FF92C92FDD27FC
:102E800088232AF02197660F771F881FDAF720E042
:102E900030E040E85FEB9FE3883920F0803E38F077
:102EA00021968F770E94FB13E0E9F0E004C00E94B6
:102EB000FB13EDEBF0E00E94C2168B01BE01EC01AA
:102EC000FB2E6F5771097595771F880B990B0E9420
:102ED000161528E132E741E35FE30E94DE15AF2DCE
:102EE0009801AE01FF900F911F91CF91DF910E9449
:102EF00012140C948C15FA01DC01AA0FBB1F9B0164
:102F0000AC01BF5728F4222733274427507820C02C
:102F1000B75190F4AB2F0024469537952795011CA7
:102F2000A395D2F3002071F0220F331F441FB395F5
:102F3000DAF30ED00C94FA1361307105A0E88A0719
:102F4000B94630F49B01AC01662777278827907833
:102F5000309621F0208331834283538308959F3F2D
:102F600031F0915020F4879577956795B795880F44
:102F7000911D9695879597F9089581E090E0F894D2
:102F80000C941418FB01DC010D900020E9F7119757
:102F900001900D920020E1F70895FB01DC010D90F6
:102FA0000020E9F7119705900D920020E1F70895B0
:102FB000FB01DC0105900D920020E1F70895BB278D
:102FC0004A3031F4992322F4BDE2909581959F4FC8
:102FD0000C94EB17BB27FB015527AA27880F991FD5
:102FE000AA1FA41710F0A41B83955051B9F7A05D38
:102FF000AA3308F0A95DA193009779F7B111B193B5
:103000001192CB010C940418DC01FC01672F719123
:103010007723E1F7329704C07C916D9370836291BE
:10302000AE17BF07C8F3089511E0C7EDD1E004C0A3
:10303000FE010E94E5132196C83DD107C9F7F89417
:02304000FFCFC0
:1030420001F0000600000000860202024F022D027B
:103052004102CD0200000000B803880380036C0324
:103062005D035C0300000000B70402021C04330489
:04307200F3030D0453
:00000001FF
