:100000000C949C010C94C4010C94C4010C94FE0744
:100010000C94DA070C94B6070C94C4010C94C40138
:100020000C94C4010C94C4010C94C4010C94C4013C
:100030000C94C4010C94C4010C94C4010C94C4012C
:100040000C943E060C94C4010C9484050C945E053B
:100050000C94C4010C94C4010C94C4010C94C4010C
:100060000C9488060C94C40107634236B79BD8A74A
:100070001A39685618AEBAAB558C1D3CB7CC5763CD
:10008000BD6DEDFD753EF6177231BF000000803F7B
:1000900008000000BE922449123EABAAAA2ABECD97
:1000A000CCCC4C3E00000080BEABAAAAAA3E000009
:1000B0000000BF000000803F000000000008417801
:1000C000D3BB4387D1133D190E3CC3BD4282AD2B38
:1000D0003E68EC8276BED98FE1A93E4C80EFFFBE30
:1000E00001C4FF7F3F00000000000000000024006A
:1000F00027002A0000000008000201000003040796
:10010000000000000000000000C201000100050026
:1001100005000300030000E1000001000F000F00D4
:100120000D000D0000960000020019001A001700D3
:100130001700127A00000700200021001D001D009A
:10014000807000000B002300230020002000004BE3
:10015000000014003700370034003400403800003D
:100160001E004B004B0048004800E4250000310011
:10017000700071006E006E00802500003200720079
:10018000720070007000C01200006E00E900E9000B
:10019000E600E60060090000E500D801D801D501BD
:1001A000D501B0040000D301B403B403B103B1031B
:1001B00058020000B40367076707620762072C0153
:1001C00000006707DD0EDD0EDA0EDA0E20006D008E
:1001D000416C746974756465005243540020204179
:1001E0006C7469747564650020524354204A6574C8
:1001F0006920546F6F6C730000070E091C1B1215E9
:10020000383F363124232A2D70777E796C6B6265F6
:10021000484F464154535A5DE0E7EEE9FCFBF2F5E6
:10022000D8DFD6D1C4C3CACD90979E998C8B8285D6
:10023000A8AFA6A1B4B3BABDC7C0C9CEDBDCD5D2C6
:10024000FFF8F1F6E3E4EDEAB7B0B9BEABACA5A2B6
:100250008F88818693949D9A2720292E3B3C3532A6
:100260001F18111603040D0A5750595E4B4C454296
:100270006F68616673747D7A898E878095929B9C86
:10028000B1B6BFB8ADAAA3A4F9FEF7F0E5E2EBEC76
:10029000C1C6CFC8DDDAD3D4696E676075727B7C66
:1002A00051565F584D4A4344191E171005020B0C56
:1002B00021262F283D3A33344E49404752555C5B46
:1002C0007671787F6A6D64633E39303722252C2B36
:1002D0000601080F1A1D1413AEA9A0A7B2B5BCBB26
:1002E0009691989F8A8D8483DED9D0D7C2C5CCCB16
:1002F000E6E1E8EFFAFDF4F3000000002500280035
:100300002B00000000002300260029000404040440
:1003100004040404020202020202030303030303AF
:10032000010204081020408001020408102001028C
:10033000040810205510221011241FBECFEFD8E062
:10034000DEBFCDBF11E0A0E0B1E0EAEBFAE202C00F
:1003500005900D92A433B107D9F724E0A4E3B1E0EE
:1003600001C01D92AA35B207E1F711E0CBE9D1E057
:1003700004C02197FE010E947111CA39D107C9F743
:100380000E94550B0C9450150C940000CF92DF92F4
:10039000EF92FF920F931F93CF93DF936C017A013B
:1003A0008B01C0E0D0E0CE15DF0589F0D8016D915A
:1003B0008D01D601ED91FC910190F081E02DC601F7
:1003C0000995892B11F47E0102C02196ECCFC7015B
:1003D000DF91CF911F910F91FF90EF90DF90CF9021
:1003E0000895FC01918D828D981761F0828DDF0157
:1003F000A80FB11D5D968C91928D9F5F9F73928F18
:1004000090E008958FEF9FEF0895FC01918D828D0C
:10041000981731F0828DE80FF11D858D90E00895D9
:100420008FEF9FEF0895FC01918D228D892F90E031
:10043000805C9F4F821B91098F73992708958FE4E9
:1004400092E00E94130221E0892B09F420E0822F20
:100450000895FC01848DDF01A80FB11DA35ABF4F81
:100460002C91848D90E001968F739927848FA689B3
:10047000B7892C93A089B1898C9180648C93938DDA
:10048000848D981306C00288F389E02D80818F7DCA
:1004900080830895EF92FF920F931F93CF93DF9382
:1004A000EC0181E0888F9B8D8C8D981305C0E889C5
:1004B000F989808185FD24C0F62E0B8D10E00F5F39
:1004C0001F4F0F731127E02E8C8DE8120CC00FB652
:1004D00007FCFACFE889F989808185FFF5CFCE0145
:1004E0000E942902F1CF8B8DFE01E80FF11DE35A26
:1004F000FF4FF0820B8FEA89FB898081806207C001
:10050000EE89FF896083E889F9898081806480832E
:1005100081E090E0DF91CF911F910F91FF90EF90DC
:100520000895CF93DF93EC01888D8823C9F0EA8981
:10053000FB89808185FD05C0A889B9898C9186FDDC
:100540000FC00FB607FCF5CF808185FFF2CFA889D9
:10055000B9898C9185FFEDCFCE010E942902E7CFAA
:10056000DF91CF91089580E090E0892B29F00E94DF
:100570001F0281110C94000008953FB7F8948091F8
:10058000A0019091A101A091A201B091A30126B573
:10059000A89B05C02F3F19F00196A11DB11D3FBFBB
:1005A000BA2FA92F982F8827820F911DA11DB11D49
:1005B000BC01CD0143E0660F771F881F991F4A9544
:1005C000D1F708958F929F92AF92BF92CF92DF9210
:1005D000EF92FF926B017C010E94BD024B015C0116
:1005E000C114D104E104F104F1F00E94BD02DC0168
:1005F000CB0188199909AA09BB09883E9340A10536
:10060000B10570F321E0C21AD108E108F10888EEC3
:10061000880E83E0981EA11CB11CC114D104E10412
:10062000F10419F7DDCFFF90EF90DF90CF90BF90EE
:10063000AF909F908F9008952FB7F89460919C0190
:1006400070919D0180919E0190919F012FBF08950F
:1006500085ED8093BC008091BC0084FDFCCF10929E
:100660000602089540917601262F30E0240F311DB7
:1006700021323105DCF4209106022430C9F4FC015A
:1006800080E090E0861758F4309176012191DC01EA
:10069000AC5ABE4FA30FB11D2C930196F3CF80919E
:1006A0007601680F6093760180E0089581E00895F7
:1006B00082E008950895E091BF018091BE01E8179E
:1006C00030F4F0E0E054FE4F808190E008958FEF29
:1006D0009FEF08959091BF018091BE01981750F44B
:1006E000E92FF0E0E054FE4F208130E09F5F9093CF
:1006F000BF0102C02FEF3FEFC90108958091BE01F5
:1007000090E02091BF01821B91090895CF92DF9262
:10071000EF92FF920F931F93CF93DF937C01262FCD
:10072000972F8A0180910702882391F0C62FD72F37
:100730006E01C40ED51ECC15DD0571F06991D7018F
:10074000ED91FC910190F081E02DC7010995F3CF67
:10075000642F822F0E943203C801DF91CF911F9135
:100760000F91FF90EF90DF90CF900895CF93DF939C
:100770001F92CDB7DEB76983209107022223D1F003
:1007800020912902203240F021E030E0FC01338347
:10079000228380E090E015C080910802E82FF0E00D
:1007A000E75FFD4F998190838F5F8093080280936C
:1007B000290205C061E0CE0101960E94320381E06A
:1007C00090E00F90DF91CF910895DC015196ED916B
:1007D000FC915297908150968C91809589238083CB
:1007E000089520914D0230914E022817390781F467
:1007F00090914B0280914C02981751F0E0914B027E
:10080000F0E0EC5CFE4F8081082E000C990B0895FF
:100810008FEF9FEF089520914D0230914E022817DF
:10082000390739F48FB7F89410924C0210924B02AA
:100830008FBF089520914D0230914E02281739073D
:1008400069F480914C0220914B0290E08096821BCB
:10085000910960E270E00E94F51008958FEF9FEF1C
:10086000089520914D0230914E0228173907B9F4AE
:1008700090914B0280914C029817A1F0E0914B02AD
:10088000F0E0EC5CFE4F808120914B0230E02F5F66
:100890003F4F2F71332720934B0290E008958FEF45
:1008A0009FEF08958EEF9FEF089520E001972FEFBF
:1008B0008F3F9207D9F70895EF92FF920F931F93FE
:1008C000CF93DF93C0914D02D0914E02209709F44F
:1008D00043C08B899C890E94550488E0E82EF12C46
:1008E00010E001E08D899E890E945504EE85FF8508
:1008F00090818D85892311F0102B03C0802F809566
:100900001823000F81E0E81AF10861F78D899E89AC
:100910000E9455048F89988D0E94550480914C0245
:1009200020914B0290E001968F71992730E0821759
:10093000930779F0E0914C02F0E0EC5CFE4F1083FD
:1009400080914C0290E001968F71992780934C0220
:1009500003C08D8D81608D8FDF91CF911F910F919D
:10096000FF90EF9008950E944415CF92DF92EF928E
:10097000FF920F931F93CF93DF93EC01898D9A8D94
:10098000009729F421E030E03B832A8364C0FFB65E
:10099000F89428E030E090E081E0482F462309F009
:1009A0009F5F880F21503109C1F78E8D81119F5FA4
:1009B000E62E192F1095CE010E94E503898D9A8DA0
:1009C00004960E94550488E0C82ED12C01E0802FA7
:1009D0008E2139F0E989FA8990818889892B808371
:1009E00003C0CE010E94E503898D9A8D0E945504B3
:1009F000000F81E0C81AD10851F78E8D882339F095
:100A0000E989FA8990818889892B808303C0CE0186
:100A10000E94E503898D9A8D0E94550410FF07C03E
:100A2000E989FA8990818889892B808303C0CE0166
:100A30000E94E503898D9A8D0E945504E989FA89FF
:100A400090818889892B8083FFBE8B8D9C8D0E942D
:100A5000550481E090E0DF91CF911F910F91FF90BD
:100A6000EF90DF90CF900895CF93DF93C0E0D0E078
:100A70008091220490E0C817D907ECF4209761F028
:100A80000197C817D90741F081E0209120043091E7
:100A90002104C217D30709F480E0FE01E459FC4F9A
:100AA00060818093410483E294E00E94B504109237
:100AB00041042196DDCFDF91CF9108951F920F92CF
:100AC0000FB60F9211242F933F934F935F936F9321
:100AD0007F938F939F93AF93BF93EF93FF938FE495
:100AE00092E00E942902FF91EF91BF91AF919F91F7
:100AF0008F917F916F915F914F913F912F910F90C7
:100B00000FBE0F901F9018951F920F920FB60F9265
:100B100011242F938F939F93EF93FF93E0915F02A4
:100B2000F09160028081E0916502F091660282FDA1
:100B300012C09081809168028F5F8F73209169024B
:100B4000821751F0E0916802F0E0E15BFD4F958F74
:100B50008093680201C08081FF91EF919F918F91F6
:100B60002F910F900FBE0F901F90189590E0FC01F1
:100B7000EC50FF4F3491FC01E05EFC4F2491FC01EE
:100B8000E45FFC4FE491EE2309F43BC0332339F1D9
:100B9000333091F038F43130A9F0323001F584B5BA
:100BA0008F7D12C0373091F03830A1F03430B9F475
:100BB000809180008F7D03C0809180008F7780932B
:100BC00080000DC084B58F7784BD09C08091B000CE
:100BD0008F7703C08091B0008F7D8093B000F0E0EC
:100BE000EE0FFF1FE850FD4FA591B4918FB7F89419
:100BF000EC91611103C020952E2301C02E2B2C9364
:100C00008FBF0895CF93DF9390E0FC01E05EFC4F2F
:100C10002491FC01E45FFC4F8491882361F190E012
:100C2000880F991FFC01E651FF4FC591D491FC013B
:100C3000E850FD4FA591B491611109C09FB7F89498
:100C40008881209582238883EC912E230BC062300B
:100C500061F49FB7F8943881822F8095832388832D
:100C6000EC912E2B2C939FBF06C08FB7F894E88190
:100C70002E2B28838FBFDF91CF9108951F920F9263
:100C80000FB60F9211242F933F938F939F93AF939F
:100C9000BF9380919C0190919D01A0919E01B09184
:100CA0009F0130919B0126E0230F2D3720F40296FF
:100CB000A11DB11D05C029E8230F0396A11DB11D7B
:100CC00020939B0180939C0190939D01A0939E0192
:100CD000B0939F018091A0019091A101A091A201E8
:100CE000B091A3010196A11DB11D8093A001909325
:100CF000A101A093A201B093A301BF91AF919F91D5
:100D00008F913F912F910F900FBE0F901F901895CC
:100D10001F920F920FB60F9211242F933F934F9370
:100D20005F936F937F938F939F93AF93BF93EF9353
:100D3000FF938091B900887F803609F49CC068F5E4
:100D4000883209F45BC090F4803109F454C038F45F
:100D5000882309F4F6C0883009F44DC0F6C0883104
:100D600009F44CC0803209F45DC0EFC0803409F44E
:100D700068C048F4803309F455C0883309F0E5C0F1
:100D800080930402D8C0803509F44FC0883509F437
:100D90005DC0883409F0D9C0D6C0883909F4C7C00D
:100DA000A8F4883709F467C038F4883609F463C0BA
:100DB000803709F460C0C9C0883809F4B8C08039E8
:100DC00009F45FC0803809F0C0C05BC0803B09F403
:100DD00086C038F4803A09F466C0883A09F47FC0C6
:100DE000B4C0803C09F4A7C0883C09F4A4C0883B87
:100DF00009F48AC0AAC08091E10110C09091030259
:100E000080910202981770F5E091030281E08E0F45
:100E100080930302F0E0EE51FE4F80818093BB008F
:100E200085EC86C0809304028EC0E091030281E0CD
:100E30008E0F809303028091BB00F0E0EE51FE4FD5
:100E4000808390910302809102026EC0E0910302C0
:100E500081E08E0F809303028091BB00F0E0EE51A1
:100E6000FE4F80838091050281116DC081E08093E7
:100E7000E00184EA61C083E08093060210929A0147
:100E8000CFCF80919A01803208F051C0E0919A0151
:100E900081E08E0F80939A018091BB00F0E0E658CC
:100EA000FE4F8083BDCF85EC8093BC00109206027C
:100EB00080919A01803230F4E0919A01F0E0E65896
:100EC000FE4F108260919A0170E0E0917801F091FC
:100ED00079018AE791E0099510929A0136C084E081
:100EE000809306021092770110927601E0917401CE
:100EF000F0917501099580917601811105C081E01D
:100F00008093760110925401E091770181E08E0F79
:100F100080937701F0E0EC5AFE4F80818093BB0014
:100F20009091770180917601981708F479CF85E840
:100F30008093BC000AC085EC8093BC00109206022E
:100F400004C0109204020E942803FF91EF91BF9108
:100F5000AF919F918F917F916F915F914F913F9151
:100F60002F910F900FBE0F901F9018951F920F9208
:100F70000FB60F9211242F933F934F935F936F936C
:100F80007F938F939F93AF93BF93EF93FF930E94B1
:100F90005C04FF91EF91BF91AF919F918F917F91F1
:100FA0006F915F914F913F912F910F900FBE0F90D6
:100FB0001F9018951F920F920FB60F9211242F9326
:100FC0003F934F935F936F937F938F939F93AF93D1
:100FD000BF93EF93FF930E945C04FF91EF91BF9149
:100FE000AF919F918F917F916F915F914F913F91C1
:100FF0002F910F900FBE0F901F9018951F920F9278
:101000000FB60F9211242F933F934F935F936F93DB
:101010007F938F939F93AF93BF93EF93FF930E9420
:101020005C04FF91EF91BF91AF919F918F917F9160
:101030006F915F914F913F912F910F900FBE0F9045
:101040001F9018952091290290915904213208F09F
:101050004AC0809106028111FCCF32E03093060233
:1010600031E0309305023FEF309304021092030207
:1010700020930202A9E0B2E042EE51E0FA013E2FD5
:10108000341B321718F43D913193F9CF1092E101DE
:101090002091E101990F922B9093E1019091E00151
:1010A000913061F41092E0019091E1019093BB00C6
:1010B0009091BC0093FDF8CF95EC01C095EE909314
:1010C000BC00909106029230E1F3909104029F3FA0
:1010D00079F080910402803241F0809104028033E3
:1010E00031F084E005C081E003C082E001C083E00C
:1010F000109208021092290210920702089590910E
:1011000006029111FCCF813208F080E291E09093C9
:101110000602909305022FEF20930402109203021F
:10112000280F209302029093E1019091E1019E6EBD
:101130009093E1019091E001913061F41092E0010F
:101140009091E1019093BB009091BC0093FDF8CF8A
:1011500095EC01C095EE9093BC0090910602913001
:10116000E1F390910302981710F480910302A2EE2C
:10117000B1E020EC31E0F9019E2F921B981718F492
:101180009D919193F9CF1092BF018093BE01089574
:1011900080914D0290914E0283529440A1F0809133
:1011A00040048E7F809340048FB7F89410924C02D5
:1011B00010924B0223E234E030934E0220934D0212
:1011C0008FBF81E0089580E008952F923F924F9263
:1011D0005F926F927F928F929F92AF92BF92CF92C7
:1011E000DF92EF92FF920F931F93CF93DF93CDB7D0
:1011F000DEB7A0970FB6F894DEBF0FBECDBF9091BB
:101200006A039923C9F02EE720936C0322E9209307
:101210006D0323E220936E0390936F03909103017B
:10122000992311F0915003C010926A0396E09093B5
:10123000030104E010E002C000E010E090916A03B6
:1012400091118AC19EE790936C039FE990936D037F
:1012500010926E0395E190936F0394EA909370035C
:101260009CEA9093710398E0909372031092730339
:101270008111DBC080E480936E0370906B038090DB
:10128000F8029090F90208E010E0612CD62CD70CFF
:10129000ED2DF0E0E815F9050CF0BAC0DF01AA0F5A
:1012A000BB1FA65BBC4FAD90BC90A114B10409F468
:1012B000ABC0D29430EFD322C80188509D4F7C013F
:1012C000DC01AC58BF4FDC92E65CFC4FC080CC2008
:1012D00021F093E09C1590F104C0D5016D917C91B3
:1012E00030C06C2D70E080E090E00E949B129B016A
:1012F000AC0160E070E080E291E40E949B13F50194
:1013000020813181428153810E942E131B012C01C7
:1013100020E030E0A9010E94291320E030E040E005
:101320005FE387FD05C0C201B1010E94871104C0BF
:10133000C201B1010E9486110E946512F3E0FC1502
:10134000B0F0F701EC58FF4F8D2D816080837F79DD
:10135000D12C20E2C29ED02CCC2411246C297D29D2
:1013600031966083319670830D5F1F4F4DC035E01D
:101370003C1508F1F701EC58FF4F8D2D85608083F7
:10138000D50112968C9112973196808311968C918B
:101390001197319680832C912F71C80185509D4FF4
:1013A000B4E0FC01EC58FF4FCB1201C02062208357
:1013B0000C5F1F4F29C0E9E0CE1226C0F701EC58A0
:1013C000FF4F8D2D89608083D50113968C911397E3
:1013D0003196808312968C91129731968083119664
:1013E0008C911197319680838C91F801E059FC4FD4
:1013F00080838C91853421F08E3421F4108202C0D8
:10140000B0E2B0830B5F1F4F6394E6E06E123ECFF5
:1014100086E0870D282F30E0281539051CF48093CD
:101420006B037BC010926B0378C0E0914A02F0E03E
:10143000EE0FFF1FE650FD4F608171817E01F1E1EB
:10144000EF0EF11CC7010E944915E0914A02F0E03D
:10145000EE0FFF1FE65EFC4F608171818E010F5F12
:101460001F4FC8010E94491580914A02809374035E
:10147000F70101900020E9F73197EE19FF09EE0F0F
:10148000EE0FEE0FD8010D900020E9F71197A01B89
:10149000B10BA370EA2BE0937503D7012AE030E08B
:1014A000F70101900020E9F73197AF014E195F096C
:1014B000F901EC58FF4FBD016E197F0964177507DC
:1014C00038F49D91E850FD4F90832F5F3F4FE8CF58
:1014D000E850FD4FA801201B310BB901640F751FA7
:1014E000D8010D900020E9F71197A01BB10B7A01EC
:1014F000E01AF10AEA16FB0628F4DA019D91AD0123
:101500009193EBCF8B018F5F90E06091F802709127
:10151000F9020E94F51080934A0280916E039EEFBB
:10152000900F892B80936E0322E0E0E0822F90E001
:10153000801791075CF4DC01A459BC4F8C91E8271B
:10154000F0E0E850FE4FE4912F5FF0CFD801A459AE
:10155000BC4FEC930F5F1F4FC80188509D4FFC019B
:10156000EC58FF4F2EEF20831093210400932004AA
:10157000D801A359BC4FEAE2F2E020E22E0F3191EC
:101580003D932E13FCCFFC01EB56FF4F8FEF808372
:101590000E5D1F4F0093220481E0A0960FB6F894D1
:1015A000DEBF0FBECDBFDF91CF911F910F91FF9096
:1015B000EF90DF90CF90BF90AF909F908F907F90F3
:1015C0006F905F904F903F902F900895CF93DF934F
:1015D000C1E0C093070297E7909359041092080264
:1015E00010922902682F8CEE92E00E94B6030E94AE
:1015F0002208C0930702109208021092290282E08A
:1016000090E00E947F088CEE92E00E946A03D82F3F
:1016100080E0C82F8CEE92E00E946A03C82BD92B81
:101620000E942208CE01DF91CF910895CF93C1E0AF
:10163000C093070297E79093590410920802109202
:101640002902682F8CEE92E00E94B6030E942208C5
:10165000C0930702109208021092290281E090E0E4
:101660000E947F088CEE92E00E946A03C82F0E94BD
:1016700022088C2FCF910895CF93C82F81E08093BB
:10168000070287E7809359041092080210922902FA
:1016900064EF8CEE92E00E94B6036C2F8CEE92E029
:1016A0000E94B603CF910C942208CF93DF93CDB75D
:1016B000DEB72B970FB6F894DEBF0FBECDBF789480
:1016C00084B5826084BD84B5816084BD85B5826047
:1016D00085BD85B5816085BD80916E0081608093F8
:1016E0006E00109281008091810082608093810061
:1016F0008091810081608093810080918000816071
:10170000809380008091B10084608093B1008091CB
:10171000B00081608093B00080917A0084608093F3
:101720007A0080917A00826080937A0080917A00BA
:101730008E7F80937A0080917A00806880937A000F
:101740001092C100E0915F02F091600282E080831C
:10175000E0915B02F0915C021082E0915D02F091F9
:101760005E0287E6808310926702E0916302F09147
:10177000640286E08083E0916102F09162028081E0
:1017800080618083E0916102F091620280818860D3
:101790008083E0916102F0916202808180688083A1
:1017A000E0916102F091620280818F7D80831092CE
:1017B000000161E08DE00E94020661E08DE00E9480
:1017C000B60561E083E00E94020610923F04109289
:1017D0003E0410923D0410923C0410923B0410927F
:1017E0003A0410923904109238041092370410927F
:1017F000360488E091E020E030E0FC01459155910D
:1018000065917491443E55426105710509F034C0FB
:101810004EE0429FC001439F900D1124FC01E45F04
:10182000FE4F259134913093370420933604FC0108
:10183000E25FFE4F259134913093390420933804B0
:10184000FC01E05FFE4F2591349130933B042093DF
:101850003A04FC01EE5EFE4F2591349130933D0435
:1018600020933C04FC01EC5EFE4F85919491909393
:101870003F0480933E0407C02F5F3F4F0E962E30EB
:10188000310509F0BACF80913A0490913B04892B3D
:1018900009F446C090912F049631E0F5209168003C
:1018A000983050F031E09E3008F430E081E001C023
:1018B000880F3A95EAF701C084E0822B8093680094
:1018C000983038F09E3040F0963148F4ECE6F0E085
:1018D00008C0EDE6F0E005C0EBE6F0E002C0E0E0B5
:1018E000F0E04081983030F481E001C0880F9A9593
:1018F000EAF70EC0292F30E09E3018F42850310945
:1019000002C02E50310981E001C0880F2A95EAF704
:10191000842B808380913C0490913D040E94550467
:101920000E94C808E8EEF1E0AAE2B2E080E020E21E
:1019300030E13A0F811180C39491992309F47CC35B
:101940009C93119631963A13F5CFEDEDF1E0AAE3B1
:10195000B2E080E020E230E13A0F811170C394914F
:10196000992309F46CC39C93119631963A13F5CFE1
:1019700089ED91E09093FB028093FA028CEC91E068
:1019800090931B0380931A038091F8029091F902BF
:101990009C012F5F3F4FF901EE0FFF1FE650FD4FF7
:1019A00040ED51E051834083FC01EE0FFF1FE45EE8
:1019B000FC4F4EEC51E051834083FC01EE0FFF1FC2
:1019C000E45BFC4F11821082F901E65CFC4F10824F
:1019D00002969093F9028093F80286EA91E0909340
:1019E0004D0380934C0310923B0383E080934204A9
:1019F0001092BF011092BE011092080210922902AB
:101A00001092060281E0809305021092E00161E0ED
:101A100082E10E94B60561E083E10E94B6058091F3
:101A2000B9008E7F8093B9008091B9008D7F80933B
:101A3000B90080E28093B80085E48093BC0080ED1B
:101A40000E94160B853509F04DC08AEA0E94E60A0D
:101A500090934404809343048CEA0E94E60A909396
:101A60004604809345048EEA0E94E60A9093480457
:101A70008093470480EB0E94E60A9093540480937D
:101A8000530482EB0E94E60A909356048093550417
:101A900084EB0E94E60A909358048093570486EBE7
:101AA0000E94E60A90934A048093490488EB0E94BE
:101AB000E60A90934C0480934B048AEB0E94E60A5A
:101AC00090934E0480934D048CEB0E94E60A909311
:101AD000500480934F048EEB0E94E60A90935204C8
:101AE000809351041092A9011092A8011092AB01A9
:101AF0001092AA011092AD011092AC011092AF01A8
:101B00001092AE011092B1011092B0011092B30187
:101B10001092B20181E00E94E5080E94340564E160
:101B200070E080E090E00E94E20280914A02811120
:101B3000F1CF60E08DE00E94B605E8E02E2E312C5A
:101B400006E010E08EE20E943C0B65E070E080E071
:101B500090E00E94E20286EF0E94E60A6C01E12C0E
:101B6000F12C809142048295880F880F807C8C5CD8
:101B70000E943C0B80914204811105C065E070E039
:101B800080E090E012C0813029F468E070E080E0ED
:101B900090E00BC0823029F46EE070E080E090E0CD
:101BA00004C06AE170E080E090E00E94E20286EF0B
:101BB0000E94E60A4C01A12CB12CBA2CA92C982C1D
:101BC000882488EF0E94160B882AB0914204BB87B4
:101BD0008091570490915804A7019601281B390B56
:101BE00041095109A0915504B09156040E944A112F
:101BF0006B017C01AFE0F594E794D794C794AA9564
:101C0000D1F760914F0470915004CB01770FAA0B6C
:101C1000BB0BBC01CD01BBE0660F771F881F991F6E
:101C2000BA95D1F720915104309152042901330F14
:101C300066087708A7019601240D351D461D571D1E
:101C40000E942B11C20ED31EE41EF51EE0EACE1A2E
:101C5000EFE0DE0AE108F108A7019601C701B6012D
:101C60000E94E5109B01AC018CE055954795379596
:101C700027958A95D1F729833A834B835C83E0913A
:101C80004304F0914404FA87E987A0914704B09196
:101C90004804A70196010E9455112B013C019DE0CB
:101CA00075946794579447949A95D1F7A0914904F5
:101CB000B0914A0429813A814B815C810E9455117F
:101CC000BB2797FDB095AB2F840D951DA61DB71DA5
:101CD0000296A11DB11D32E0B595A7959795879500
:101CE0003A95D1F79C01AD0130584F4F5F4FA0910D
:101CF0005304B09154040E944A112B013C014FE05F
:101D000076946794579447944A95D1F7C101FB851F
:101D10008F1B9109A501940104C0569547953795ED
:101D200027958A95D2F72D833E834F835887E9857F
:101D3000FA854F01FF0FAA08BB0852E0880C991CD6
:101D4000AA1CBB1C5A95D1F7A0914B04B0914C042E
:101D500029813A814B815C810E9455119B01AC0124
:101D60006BE055954795379527956A95D1F7298367
:101D70003A834B835C83A0914504B0914604A7014C
:101D800096010E945511DC01CB017BE0B595A7952A
:101D9000979587957A95D1F729813A814B815C8116
:101DA000820F931FA41FB51F880D991DAA1DBB1D6F
:101DB0000B8404C0880F991FAA1FBB1F0A94D2F777
:101DC000BC01CD016E5F7F4F8F4F9F4F24E030E00D
:101DD00040E050E00E942B118D819E81AF81B8853B
:101DE000821B930BA40BB50B9C01AD0160E573EC5A
:101DF00080E090E00B8404C0969587957795679571
:101E00000A94D2F70E94E51097FD0BC0660F771F6A
:101E1000881F991FA30192010E94091169017A018B
:101E20000AC0A30192010E94091169017A01CC0C38
:101E3000DD1CEE1CFF1C9927F7FC9A958F2D7E2D3B
:101E40006D2D9B01AC010E94E5109B01AC01AEED34
:101E5000BBE00E944A114C01BB2497FCB094AB2C10
:101E6000A3E4B3EEA70196010E945811BB2797FD8A
:101E7000B095AB2F880D991DAA1DBB1D8153914FA5
:101E8000AF4FBF4F44E0B595A795979587954A9575
:101E9000D1F7BC01CD016C0D7D1D8E1D9F1D0E94D3
:101EA0009D1220E836EE45EC57E40E94F31121E044
:101EB0003EED42E45EE30E949B139B01AC0160E0B7
:101EC00070E080E89FE30E94861120E03AE24DE254
:101ED00057E40E942E130E9465127093BD01609317
:101EE000BC012091BA013091BB012431310521F4AC
:101EF0007093B9016093B8014091B4015091B5015C
:101F0000FA01EE0FFF1FE855FE4FE090B601F0908A
:101F1000B701A081B1816701CA1ADB0A71836083AE
:101F2000C601860F971F9093B7018093B6014F5F4C
:101F30005F4F463051052CF45093B5014093B401E6
:101F400004C01092B5011092B401B8010E94F510BE
:101F50008091B8019091B901681B790B7093A7012A
:101F60006093A6012531310554F42F5F3F4F309324
:101F7000BB012093BA011092A7011092A6010E9402
:101F80001C030E9434050E941C036B017C0160E06D
:101F900083E00E94020662E084E00E9402060E9442
:101FA000C80883E294E00E940B0483E294E00E945C
:101FB0001A04892B61F40E941C03DC01CB018C19EB
:101FC0009D09AE09BF090697A105B10570F383E22B
:101FD00094E00E941A04181619067CF483E294E037
:101FE0000E94310420910101309102012817390724
:101FF00021F090930201809301018091A4019091BE
:10200000A50101969093A5018093A401059744F042
:1020100081E00E94E5081092A5011092A40103C07E
:1020200080E00E94E5080E941C0361E084E00E94B9
:1020300002060E94B30286CD2C9381E082CC2C93C1
:1020400081E092CC88E291E0909324048093230471
:1020500020912F04263140F5283028F02E3030F022
:10206000ECE6F0E005C0EDE6F0E002C0EBE6F0E003
:102070003081283038F481E090E001C0880F2A9543
:10208000EAF70FC0422F50E02E3018F448505109A3
:1020900002C04E50510981E090E001C0880F4A957E
:1020A000EAF78095832380830895CF93DF93EFE44D
:1020B000F2E01382128288EE93E0A0E0B0E0848325
:1020C0009583A683B78328E031E03183208325EC14
:1020D00030E03587248724EC30E03787268720ECF2
:1020E00030E0318B208B21EC30E0338B228B22ECE3
:1020F00030E0358B248B26EC30E0378B268B118E2D
:10210000128E138E148EECEEF2E013821282848310
:102110009583A683B78328E131E031832083C3E22E
:10212000D4E01B821A828C839D83AE83BF8388E2B6
:1021300091E0998388831C8A1B8A1E8A1D8A188EC7
:102140001F8A1A8E198E1C8E1B8EE0E4F4E08081AB
:102150008E7F808361E084E00E94020661E084E07B
:102160000E94B605E4E2F3E0E491E88BE0E1F3E0FD
:10217000E491F0E0EE0FFF1FE850FD4F8591949140
:102180009A8B898B62E083E00E94020683E08C8751
:10219000E3E2F3E0E491ED87EFE0F3E0E491F0E0D7
:1021A000EE0FFF1FEE5FFC4F859194919F878E8706
:1021B00010926A031092F9021092F802109222040F
:1021C00010926B03DF91CF910895DB018F939F9362
:1021D0000E944A11BF91AF91A29F800D911DA39FB4
:1021E000900DB29F900D1124089597FB072E16F4C1
:1021F000009407D077FD09D00E945D1107FC05D03F
:102200003EF4909581959F4F0895709561957F4F0D
:102210000895A1E21A2EAA1BBB1BFD010DC0AA1F27
:10222000BB1FEE1FFF1FA217B307E407F50720F03F
:10223000A21BB30BE40BF50B661F771F881F991FBA
:102240001A9469F760957095809590959B01AC0103
:10225000BD01CF010895052E97FB1EF400940E9446
:10226000421157FD07D00E94091107FC03D04EF41C
:102270000C94421150954095309521953F4F4F4F0A
:102280005F4F089590958095709561957F4F8F4F22
:102290009F4F08950E947711A59F900DB49F900DB8
:1022A000A49F800D911D11240895B7FF0C944A112D
:1022B0000E944A11821B930B0895AA1BBB1B51E17C
:1022C00007C0AA1FBB1FA617B70710F0A61BB70BA6
:1022D000881F991F5A95A9F780959095BC01CD014B
:1022E0000895EE0FFF1F0590F491E02D0994A29F31
:1022F000B001B39FC001A39F700D811D1124911DDA
:10230000B29F700D811D1124911D08955058BB2757
:10231000AA270E949E110C94EF120E94E11238F03D
:102320000E94E81220F039F49F3F19F426F40C942F
:10233000DE120EF4E095E7FB0C94D812E92F0E9410
:10234000001358F3BA17620773078407950720F044
:1023500079F4A6F50C9422130EF4E0950B2EBA2F07
:10236000A02D0B01B90190010C01CA01A00111249B
:10237000FF27591B99F0593F50F4503E68F11A1647
:10238000F040A22F232F342F4427585FF3CF4695D8
:1023900037952795A795F0405395C9F77EF41F16FA
:1023A000BA0B620B730B840BBAF09150A1F0FF0FC4
:1023B000BB1F661F771F881FC2F70EC0BA0F621FB0
:1023C000731F841F48F4879577956795B795F795A0
:1023D0009E3F08F0B0CF9395880F08F09927EE0F35
:1023E0009795879508950E9407120C94EF120E940A
:1023F000E81258F00E94E11240F029F45F3F29F002
:102400000C94D81251110C9423130C94DE120E94D8
:10241000001368F39923B1F3552391F3951B550BE2
:10242000BB27AA2762177307840738F09F5F5F4FA7
:10243000220F331F441FAA1FA9F335D00E2E3AF0E6
:10244000E0E832D091505040E695001CCAF72BD0FE
:10245000FE2F29D0660F771F881FBB1F261737074F
:102460004807AB07B0E809F0BB0B802DBF01FF2781
:1024700093585F4F3AF09E3F510578F00C94D81274
:102480000C9423135F3FE4F3983ED4F3869577953D
:102490006795B795F7959F5FC9F7880F911D96953A
:1024A000879597F90895E1E0660F771F881FBB1F96
:1024B000621773078407BA0720F0621B730B840B43
:1024C000BA0BEE1F88F7E09508950E946C1268948D
:1024D000B1110C94231308950E94081388F09F579C
:1024E00098F0B92F9927B751B0F0E1F0660F771F38
:1024F000881F991F1AF0BA95C9F714C0B13091F02E
:102500000E942213B1E008950C942213672F782FB4
:102510008827B85F39F0B93FCCF3869577956795F2
:10252000B395D9F73EF490958095709561957F4F5E
:102530008F4F9F4F0895E89409C097FB3EF4909504
:102540008095709561957F4F8F4F9F4F9923A9F08C
:10255000F92F96E9BB279395F6958795779567951B
:10256000B795F111F8CFFAF4BB0F11F460FF1BC05F
:102570006F5F7F4F8F4F9F4F16C0882311F096E9F2
:1025800011C0772321F09EE8872F762F05C06623A0
:1025900071F096E8862F70E060E02AF09A95660F59
:1025A000771F881FDAF7880F9695879597F9089512
:1025B00097F99F6780E870E060E008959FEF80ECF6
:1025C000089500240A941616170618060906089599
:1025D00000240A9412161306140605060895092EFF
:1025E0000394000C11F4882352F0BB0F40F4BF2B6E
:1025F00011F460FF04C06F5F7F4F8F4F9F4F0895AE
:1026000057FD9058440F551F59F05F3F71F04795A3
:10261000880F97FB991F61F09F3F79F08795089588
:10262000121613061406551FF2CF4695F1DF08C0A7
:10263000161617061806991FF1CF869571056105C4
:1026400008940895E894BB2766277727CB0197F96C
:1026500008950E94251408F48FEF08950E944113F5
:102660000C94EF120E94E11238F00E94E81220F060
:10267000952311F00C94D8120C94DE1211240C94B2
:1026800023130E94001370F3959FC1F3950F50E040
:10269000551F629FF001729FBB27F00DB11D639F14
:1026A000AA27F00DB11DAA1F649F6627B00DA11DBA
:1026B000661F829F2227B00DA11D621F739FB00D60
:1026C000A11D621F839FA00D611D221F749F3327D0
:1026D000A00D611D231F849F600D211D822F762F69
:1026E0006A2F11249F5750409AF0F1F088234AF046
:1026F000EE0FFF1FBB1F661F771F881F91505040B2
:10270000A9F79E3F510580F00C94D8120C94231326
:102710005F3FE4F3983ED4F3869577956795B79538
:10272000F795E7959F5FC1F7FE2B880F911D969552
:10273000879597F90895FA01EE0FFF1F309621054E
:102740003105A1F16115710561F48038BFE39B0784
:1027500049F168949038810561F08038BFEF9B079C
:1027600041F099234AF5FF3FE1053105210519F1B3
:10277000E8940894E795D901AA2329F4AB2FBE2F3A
:10278000F85FD0F310C0FF5F70F4A695E0F7F7395B
:1027900050F019F0FF3A38F49F779F930DD00F90C7
:1027A00007FC9058089546F00C94DE1260E070E04B
:1027B00080E89FE308954FE79F775F934F933F93A0
:1027C0002F930E94BA142F913F914F915F910E94D5
:1027D0002E130C94F31329F416F00C94D8120C94C5
:1027E00022130C94DE120E940813A8F39638A0F767
:1027F00007F80F92E8942BE33AEA48EB5FE70E9470
:1028000044130F920F920F924DB75EB70F920E9432
:102810000215E8E6F0E00E9449144F915F91EF91B4
:10282000FF91E595EE1FFF1F49F0FE57E068442732
:10283000EE0F441FFA95E1F74195550B0E947C1469
:102840000F9007FE0C9470140895990F0008550F0F
:10285000AA0BE0E8FEEF16161706E807F907C0F026
:1028600012161306E407F50798F0621B730B840B2E
:10287000950B39F40A2661F0232B242B252B21F408
:1028800008950A2609F4A140A6958FEF811D811DA8
:102890000895DF93CF931F930F93FF92EF92DF92F0
:1028A0007B018C01689406C0DA2EEF010E9441136F
:1028B000FE01E894A5912591359145915591A6F396
:1028C000EF010E949E11FE019701A801DA9469F7B9
:1028D000DF90EF90FF900F911F91CF91DF910895BE
:1028E0009B01AC0160E070E080E89FE30C94F31181
:1028F0000C94D8120C9436150E940813D8F399231F
:10290000C9F3940F511DA3F39150504094F059F026
:10291000882332F0660F771F881F91505040C1F70F
:102920009E3F51052CF7880F911D9695879597F935
:1029300008955F3FACF0983E9CF0BB278695779555
:102940006795B79508F4B1609395C1F7BB0F58F739
:1029500011F460FFE8CF6F5F7F4F8F4F9F4FE3CF42
:102960000C94231316F00C9436150C94DE12689414
:102970000C94D8120E940813A8F39923C1F3AEF364
:10298000DF93CF931F930F93FF92C92FDD278823E7
:102990002AF02197660F771F881FDAF720E030E0D2
:1029A00040E85FEB9FE3883920F0803E38F02196C5
:1029B0008F770E948711E0E9F0E004C00E94871140
:1029C000EDEBF0E00E9449148B01BE01EC01FB2EFF
:1029D0006F5771097595771F880B990B0E949D128F
:1029E00028E132E741E35FE30E944113AF2D9801F4
:1029F000AE01FF900F911F91CF91DF910E949E1128
:102A00000C94EF12FA01DC01AA0FBB1F9B01AC0171
:102A1000BF5728F4222733274427507820C0B751C6
:102A200090F4AB2F0024469537952795011CA3956C
:102A3000D2F3002071F0220F331F441FB395DAF355
:102A40000ED00C94861161307105A0E88A07B94652
:102A500030F49B01AC016627772788279078309661
:102A600021F0208331834283538308959F3F31F0C7
:102A7000915020F4879577956795B795880F911DAC
:102A80009695879597F9089581E090E0F8940C94D5
:102A90005015FB01DC0105900D920020E1F708952F
:102AA00011E0CBE9D1E004C0FE010E947111219632
:0A2AB000CC39D107C9F7F894FFCF25
:102ABA0001F00006000000004A02C6011302F101FB
:102ACA000502910200000000B60386037E036A0332
:102ADA005B035A0300000000B504C6011A0431045E
:042AEA00F1030B04E5
:00000001FF
